{
  "contractName": "Booster",
  "abi": [
    {
      "constant": true,
      "inputs": [
        {
          "name": "",
          "type": "bytes32"
        }
      ],
      "name": "depositLogs",
      "outputs": [
        {
          "name": "stage",
          "type": "bytes32"
        },
        {
          "name": "client",
          "type": "bytes32"
        },
        {
          "name": "value",
          "type": "bytes32"
        },
        {
          "name": "assetID",
          "type": "bytes32"
        },
        {
          "name": "flag",
          "type": "bool"
        }
      ],
      "payable": false,
      "stateMutability": "view",
      "type": "function"
    },
    {
      "constant": true,
      "inputs": [],
      "name": "stagePeriod",
      "outputs": [
        {
          "name": "",
          "type": "uint256"
        }
      ],
      "payable": false,
      "stateMutability": "view",
      "type": "function"
    },
    {
      "constant": true,
      "inputs": [
        {
          "name": "",
          "type": "address"
        }
      ],
      "name": "assetAddresses",
      "outputs": [
        {
          "name": "",
          "type": "bool"
        }
      ],
      "payable": false,
      "stateMutability": "view",
      "type": "function"
    },
    {
      "constant": true,
      "inputs": [
        {
          "name": "",
          "type": "uint256"
        }
      ],
      "name": "assetAddressesArray",
      "outputs": [
        {
          "name": "",
          "type": "address"
        }
      ],
      "payable": false,
      "stateMutability": "view",
      "type": "function"
    },
    {
      "constant": true,
      "inputs": [
        {
          "name": "",
          "type": "bytes32"
        }
      ],
      "name": "withdrawalLogs",
      "outputs": [
        {
          "name": "stage",
          "type": "bytes32"
        },
        {
          "name": "client",
          "type": "bytes32"
        },
        {
          "name": "value",
          "type": "bytes32"
        },
        {
          "name": "assetID",
          "type": "bytes32"
        },
        {
          "name": "flag",
          "type": "bool"
        }
      ],
      "payable": false,
      "stateMutability": "view",
      "type": "function"
    },
    {
      "constant": true,
      "inputs": [
        {
          "name": "",
          "type": "uint256"
        }
      ],
      "name": "stages",
      "outputs": [
        {
          "name": "receiptRootHash",
          "type": "bytes32"
        },
        {
          "name": "accountRootHash",
          "type": "bytes32"
        },
        {
          "name": "data",
          "type": "bytes32"
        },
        {
          "name": "attachTimestamp",
          "type": "uint256"
        },
        {
          "name": "finalizeTimeStamp",
          "type": "uint256"
        }
      ],
      "payable": false,
      "stateMutability": "view",
      "type": "function"
    },
    {
      "constant": true,
      "inputs": [],
      "name": "owner",
      "outputs": [
        {
          "name": "",
          "type": "address"
        }
      ],
      "payable": false,
      "stateMutability": "view",
      "type": "function"
    },
    {
      "constant": true,
      "inputs": [],
      "name": "instantWithdrawMaximum",
      "outputs": [
        {
          "name": "",
          "type": "uint256"
        }
      ],
      "payable": false,
      "stateMutability": "view",
      "type": "function"
    },
    {
      "constant": true,
      "inputs": [
        {
          "name": "",
          "type": "bytes32"
        }
      ],
      "name": "modules",
      "outputs": [
        {
          "name": "",
          "type": "address"
        }
      ],
      "payable": false,
      "stateMutability": "view",
      "type": "function"
    },
    {
      "constant": true,
      "inputs": [],
      "name": "goblin",
      "outputs": [
        {
          "name": "",
          "type": "address"
        }
      ],
      "payable": false,
      "stateMutability": "view",
      "type": "function"
    },
    {
      "constant": true,
      "inputs": [],
      "name": "depositSequenceNumber",
      "outputs": [
        {
          "name": "",
          "type": "uint256"
        }
      ],
      "payable": false,
      "stateMutability": "view",
      "type": "function"
    },
    {
      "constant": true,
      "inputs": [],
      "name": "managerAddress",
      "outputs": [
        {
          "name": "",
          "type": "address"
        }
      ],
      "payable": false,
      "stateMutability": "view",
      "type": "function"
    },
    {
      "constant": true,
      "inputs": [],
      "name": "stageHeight",
      "outputs": [
        {
          "name": "",
          "type": "uint256"
        }
      ],
      "payable": false,
      "stateMutability": "view",
      "type": "function"
    },
    {
      "inputs": [
        {
          "name": "_boosterOwner",
          "type": "address"
        },
        {
          "name": "_goblin",
          "type": "address"
        },
        {
          "name": "_assetAddresses",
          "type": "address[]"
        },
        {
          "name": "_instantWithdrawMaximum",
          "type": "uint256"
        }
      ],
      "payable": false,
      "stateMutability": "nonpayable",
      "type": "constructor"
    },
    {
      "payable": true,
      "stateMutability": "payable",
      "type": "fallback"
    },
    {
      "anonymous": false,
      "inputs": [
        {
          "indexed": true,
          "name": "_dsn",
          "type": "bytes32"
        },
        {
          "indexed": true,
          "name": "_client",
          "type": "bytes32"
        },
        {
          "indexed": false,
          "name": "_value",
          "type": "bytes32"
        },
        {
          "indexed": false,
          "name": "_assetID",
          "type": "bytes32"
        }
      ],
      "name": "ProposeDeposit",
      "type": "event"
    },
    {
      "anonymous": false,
      "inputs": [
        {
          "indexed": true,
          "name": "_type",
          "type": "uint256"
        },
        {
          "indexed": false,
          "name": "_gsn",
          "type": "bytes32"
        },
        {
          "indexed": false,
          "name": "_lightTxHash",
          "type": "bytes32"
        },
        {
          "indexed": false,
          "name": "_fromBalance",
          "type": "bytes32"
        },
        {
          "indexed": false,
          "name": "_toBalance",
          "type": "bytes32"
        },
        {
          "indexed": false,
          "name": "_sigLightTx",
          "type": "bytes32[3]"
        },
        {
          "indexed": false,
          "name": "_sigReceipt",
          "type": "bytes32[3]"
        }
      ],
      "name": "VerifyReceipt",
      "type": "event"
    },
    {
      "anonymous": false,
      "inputs": [
        {
          "indexed": true,
          "name": "_wsn",
          "type": "bytes32"
        },
        {
          "indexed": true,
          "name": "_client",
          "type": "bytes32"
        },
        {
          "indexed": false,
          "name": "_value",
          "type": "bytes32"
        },
        {
          "indexed": false,
          "name": "_assetID",
          "type": "bytes32"
        }
      ],
      "name": "Withdraw",
      "type": "event"
    },
    {
      "anonymous": false,
      "inputs": [
        {
          "indexed": false,
          "name": "_stageHeight",
          "type": "bytes32"
        },
        {
          "indexed": false,
          "name": "_receiptRootHash",
          "type": "bytes32"
        },
        {
          "indexed": false,
          "name": "_accountRootHash",
          "type": "bytes32"
        }
      ],
      "name": "Attach",
      "type": "event"
    },
    {
      "anonymous": false,
      "inputs": [
        {
          "indexed": false,
          "name": "_stageHeight",
          "type": "bytes32"
        }
      ],
      "name": "Finalize",
      "type": "event"
    },
    {
      "anonymous": false,
      "inputs": [
        {
          "indexed": true,
          "name": "_challengedType",
          "type": "uint256"
        },
        {
          "indexed": false,
          "name": "_client",
          "type": "bytes32"
        },
        {
          "indexed": false,
          "name": "_lightTxHash",
          "type": "bytes32"
        }
      ],
      "name": "Challenge",
      "type": "event"
    },
    {
      "anonymous": false,
      "inputs": [
        {
          "indexed": false,
          "name": "_moduleName",
          "type": "bytes32"
        },
        {
          "indexed": false,
          "name": "_moduleAddress",
          "type": "address"
        }
      ],
      "name": "AttachBoosterModule",
      "type": "event"
    },
    {
      "constant": false,
      "inputs": [
        {
          "name": "asAddress",
          "type": "address"
        }
      ],
      "name": "setAssetAddress",
      "outputs": [],
      "payable": false,
      "stateMutability": "nonpayable",
      "type": "function"
    },
    {
      "constant": false,
      "inputs": [
        {
          "name": "asAddress",
          "type": "address"
        }
      ],
      "name": "unsetAssetAddress",
      "outputs": [],
      "payable": false,
      "stateMutability": "nonpayable",
      "type": "function"
    },
    {
      "constant": true,
      "inputs": [],
      "name": "getAssetAddressesLength",
      "outputs": [
        {
          "name": "",
          "type": "uint256"
        }
      ],
      "payable": false,
      "stateMutability": "view",
      "type": "function"
    },
    {
      "constant": false,
      "inputs": [
        {
          "name": "_parameter",
          "type": "bytes32[]"
        }
      ],
      "name": "proposeTokenDeposit",
      "outputs": [],
      "payable": false,
      "stateMutability": "nonpayable",
      "type": "function"
    },
    {
      "constant": false,
      "inputs": [
        {
          "name": "_parameter",
          "type": "bytes32[]"
        }
      ],
      "name": "deposit",
      "outputs": [],
      "payable": false,
      "stateMutability": "nonpayable",
      "type": "function"
    },
    {
      "constant": false,
      "inputs": [
        {
          "name": "_parameter",
          "type": "bytes32[]"
        }
      ],
      "name": "proposeWithdrawal",
      "outputs": [],
      "payable": false,
      "stateMutability": "nonpayable",
      "type": "function"
    },
    {
      "constant": false,
      "inputs": [
        {
          "name": "_parameter",
          "type": "bytes32[]"
        }
      ],
      "name": "withdraw",
      "outputs": [],
      "payable": false,
      "stateMutability": "nonpayable",
      "type": "function"
    },
    {
      "constant": false,
      "inputs": [
        {
          "name": "_parameter",
          "type": "bytes32[]"
        }
      ],
      "name": "instantWithdraw",
      "outputs": [],
      "payable": false,
      "stateMutability": "nonpayable",
      "type": "function"
    },
    {
      "constant": false,
      "inputs": [
        {
          "name": "_from",
          "type": "address"
        },
        {
          "name": "_value",
          "type": "uint256"
        }
      ],
      "name": "tokenFallback",
      "outputs": [
        {
          "name": "success",
          "type": "bool"
        }
      ],
      "payable": false,
      "stateMutability": "nonpayable",
      "type": "function"
    },
    {
      "constant": false,
      "inputs": [
        {
          "name": "_parameter",
          "type": "bytes32[]"
        },
        {
          "name": "_assetAddress",
          "type": "bytes32[]"
        },
        {
          "name": "_feeValue",
          "type": "bytes32[]"
        }
      ],
      "name": "attach",
      "outputs": [],
      "payable": false,
      "stateMutability": "nonpayable",
      "type": "function"
    },
    {
      "constant": false,
      "inputs": [
        {
          "name": "_stageHeight",
          "type": "uint256"
        }
      ],
      "name": "getFeeWithStageHeight",
      "outputs": [],
      "payable": false,
      "stateMutability": "nonpayable",
      "type": "function"
    },
    {
      "constant": false,
      "inputs": [
        {
          "name": "_receipt1",
          "type": "bytes32[]"
        },
        {
          "name": "_receipt2",
          "type": "bytes32[]"
        }
      ],
      "name": "challenge",
      "outputs": [],
      "payable": false,
      "stateMutability": "nonpayable",
      "type": "function"
    },
    {
      "constant": true,
      "inputs": [
        {
          "name": "gsn",
          "type": "bytes32"
        }
      ],
      "name": "checkStateChallenge",
      "outputs": [
        {
          "name": "",
          "type": "bool"
        }
      ],
      "payable": false,
      "stateMutability": "view",
      "type": "function"
    },
    {
      "constant": false,
      "inputs": [
        {
          "name": "period",
          "type": "uint256"
        }
      ],
      "name": "setStagePeriod",
      "outputs": [],
      "payable": false,
      "stateMutability": "nonpayable",
      "type": "function"
    },
    {
      "constant": true,
      "inputs": [],
      "name": "checkStageTimeout",
      "outputs": [
        {
          "name": "",
          "type": "bool"
        }
      ],
      "payable": false,
      "stateMutability": "view",
      "type": "function"
    },
    {
      "constant": false,
      "inputs": [],
      "name": "finalizeStage",
      "outputs": [],
      "payable": false,
      "stateMutability": "nonpayable",
      "type": "function"
    },
    {
      "constant": true,
      "inputs": [
        {
          "name": "tokenAddress",
          "type": "address"
        }
      ],
      "name": "getInsuranceBalance",
      "outputs": [
        {
          "name": "",
          "type": "uint256"
        }
      ],
      "payable": false,
      "stateMutability": "view",
      "type": "function"
    },
    {
      "constant": false,
      "inputs": [
        {
          "name": "tokenAddress",
          "type": "address"
        },
        {
          "name": "amount",
          "type": "uint256"
        }
      ],
      "name": "putInsurance",
      "outputs": [],
      "payable": true,
      "stateMutability": "payable",
      "type": "function"
    },
    {
      "constant": false,
      "inputs": [
        {
          "name": "moduleName",
          "type": "bytes32"
        },
        {
          "name": "moduleAddress",
          "type": "address"
        }
      ],
      "name": "attachBoosterModule",
      "outputs": [],
      "payable": false,
      "stateMutability": "nonpayable",
      "type": "function"
    }
  ],
  "bytecode": "0x6080604052620151806009553480156200001857600080fd5b5060405162003c9238038062003c928339810160409081528151602080840151838501516060860151600c805433600160a060020a031991821617909155600a80548216600160a060020a0380891691909117909155600b8054909216908516179055600781905560065460009081526002948590529586207f67656e6973697320737461676500000000000000000000000000000000000000940193909355929490939201915b8251811015620001a6576000808483815181101515620000dc57fe5b6020908102909101810151600160a060020a031682528101919091526040016000205460ff1615156200019d57600160008085848151811015156200011d57fe5b602090810291909101810151600160a060020a03168252810191909152604001600020805460ff19169115159190911790558251600d908490839081106200016157fe5b6020908102919091018101518254600181018455600093845291909220018054600160a060020a031916600160a060020a039092169190911790555b600101620000c0565b5050505050613ad780620001bb6000396000f30060806040526004361061017b5763ffffffff60e060020a600035041662f817d681146101fb57806305760a5a14610240578063098bbb6214610267578063130ee4ad1461029c5780632357789f146102d057806326e091c8146102e55780633b66d02b146102ff5780633f8abf74146103235780634fcb030614610338578063637b93ed1461035057806368ff1929146103715780636cdcf150146103c6578063770e09fd146103de5780637b9d7d74146103ff578063845ddcb214610454578063865ce4b2146104975780638d3959d9146104bb5780638da5cb5b146104d357806390c8a3a1146104e8578063a8f653fa146104fd578063b0b6cc1a14610512578063b7156cf91461052a578063be1946da1461053f578063c5025b8714610594578063c68ef228146105e9578063cc6e7a14146106b0578063cf73a1bc146106c5578063df3c14fc146106da578063f418eae4146106f1578063fb3b65bb14610706578063fe2b392414610727578063ff208da51461077c575b6040805160038082526080820190925260609160208201838038833950508151919250339183915060009081106101ae57fe5b6020908102909101015280513490829060019081106101c957fe5b602090810290910101528051600090829060029081106101e557fe5b602090810290910101526101f88161080a565b50005b34801561020757600080fd5b5061021360043561093f565b60408051958652602086019490945284840192909252606084015215156080830152519081900360a00190f35b34801561024c57600080fd5b50610255610972565b60408051918252519081900360200190f35b34801561027357600080fd5b50610288600160a060020a0360043516610978565b604080519115158252519081900360200190f35b3480156102a857600080fd5b506102b460043561098d565b60408051600160a060020a039092168252519081900360200190f35b3480156102dc57600080fd5b506102886109b5565b3480156102f157600080fd5b506102fd6004356109dc565b005b34801561030b57600080fd5b50610288600160a060020a0360043516602435610c48565b34801561032f57600080fd5b50610255610d44565b34801561034457600080fd5b506102fd600435610d4a565b34801561035c57600080fd5b50610255600160a060020a0360043516610d4f565b34801561037d57600080fd5b50604080516020600480358082013583810280860185019096528085526102fd95369593946024949385019291829185019084908082843750949750610de49650505050505050565b3480156103d257600080fd5b5061021360043561116b565b3480156103ea57600080fd5b506102fd600160a060020a036004351661119e565b34801561040b57600080fd5b50604080516020600480358082013583810280860185019096528085526102fd953695939460249493850192918291850190849080828437509497506112499650505050505050565b34801561046057600080fd5b5061046c6004356115c0565b6040805195865260208601949094528484019290925260608401526080830152519081900360a00190f35b3480156104a357600080fd5b506102fd600435600160a060020a03602435166115ef565b3480156104c757600080fd5b50610288600435611677565b3480156104df57600080fd5b506102b461169e565b3480156104f457600080fd5b506102556116ad565b34801561050957600080fd5b506102fd6116b3565b34801561051e57600080fd5b506102b46004356119c1565b34801561053657600080fd5b506102b46119dc565b34801561054b57600080fd5b50604080516020600480358082013583810280860185019096528085526102fd953695939460249493850192918291850190849080828437509497506119eb9650505050505050565b3480156105a057600080fd5b50604080516020600480358082013583810280860185019096528085526102fd953695939460249493850192918291850190849080828437509497506120339650505050505050565b3480156105f557600080fd5b50604080516020600480358082013583810280860185019096528085526102fd95369593946024949385019291829185019084908082843750506040805187358901803560208181028481018201909552818452989b9a998901989297509082019550935083925085019084908082843750506040805187358901803560208181028481018201909552818452989b9a9989019892975090820195509350839250850190849080828437509497506121fd9650505050505050565b3480156106bc57600080fd5b506102556124aa565b3480156106d157600080fd5b506102b46124b0565b6102fd600160a060020a03600435166024356124bf565b3480156106fd57600080fd5b506102556126db565b34801561071257600080fd5b506102fd600160a060020a03600435166126e1565b34801561073357600080fd5b50604080516020600480358082013583810280860185019096528085526102fd953695939460249493850192918291850190849080828437509497506128679650505050505050565b34801561078857600080fd5b50604080516020600480358082013583810280860185019096528085526102fd95369593946024949385019291829185019084908082843750506040805187358901803560208181028481018201909552818452989b9a998901989297509082019550935083925085019084908082843750949750612b6c9650505050505050565b6008805460019081019182905560065460008381526003602052604081209190920190558251839190811061083b57fe5b60209081029091018101516000838152600390925260409091206001908101919091558251839190811061086b57fe5b60209081029091018101516000838152600390925260409091206002908101919091558251839190811061089b57fe5b602090810290910181015160008381526003928390526040812090920155825183919081106108c657fe5b60209081029091010151825182907f203792de59a635b49a38a375598d4af1adbb5338d5aac279ec37611d1f0e1448908590600190811061090357fe5b9060200190602002015185600281518110151561091c57fe5b602090810290910181015160408051938452918301528051918290030190a35050565b60036020819052600091825260409091208054600182015460028301549383015460049093015491939092909160ff1685565b60095481565b60006020819052908152604090205460ff1681565b600d80548290811061099b57fe5b600091825260209091200154600160a060020a0316905081565b60095460065460009081526002602081905260409091206003908101549202040142115b90565b600b546000908190819081908190600160a060020a0316331415610c4057600654861115610a54576040805160e560020a62461bcd02815260206004820152601760248201527f4e6f206f766572206368616c6c656e67652074696d652e000000000000000000604482015290519081900360640190fd5b60008681526002602090815260408083208380526005019091529020805460019091015490955060ff16935083158015610a8e5750600085115b15610af95760008681526002602090815260408083208380526005019091528082206001908101805460ff19169091179055600b549051600160a060020a03909116916108fc881502918891818181858888f19350505050158015610af7573d6000803e3d6000fd5b505b600092505b600d54831015610c4057600d805484908110610b1657fe5b600091825260208083209190910154888352600282526040808420600160a060020a03909216808552600590920190925291206001810154905460ff9091169550909250905083158015610b6a5750600081115b15610c35576000868152600260209081526040808320600160a060020a03808716808652600590920184528285206001908101805460ff19169091179055600b5483517fa9059cbb00000000000000000000000000000000000000000000000000000000815291166004820152602481018690529151909363a9059cbb93604480850194919392918390030190829087803b158015610c0857600080fd5b505af1158015610c1c573d6000803e3d6000fd5b505050506040513d6020811015610c3257600080fd5b50505b600190920191610afe565b505050505050565b3360009081526020819052604081205460609060ff161515610cb4576040805160e560020a62461bcd02815260206004820152601660248201527f4173736574206164647265737320696e76616c69642e00000000000000000000604482015290519081900360640190fd5b6040805160038082526080820190925290602082016060803883395050815191925050600160a060020a0385169082906000908110610cef57fe5b602090810290910101528051839082906001908110610d0a57fe5b602090810290910101528051339082906002908110610d2557fe5b60209081029091010152610d388161080a565b600191505b5092915050565b600d5490565b600955565b600160a060020a03811660009081526020819052604081205460ff161515600114610dc4576040805160e560020a62461bcd02815260206004820152601360248201527f746f6b656e206e6f7420737570706f7274656400000000000000000000000000604482015290519081900360640190fd5b50600160a060020a0381166000908152600160205260409020545b919050565b600654600a54600b54606092600092610e0f92869260010191600160a060020a039081169116612c68565b1515610e65576040805160e560020a62461bcd02815260206004820152600a60248201527f57726f6e67207369672e00000000000000000000000000000000000000000000604482015290519081900360640190fd5b6040805160028082526060820183529091602083019080388339019050509150826001815181101515610e9457fe5b90602001906020020151826000815181101515610ead57fe5b60209081029091010152825183906006908110610ec657fe5b90602001906020020151826001815181101515610edf57fe5b60209081029091010152610ef2826131c0565b600654600082815260046020526040902060019182019055845191925084918110610f1957fe5b60209081029091018101516000838152600492839052604090206001015583518491908110610f4457fe5b602090810290910181015160008381526004909252604090912060020155825183906003908110610f7157fe5b60209081029091018101516000838152600490925260409091206003015582516001907f6768e9219651a40c194e7dadba7540b112aa9f5495ed9224d694a2ba71ef9742908590600c908110610fc357fe5b90602001906020020151856000815181101515610fdc57fe5b9060200190602002015186600d815181101515610ff557fe5b9060200190602002015187600e81518110151561100e57fe5b906020019060200201516060604051908101604052808a601081518110151561103357fe5b602090810290910181015182528b519101908b90601190811061105257fe5b602090810290910181015182528b519101908b90601290811061107157fe5b60209081029091010151905260408051606081019091528a5181908c90601390811061109957fe5b602090810290910181015182528c519101908c9060149081106110b857fe5b602090810290910181015182528c519101908c9060159081106110d757fe5b602090810290910181015190915260408051888152918201879052810185905260608082018590526080820190849080838360005b8381101561112457818101518382015260200161110c565b5050505090500182600360200280838360005b8381101561114f578181015183820152602001611137565b50505050905001965050505050505060405180910390a2505050565b60046020819052600091825260409091208054600182015460028301546003840154939094015491939092909160ff1685565b600a54600160a060020a031633141561124657600160a060020a03811660009081526020819052604090205460ff16151561124657600160a060020a0381166000818152602081905260408120805460ff19166001908117909155600d805491820181559091527fd7b6990105719101dabeb77144f2a3385c8033acd3af97e9423a695e81ad1eb501805473ffffffffffffffffffffffffffffffffffffffff191690911790555b50565b600a54600090600160a060020a03163314156115bc5781600781518110151561126e57fe5b602090810290910181015160008181526003808452604091829020825160a0810184528154815260018201549581019590955260028101549285019290925281015460608401526004015460ff161515608083015291506112d09083906133a5565b1515611326576040805160e560020a62461bcd02815260206004820152601260248201527f57726f6e67206465706f736974206c6f672e0000000000000000000000000000604482015290519081900360640190fd5b600654600a54600b5461134d928592600190910191600160a060020a039182169116612c68565b15156113a3576040805160e560020a62461bcd02815260206004820152600a60248201527f57726f6e67207369672e00000000000000000000000000000000000000000000604482015290519081900360640190fd5b6001600360008460078151811015156113b857fe5b60209081029190910181015182528101919091526040016000908120600401805460ff19169215159290921790915582517f6768e9219651a40c194e7dadba7540b112aa9f5495ed9224d694a2ba71ef9742908490600c90811061141857fe5b9060200190602002015184600081518110151561143157fe5b9060200190602002015185600d81518110151561144a57fe5b9060200190602002015186600e81518110151561146357fe5b9060200190602002015160606040519081016040528089601081518110151561148857fe5b602090810290910181015182528a519101908a9060119081106114a757fe5b602090810290910181015182528a519101908a9060129081106114c657fe5b6020908102909101015190526040805160608101909152895181908b9060139081106114ee57fe5b602090810290910181015182528b519101908b90601490811061150d57fe5b602090810290910181015182528b519101908b90601590811061152c57fe5b602090810290910181015190915260408051888152918201879052810185905260608082018590526080820190849080838360005b83811015611579578181015183820152602001611561565b5050505090500182600360200280838360005b838110156115a457818101518382015260200161158c565b50505050905001965050505050505060405180910390a25b5050565b600260208190526000918252604090912080546001820154928201546003830154600490930154919392909185565b600a54600160a060020a03163314156115bc57600082815260056020908152604091829020805473ffffffffffffffffffffffffffffffffffffffff1916600160a060020a03851690811790915582518581529182015281517f5cd25fff60aacb900916f5299a923ce4ef5b07400e4e8ef0ca922c211559d0d3929181900390910190a15050565b6006805460009081526002602090815260408083208584529093019052205460ff16919050565b600a54600160a060020a031681565b60075481565b6116bb6139f6565b600b54600090600160a060020a03163314156115bc576006546000908152600260208181526040808420815160c08101835281548152600182015481850152938101548483015260038101546060850152600481015460808501526007810180548351818602810186019094528084529495919460a08701949192909184015b828210156117db5760008481526020908190206040805160a0810182526005860290920180548352815180830190925291928301906001830160028282826020028201915b81548152600190910190602001808311611780575050509183525050600382015460ff80821615156020808501919091526101009092041615156040830152600490920154606090910152908252600192909201910161173b565b505050508152505091506000826060015111801561180457506009546005900482606001510142115b1515611880576040805160e560020a62461bcd02815260206004820152602760248201527f43616e27742066696e616c697a6520756e74696c206368616c6c656e6765207460448201527f696d652075702e00000000000000000000000000000000000000000000000000606482015290519081900360840190fd5b6080820151156118da576040805160e560020a62461bcd02815260206004820152601260248201527f616c72656164792066696e616c697a65642e0000000000000000000000000000604482015290519081900360640190fd5b5060005b8160a001515181101561196c5760a08201518051829081106118fc57fe5b6020908102909101015160400151600190151514611964576040805160e560020a62461bcd02815260206004820152601d60248201527f4368616c6c656e6765206861736e2774206265656e20636c6f7365642e000000604482015290519081900360640190fd5b6001016118de565b60068054600090815260026020908152604091829020426004909101559154815190815290517f77c643d25f7c215ad526c62f54de5b4860469185a9024199efc6a3696ee8cfb0929181900390910190a15050565b600560205260009081526040902054600160a060020a031681565b600b54600160a060020a031681565b600654600a54600b54606092600092839283928392611a1c92899260010191600160a060020a039081169116612c68565b1515611a72576040805160e560020a62461bcd02815260206004820152600a60248201527f57726f6e67207369672e00000000000000000000000000000000000000000000604482015290519081900360640190fd5b600754866004815181101515611a8457fe5b602090810290910101511115611b0a576040805160e560020a62461bcd02815260206004820152603260248201527f57697468647261772076616c7565206d6f7265207468616e20696e7374616e7460448201527f207769746864726177206d6178696d756d2e0000000000000000000000000000606482015290519081900360840190fd5b6040805160028082526060820183529091602083019080388339019050509450856001815181101515611b3957fe5b90602001906020020151856000815181101515611b5257fe5b60209081029091010152855186906006908110611b6b57fe5b90602001906020020151856001815181101515611b8457fe5b60209081029091010152611b97856131c0565b6000818152600460208190526040909120015490945060ff1615611c05576040805160e560020a62461bcd02815260206004820152601860248201527f576974686472617720616c72656164792066696e6973682e0000000000000000604482015290519081900360640190fd5b60065460008581526004602052604090206001918201905586518791908110611c2a57fe5b60209081029091018101516000868152600492839052604090206001015586518791908110611c5557fe5b602090810290910181015160008681526004909252604090912060020155855186906003908110611c8257fe5b6020908102909101810151600086815260049283905260409020600381019190915501805460ff1916600190811790915586518791908110611cc057fe5b60209081029091010151865190935086906004908110611cdc57fe5b60209081029091010151865190925086906003908110611cf857fe5b602090810290910101519050600160a060020a0381161515611d5057604051600160a060020a0384169083156108fc029084906000818181858888f19350505050158015611d4a573d6000803e3d6000fd5b50611e56565b600160a060020a03811660009081526020819052604090205460ff1615611e065780600160a060020a031663a9059cbb84846040518363ffffffff1660e060020a0281526004018083600160a060020a0316600160a060020a0316815260200182815260200192505050602060405180830381600087803b158015611dd457600080fd5b505af1158015611de8573d6000803e3d6000fd5b505050506040513d6020811015611dfe57600080fd5b50611e569050565b6040805160e560020a62461bcd02815260206004820152601660248201527f4173736574206164647265737320696e76616c69642e00000000000000000000604482015290519081900360640190fd5b60027f6768e9219651a40c194e7dadba7540b112aa9f5495ed9224d694a2ba71ef974287600c815181101515611e8857fe5b90602001906020020151886000815181101515611ea157fe5b9060200190602002015189600d815181101515611eba57fe5b906020019060200201518a600e815181101515611ed357fe5b906020019060200201516060604051908101604052808d6010815181101515611ef857fe5b602090810290910181015182528e519101908e906011908110611f1757fe5b602090810290910181015182528e519101908e906012908110611f3657fe5b60209081029091010151905260408051606081019091528d5181908f906013908110611f5e57fe5b602090810290910181015182528f519101908f906014908110611f7d57fe5b602090810290910181015182528f519101908f906015908110611f9c57fe5b602090810290910181015190915260408051888152918201879052810185905260608082018590526080820190849080838360005b83811015611fe9578181015183820152602001611fd1565b5050505090500182600360200280838360005b83811015612014578181015183820152602001611ffc565b50505050905001965050505050505060405180910390a2505050505050565b600080600083600281518110151561204757fe5b6020908102909101810151600160a060020a03811660009081529182905260409091205490935060ff1615156120c7576040805160e560020a62461bcd02815260206004820152601660248201527f4173736574206164647265737320696e76616c69642e00000000000000000000604482015290519081900360640190fd5b8360008151811015156120d657fe5b602090810290910101518451909250849060019081106120f257fe5b6020908102909101810151604080517f23b872dd000000000000000000000000000000000000000000000000000000008152600160a060020a038681166004830152306024830152604482018490529151929450908616926323b872dd926064808401938290030181600087803b15801561216c57600080fd5b505af1158015612180573d6000803e3d6000fd5b505050506040513d602081101561219657600080fd5b505115156121ee576040805160e560020a62461bcd02815260206004820152600f60248201527f417070726f7665206661696c65642e0000000000000000000000000000000000604482015290519081900360640190fd5b6121f78461080a565b50505050565b600b54600090600160a060020a03163314156121f757815183511461226c576040805160e560020a62461bcd02815260206004820152601360248201527f4172726179206c656e677468206572726f722e00000000000000000000000000604482015290519081900360640190fd5b60065460009081526002602052604090206004015415158061228e5750600654155b151561230a576040805160e560020a62461bcd02815260206004820152602481018290527f43616e206e6f7420617474616368206e657720737461676520756e74696c206360448201527f757272656e7420737461676520686173206265656e2066696e616c697a65642e606482015290519081900360840190fd5b60068054600101905583518490600090811061232257fe5b60209081029091018101516006546000908152600290925260409091205583518490600190811061234f57fe5b6020908102909101810151600654600090815260029283905260409020600101558451859190811061237d57fe5b60209081029091018101516006805460009081526002938490526040808220909401929092555481529081204260039091015590505b825181101561242b5781818151811015156123ca57fe5b90602001906020020151600190046002600060065481526020019081526020016000206005016000858481518110151561240057fe5b6020908102909101810151600160a060020a03168252810191909152604001600020556001016123b3565b7fea3f2b7078db2e6bbf7c7e2ab4a864450c60236f314da2f4340fc53f70f9297660065460010285600081518110151561246157fe5b9060200190602002015186600181518110151561247a57fe5b6020908102909101810151604080519485529184019290925282810191909152519081900360600190a150505050565b60085481565b600c54600160a060020a031681565b3415612530576000805260016020527fa6eef7e35abe7026729641147f7915573c7e97b47efa546f5f6e3230263bcb4954612500903463ffffffff61348016565b6000805260016020527fa6eef7e35abe7026729641147f7915573c7e97b47efa546f5f6e3230263bcb49556115bc565b600160a060020a03821660009081526020819052604090205460ff1615156001146125a5576040805160e560020a62461bcd02815260206004820152601360248201527f746f6b656e206e6f7420737570706f7274656400000000000000000000000000604482015290519081900360640190fd5b604080517f23b872dd000000000000000000000000000000000000000000000000000000008152336004820152306024820152604481018390529051600160a060020a038416916323b872dd9160648083019260209291908290030181600087803b15801561261357600080fd5b505af1158015612627573d6000803e3d6000fd5b505050506040513d602081101561263d57600080fd5b50511515612695576040805160e560020a62461bcd02815260206004820152600f60248201527f417070726f7665206661696c65642e0000000000000000000000000000000000604482015290519081900360640190fd5b600160a060020a0382166000908152600160205260409020546126be908263ffffffff61348016565b600160a060020a0383166000908152600160205260409020555050565b60065481565b600a546000908190600160a060020a031633141561286257600160a060020a03831660009081526020819052604090205460ff1615156001141561286257600160a060020a0383166000908152602081905260408120805460ff1916905591505b600d548210156128625782600160a060020a0316600d8381548110151561276557fe5b600091825260209091200154600160a060020a031614156128575750805b600d546000190181101561280657600d8054600183019081106127a257fe5b600091825260209091200154600d8054600160a060020a0390921691839081106127c857fe5b6000918252602090912001805473ffffffffffffffffffffffffffffffffffffffff1916600160a060020a0392909216919091179055600101612783565b600d8054600019810190811061281857fe5b6000918252602090912001805473ffffffffffffffffffffffffffffffffffffffff19169055600d805490612851906000198301613a2d565b50612862565b600190910190612742565b505050565b6040805160028082526060808301845292600092839283928392839290916020830190803883390190505095508660008151811015156128a357fe5b906020019060200201518660008151811015156128bc57fe5b602090810290910101528651879060019081106128d557fe5b906020019060200201518660018151811015156128ee57fe5b60209081029091010152612901866131c0565b6000818152600460208190526040909120015490955060ff161561296f576040805160e560020a62461bcd02815260206004820152601860248201527f576974686472617720616c72656164792066696e6973682e0000000000000000604482015290519081900360640190fd5b60065460008681526004602052604090205411156129d7576040805160e560020a62461bcd02815260206004820152601660248201527f4e6f206f766572206368616c6c656e67652074696d6500000000000000000000604482015290519081900360640190fd5b50505060008281526004602052604090206001810154600282015460039092015490925080600160a060020a0381161515612a4857604051600160a060020a0385169084156108fc029085906000818181858888f19350505050158015612a42573d6000803e3d6000fd5b50612afe565b600160a060020a03811660009081526020819052604090205460ff1615611e065780600160a060020a031663a9059cbb85856040518363ffffffff1660e060020a0281526004018083600160a060020a0316600160a060020a0316815260200182815260200192505050602060405180830381600087803b158015612acc57600080fd5b505af1158015612ae0573d6000803e3d6000fd5b505050506040513d6020811015612af657600080fd5b50612afe9050565b600085815260046020818152604092839020909101805460ff1916600117905581518581529081018490528151600160a060020a0387169288927f733a2fbbad52d09b23c64c7210b6598ee1a79fd3614c2052fd6eb9c5604741b0929081900390910190a350505050505050565b60606000612b9184600c815181101515612b8257fe5b90602001906020020151611677565b15612c0c576040805160e560020a62461bcd02815260206004820152602360248201527f526563656970742068617320616c7265616479206265656e206368616c6c656e60448201527f6765640000000000000000000000000000000000000000000000000000000000606482015290519081900360840190fd5b612c1f686368616c6c656e676583613493565b9050600060ff821611156121f7576121f784600c815181101515612c3f57fe5b9060200190602002015184600c815181101515612c5857fe5b9060200190602002015183613574565b604080516008808252610120820190925260009160609183918291906020820161010080388339019050509250876001815181101515612ca457fe5b90602001906020020151836000815181101515612cbd57fe5b60209081029091010152875188906002908110612cd657fe5b90602001906020020151836001815181101515612cef57fe5b60209081029091010152875188906003908110612d0857fe5b90602001906020020151836002815181101515612d2157fe5b60209081029091010152875188906004908110612d3a57fe5b90602001906020020151836003815181101515612d5357fe5b60209081029091010152875188906005908110612d6c57fe5b90602001906020020151836004815181101515612d8557fe5b60209081029091010152875188906006908110612d9e57fe5b90602001906020020151836005815181101515612db757fe5b60209081029091010152875188906007908110612dd057fe5b90602001906020020151836006815181101515612de957fe5b60209081029091010152875188906008908110612e0257fe5b90602001906020020151836007815181101515612e1b57fe5b60209081029091010152612e2e836131c0565b9150876000815181101515612e3f57fe5b602090810290910101518214612e5857600093506131b5565b612eac82896009815181101515612e6b57fe5b602090810290910101518a518b90600a908110612e8457fe5b906020019060200201518b600b815181101515612e9d57fe5b9060200190602002015161369b565b9050876001815181101515612ebd57fe5b60209081029091010151600160a060020a03161515612f0f57876002815181101515612ee557fe5b60209081029091010151600160a060020a03828116911614612f0a57600093506131b5565b612f43565b876001815181101515612f1e57fe5b60209081029091010151600160a060020a03828116911614612f4357600093506131b5565b612f8882896012815181101515612f5657fe5b602090810290910101518a518b906013908110612f6f57fe5b906020019060200201518b6014815181101515612e9d57fe5b9050600160a060020a0380821690871614612fa657600093506131b5565b60408051600880825261012082019092529060208201610100803883395050815191945088918591506000908110612fda57fe5b6020908102909101015287518890600c908110612ff357fe5b9060200190602002015183600181518110151561300c57fe5b6020908102909101015287518890600d90811061302557fe5b9060200190602002015183600281518110151561303e57fe5b6020908102909101015287518890600e90811061305757fe5b9060200190602002015183600381518110151561307057fe5b6020908102909101015287518890600090811061308957fe5b906020019060200201518360048151811015156130a257fe5b6020908102909101015287518890600f9081106130bb57fe5b906020019060200201518360058151811015156130d457fe5b602090810290910101528751889060109081106130ed57fe5b9060200190602002015183600681518110151561310657fe5b6020908102909101015287518890601190811061311f57fe5b9060200190602002015183600781518110151561313857fe5b6020908102909101015261314b836131c0565b91506131928289601581518110151561316057fe5b602090810290910101518a518b90601690811061317957fe5b906020019060200201518b6017815181101515612e9d57fe5b9050600160a060020a03808216908616146131b057600093506131b5565b600193505b505050949350505050565b600060606000808451111515613220576040805160e560020a62461bcd02815260206004820152601460248201527f6861736841727261792e6c656e677468203d2030000000000000000000000000604482015290519081900360640190fd5b61324184600081518110151561323257fe5b906020019060200201516137fe565b6040516020018082805190602001908083835b602083106132735780518252601f199092019160209182019101613254565b6001836020036101000a0380198251168184511680821785525050505050509050019150506040516020818303038152906040529150600190505b835181101561334157613337826132cc868481518110151561323257fe5b6040516020018082805190602001908083835b602083106132fe5780518252601f1990920191602091820191016132df565b6001836020036101000a0380198251168184511680821785525050505050509050019150506040516020818303038152906040526138fb565b91506001016132ae565b816040518082805190602001908083835b602083106133715780518252601f199092019160209182019101613352565b5181516020939093036101000a60001901801990911692169190911790526040519201829003909120979650505050505050565b6000806134058460008151811015156133ba57fe5b906020019060200201518560098151811015156133d357fe5b6020908102909101015186518790600a9081106133ec57fe5b9060200190602002015187600b815181101515612e9d57fe5b6020840151909150600160a060020a038083169116146134285760009150610d3d565b604083015184518590600490811061343c57fe5b60209081029091010151146134545760009150610d3d565b606083015184518590600390811061346857fe5b6020908102909101015114610d385760009150610d3d565b8181018281101561348d57fe5b92915050565b60008281526005602090815260408083205490517f99f79732000000000000000000000000000000000000000000000000000000008152600481018381528551602483015285518594600160a060020a03909416936399f7973293889392839260449092019185810191028083838b5b8381101561351b578181015183820152602001613503565b5050505090500192505050602060405180830381600087803b15801561354057600080fd5b505af1158015613554573d6000803e3d6000fd5b505050506040513d602081101561356a57600080fd5b5051949350505050565b6006546000908152600260208181526040808420815160a0810183523381528251808401845289815280850189905281850190815260019382018490526060820187905260ff8816608083015260079092018054808501808355918852949096208151600590950201938455905190936135f19284019190613a51565b50604082810151600383018054606086015115156101000261ff001993151560ff19928316179390931692909217905560809093015160049092019190915560068054600090815260026020908152838220898352909201825282902080549093166001179092558051338152918201869052805160ff851693507ffd656b2e5f48a8be9d88bbbb20c5ba9ac45ded8cc81e28436cbf708e0be9da949281900390910190a2505050565b604080518082018252601c8082527f19457468657265756d205369676e6564204d6573736167653a0a333200000000602080840191825293516000948593849386938c9301918291908083835b602083106137075780518252601f1990920191602091820191016136e8565b51815160209384036101000a600019018019909216911617905292019384525060408051808503815293820190819052835193945092839250908401908083835b602083106137675780518252601f199092019160209182019101613748565b51815160209384036101000a600019018019909216911617905260408051929094018290038220600080845283830180875282905260ff8f1684870152606084018e9052608084018d905294519098506001965060a080840196509194601f19820194509281900390910191865af11580156137e7573d6000803e3d6000fd5b5050604051601f1901519998505050505050505050565b60408051818152606080820183529182916000918291906020820161080080388339019050509250600091505b60208210156138f257506008810260020a8402613850601060f860020a830404613972565b835184906002850290811061386157fe5b9060200101907effffffffffffffffffffffffffffffffffffffffffffffffffffffffffffff1916908160001a9053506138a3601060f860020a830406613972565b83836002026001018151811015156138b757fe5b9060200101907effffffffffffffffffffffffffffffffffffffffffffffffffffffffffffff1916908160001a90535060019091019061382b565b50909392505050565b815181516040518183018082526060939290916020601f8086018290049301049060005b8381101561393b5760010160208102898101519083015261391f565b5060005b8281101561395d57600101602081028881015190870183015261393f565b50928301602001604052509095945050505050565b6000600a82101561398d575060f860020a6030820102610ddf565b60108210156139a6575060f860020a6057820102610ddf565b6040805160e560020a62461bcd02815260206004820152601160248201527f75696e74546f4173636969206661696c2e000000000000000000000000000000604482015290519081900360640190fd5b6040805160c0810182526000808252602082018190529181018290526060808201839052608082019290925260a081019190915290565b81548183558181111561286257600083815260209020612862918101908301613a91565b8260028101928215613a81579160200282015b82811115613a815782518255602090920191600190910190613a64565b50613a8d929150613a91565b5090565b6109d991905b80821115613a8d5760008155600101613a975600a165627a7a72305820b85428a1e0ed4b5e188fbe86cc3321efdbf1aafef28edab4dfd4d9165534c5110029",
  "source": "pragma solidity ^0.4.23;\n\nimport \"./Util.sol\";\nimport \"./EIP20/SafeMath.sol\";\n\ninterface Token {\n    function transfer(address _to, uint256 _value) external returns (bool success);\n    function transferFrom(address _from, address _to, uint256 _value) external returns (bool success);\n}\n\n/*\n  challenge : 0x6368616c6c656e676500000000000000000000000000000000\n  compensate: 0x636f6d70656e73617465000000000000000000000000000000\n */\ninterface BoosterModule {\n    function getName() external returns (bytes32 name);\n    function run(bytes32[] _args) external returns (bytes32 result);\n}\n\ncontract Booster {\n    using SafeMath for uint256;\n    mapping (address => bool) public assetAddresses;\n    mapping (address => uint256) insurances;\n    mapping (uint256 => Util.Stage) public stages;\n    mapping (bytes32 => Util.Log) public depositLogs;\n    mapping (bytes32 => Util.Log) public withdrawalLogs;\n    mapping (bytes32 => address) public modules;\n\n    uint256 public stageHeight;\n    uint256 public instantWithdrawMaximum;\n    uint256 public depositSequenceNumber;\n    uint256 public stagePeriod = 86400;\n    address public owner;\n    address public goblin;\n    address public managerAddress;\n    address[] public assetAddressesArray;\n\n    event ProposeDeposit (\n        bytes32 indexed _dsn,\n        bytes32 indexed _client,\n        bytes32 _value,\n        bytes32 _assetID\n    );\n\n    event VerifyReceipt (\n        uint256 indexed _type, // { 0: deposit, 1: proposeWithdrawal, 2: instantWithdrawal }\n        bytes32 _gsn,\n        bytes32 _lightTxHash,\n        bytes32 _fromBalance,\n        bytes32 _toBalance,\n        bytes32[3] _sigLightTx,\n        bytes32[3] _sigReceipt\n    );\n\n    event Withdraw (\n        bytes32 indexed _wsn,\n        bytes32 indexed _client,\n        bytes32 _value,\n        bytes32 _assetID\n    );\n\n    event Attach (\n        bytes32 _stageHeight,\n        bytes32 _receiptRootHash,\n        bytes32 _accountRootHash\n    );\n\n    event Finalize (\n        bytes32 _stageHeight\n    );\n\n    event Challenge (\n        uint256 indexed _challengedType, // { type: 1 - 4, 1: repeatedGSN 2: wrongBalance 3: skippedGSN 4: existProof }\n        bytes32 _client,\n        bytes32 _lightTxHash\n    );\n\n    event AttachBoosterModule(\n        bytes32 _moduleName,\n        address _moduleAddress\n    );\n\n    modifier onlyOwner () {\n        if (msg.sender == owner) _;\n    }\n\n    modifier onlyGoblin () {\n        if (msg.sender == goblin) _;\n    }\n\n    constructor (\n        address _boosterOwner,\n        address _goblin,\n        address[] _assetAddresses,\n        uint256 _instantWithdrawMaximum\n    ) public {\n        managerAddress = msg.sender;\n        owner = _boosterOwner;\n        goblin = _goblin;\n        instantWithdrawMaximum = _instantWithdrawMaximum;\n        stages[stageHeight].data = \"genisis stage\";\n\n        for (uint i = 0; i < _assetAddresses.length; i++) {\n            if (assetAddresses[_assetAddresses[i]] == false) {\n                assetAddresses[_assetAddresses[i]] = true;\n                assetAddressesArray.push(_assetAddresses[i]);\n            }\n        }\n    }\n\n    function setAssetAddress(address asAddress) public onlyOwner {\n        if (assetAddresses[asAddress] == false) {\n            assetAddresses[asAddress] = true;\n            assetAddressesArray.push(asAddress);\n        }\n    }\n\n    function unsetAssetAddress(address asAddress) public onlyOwner {\n        if (assetAddresses[asAddress] == true) {\n            assetAddresses[asAddress] = false;\n            // remove asset address from assetAddressesArray\n            for (uint i = 0; i < assetAddressesArray.length; i++) {\n                if (assetAddressesArray[i] == asAddress) {\n                    for (uint j = i; j < assetAddressesArray.length - 1; j++){\n                        assetAddressesArray[j] = assetAddressesArray[j + 1];\n                    }\n                    delete assetAddressesArray[assetAddressesArray.length - 1];\n                    assetAddressesArray.length--;\n                    break;\n                }\n            }\n        }\n    }\n\n    function getAssetAddressesLength() public view returns (uint256) {\n        return assetAddressesArray.length;\n    }\n\n    function proposeTokenDeposit (bytes32[] _parameter) public {\n        /*\n        _parameter[0] = client\n        _parameter[1] = value\n        _parameter[2] = assetID\n        */\n\n        address assetAddress = address(_parameter[2]);\n        require(assetAddresses[assetAddress] != false, \"Asset address invalid.\");\n        address client = address(_parameter[0]);\n        uint256 value = uint256(_parameter[1]);\n        require(Token(assetAddress).transferFrom(client, this, value), \"Approve failed.\");\n        writeDepositLog(_parameter);\n    }\n\n    function deposit (bytes32[] _parameter) public onlyOwner {\n        bytes32 dsn = bytes32(_parameter[7]);\n        require(Util.isLogValid(_parameter, depositLogs[dsn]), \"Wrong deposit log.\");\n        require(Util.isSigValid(_parameter, stageHeight + 1, owner, goblin), \"Wrong sig.\");\n        depositLogs[_parameter[7]].flag = true;\n\n        emit VerifyReceipt (\n            0,\n            _parameter[12],\n            _parameter[0],\n            _parameter[13],\n            _parameter[14],\n            [\n                _parameter[16],\n                _parameter[17],\n                _parameter[18]\n            ],\n            [\n                _parameter[19],\n                _parameter[20],\n                _parameter[21]\n            ]);\n    }\n\n    function proposeWithdrawal (bytes32[] _parameter) public {\n        require(Util.isSigValid(_parameter, stageHeight + 1, owner, goblin), \"Wrong sig.\");\n        /*\n        wsn = concat(from + nonce)\n        */\n        bytes32[] memory bytes32Array = new bytes32[](2);\n        bytes32Array[0] = _parameter[1]; // from\n        bytes32Array[1] = _parameter[6]; // nonce\n        bytes32 wsn = Util.hashArray(bytes32Array);\n\n        withdrawalLogs[wsn].stage = bytes32(stageHeight + 1);\n        withdrawalLogs[wsn].client = _parameter[1];\n        withdrawalLogs[wsn].value = _parameter[4];\n        withdrawalLogs[wsn].assetID = _parameter[3];\n\n        emit VerifyReceipt (\n            1,\n            _parameter[12],\n            _parameter[0],\n            _parameter[13],\n            _parameter[14],\n            [\n                _parameter[16],\n                _parameter[17],\n                _parameter[18]\n            ],\n            [\n                _parameter[19],\n                _parameter[20],\n                _parameter[21]\n            ]);\n    }\n\n    function withdraw (bytes32[] _parameter) public {\n        /*\n        _parameter[0] = from\n        _parameter[1] = nonce\n        */\n        // flag = false\n        bytes32[] memory bytes32Array = new bytes32[](2);\n        bytes32Array[0] = _parameter[0];\n        bytes32Array[1] = _parameter[1];\n        bytes32 wsn = Util.hashArray(bytes32Array);\n        require(withdrawalLogs[wsn].flag == false, \"Withdraw already finish.\");\n        // over challenge time\n        require (uint256(withdrawalLogs[wsn].stage) <= stageHeight, \"No over challenge time\");\n        address client = address(withdrawalLogs[wsn].client);\n        uint256 value = uint256(withdrawalLogs[wsn].value);\n        bytes32 assetID = bytes32(withdrawalLogs[wsn].assetID);\n        address assetAddress = address(assetID);\n        if (assetAddress == address(0)) {\n            client.transfer(value);\n        } else if (assetAddresses[assetAddress] != false) {\n            Token(assetAddress).transfer(client, value);\n        } else {\n            revert(\"Asset address invalid.\");\n        }\n        withdrawalLogs[wsn].flag = true;\n        emit Withdraw (wsn, bytes32(client), bytes32(value), assetID);\n    }\n\n    function instantWithdraw (bytes32[] _parameter) public {\n        require(Util.isSigValid(_parameter, stageHeight + 1, owner, goblin), \"Wrong sig.\");\n        // instantWithdraw condition\n        require (uint256(_parameter[4]) <= instantWithdrawMaximum, \"Withdraw value more than instant withdraw maximum.\");\n        /*\n        wsn = concat(from + nonce)\n        */\n        bytes32[] memory bytes32Array = new bytes32[](2);\n        bytes32Array[0] = _parameter[1]; // from\n        bytes32Array[1] = _parameter[6]; // nonce\n        bytes32 wsn = Util.hashArray(bytes32Array);\n\n        require(withdrawalLogs[wsn].flag == false, \"Withdraw already finish.\");\n        withdrawalLogs[wsn].stage = bytes32(stageHeight + 1);\n        withdrawalLogs[wsn].client = _parameter[1];\n        withdrawalLogs[wsn].value = _parameter[4];\n        withdrawalLogs[wsn].assetID = _parameter[3];\n        withdrawalLogs[wsn].flag = true;\n\n        address client = address(_parameter[1]);\n        uint256 value = uint256(_parameter[4]);\n        address assetAddress = address(_parameter[3]);\n        if (assetAddress == address(0)) {\n            client.transfer(value);\n        } else if (assetAddresses[assetAddress] != false) {\n            Token(assetAddress).transfer(client, value);\n        } else {\n            revert(\"Asset address invalid.\");\n        }\n        emit VerifyReceipt (\n            2,\n            _parameter[12],\n            _parameter[0],\n            _parameter[13],\n            _parameter[14],\n            [\n                _parameter[16],\n                _parameter[17],\n                _parameter[18]\n            ],\n            [\n                _parameter[19],\n                _parameter[20],\n                _parameter[21]\n            ]);\n    }\n\n    function () public payable {\n        /*\n        called delegateToLib to 'proposeDeposit(bytes32[])'\n        gas used : 127075\n        gad used : 106627\n        suggested gas : 150000\n        */\n        bytes32[] memory bytes32Array = new bytes32[](3);\n        bytes32Array[0] = bytes32(msg.sender);\n        bytes32Array[1] = bytes32(msg.value);\n        bytes32Array[2] = bytes32(0);\n        writeDepositLog(bytes32Array);\n    }\n\n    function tokenFallback(address _from, uint _value) public returns (bool success) {\n        if(assetAddresses[msg.sender] == false) {\n            revert(\"Asset address invalid.\");\n        } else {\n            bytes32[] memory bytes32Array = new bytes32[](3);\n            bytes32Array[0] = bytes32(_from);\n            bytes32Array[1] = bytes32(_value);\n            bytes32Array[2] = bytes32(msg.sender);\n            writeDepositLog(bytes32Array);\n            return true;\n        }\n    }\n\n    function writeDepositLog (bytes32[] _parameter) private {\n        /*\n        _parameter[0] = client\n        _parameter[1] = value\n        _parameter[2] = assetID\n        */\n\n        depositSequenceNumber++;\n        bytes32 dsn = bytes32(depositSequenceNumber);\n        depositLogs[dsn].stage = bytes32(stageHeight + 1);\n        depositLogs[dsn].client = _parameter[0];\n        depositLogs[dsn].value = _parameter[1];\n        depositLogs[dsn].assetID = _parameter[2];\n        emit ProposeDeposit (dsn, _parameter[0], _parameter[1], _parameter[2]);\n    }\n\n    function attach (bytes32[] _parameter, bytes32[] _assetAddress, bytes32[] _feeValue) public onlyGoblin {\n        require(_assetAddress.length == _feeValue.length, \"Array length error.\");\n        /*\n        _parameter[0] = _receiptRootHash\n        _parameter[1] = _accountRootHash\n        _parameter[2] = _data\n        */\n        require(stages[stageHeight].finalizeTimeStamp != 0 || stageHeight == 0, \"Can not attach new stage until current stage has been finalized.\");\n        stageHeight++;\n        stages[stageHeight].receiptRootHash = _parameter[0];\n        stages[stageHeight].accountRootHash = _parameter[1];\n        stages[stageHeight].data = _parameter[2];\n        stages[stageHeight].attachTimestamp = block.timestamp;\n        for (uint i = 0; i < _assetAddress.length; i++) {\n            stages[stageHeight].fee[address(_assetAddress[i])].value = uint256(_feeValue[i]);\n        }\n        emit Attach (bytes32(stageHeight), _parameter[0], _parameter[1]);\n    }\n\n    function getFeeWithStageHeight (uint256 _stageHeight) public onlyGoblin {\n        require(_stageHeight <= stageHeight, \"No over challenge time.\");\n        //ETH fee\n        uint256 ethFeeValue = stages[_stageHeight].fee[address(0)].value;\n        bool isFeeWithdrawed = stages[_stageHeight].fee[address(0)].withdrawed;\n        if (isFeeWithdrawed == false && ethFeeValue > 0) {\n            stages[_stageHeight].fee[address(0)].withdrawed = true;\n            goblin.transfer(ethFeeValue);\n        }\n        // Token fee\n        for (uint i = 0; i < assetAddressesArray.length; i++) {\n            address assetAddress = assetAddressesArray[i];\n            isFeeWithdrawed = stages[_stageHeight].fee[assetAddress].withdrawed;\n            uint256 tokenFeeValue = stages[_stageHeight].fee[assetAddress].value;\n            if (isFeeWithdrawed == false && tokenFeeValue > 0) {\n                stages[_stageHeight].fee[assetAddress].withdrawed = true;\n                Token(assetAddress).transfer(goblin, tokenFeeValue);\n            }\n        }\n    }\n\n    function challenge(bytes32[] _receipt1, bytes32[] _receipt2) public {\n        // check if receipt1 already challenged\n        require(!checkStateChallenge(_receipt1[12]), \"Receipt has already been challenged\");\n\n        // todo: merge 2 receipt and slice to one array\n        bytes32[] memory challengeData;\n        uint8 result = uint8(callModule(0x6368616c6c656e6765, challengeData));\n        if(result > 0) {\n            challengeSuccess(_receipt1[12], _receipt2[12], result);\n        }\n    }\n\n    function challengeSuccess(bytes32 _gsn1, bytes32 _gsn2, uint8 _challengeLevel) private {\n        stages[stageHeight].challengedInfos.push(\n            Util.ChallengedInfo(bytes32(msg.sender), [_gsn1, _gsn2], true, false, _challengeLevel)\n        );\n        stages[stageHeight].challengedGsn[_gsn1] = true;\n        emit Challenge (_challengeLevel, bytes32(msg.sender), _gsn1);       \n    }\n\n    function checkStateChallenge(bytes32 gsn) public view returns(bool) {\n        return stages[stageHeight].challengedGsn[gsn];\n    }\n\n    // deprecated function (only for QA)\n    function setStagePeriod (uint256 period) public {\n        stagePeriod = period;\n    }\n\n    function checkStageTimeout () public view returns (bool) {\n        return block.timestamp > stages[stageHeight].attachTimestamp + (stagePeriod * 3/2);\n    }\n\n    function finalizeStage () public onlyGoblin {\n        // challenge time = 0.2 * stagePeriod Time.\n        Util.Stage memory currentStage = stages[stageHeight];\n        require(\n            currentStage.attachTimestamp > 0 &&\n            block.timestamp > currentStage.attachTimestamp + (stagePeriod * 1/5),\n            \"Can't finalize until challenge time up.\"\n        );\n        require(currentStage.finalizeTimeStamp == 0, \"already finalized.\");\n        for (uint i = 0; i < currentStage.challengedInfos.length; i++) {\n            require(currentStage.challengedInfos[i].challengedState == true, \"Challenge hasn't been closed.\");\n        }\n        stages[stageHeight].finalizeTimeStamp = block.timestamp;\n        emit Finalize (bytes32(stageHeight));\n    }\n\n    function getInsuranceBalance(address tokenAddress) public view returns (uint256) {\n        // what if eth?\n        require(assetAddresses[tokenAddress] == true, \"token not supported\");\n        return insurances[tokenAddress];\n    }\n \n    function putInsurance(address tokenAddress, uint256 amount) public payable {\n        if (msg.value != 0) {\n            // received Eth\n            insurances[address(0)] = insurances[address(0)].add(msg.value);\n        } else {\n            // received erc20 and erc223\n            require(assetAddresses[tokenAddress] == true, \"token not supported\");\n            require(Token(tokenAddress).transferFrom(msg.sender, this, amount), \"Approve failed.\");\n            insurances[tokenAddress] = insurances[tokenAddress].add(amount);\n        }\n    }\n\n    function attachBoosterModule(bytes32 moduleName, address moduleAddress) public onlyOwner {\n        modules[moduleName] = moduleAddress;\n        emit AttachBoosterModule(moduleName, moduleAddress);\n    }\n\n    function callModule(bytes32 moduleName, bytes32[] params) internal returns(bytes32) {\n        bytes32 result = BoosterModule(modules[moduleName]).run(params);\n        return result;\n    }\n}",
  "sourcePath": "/Users/ming.hsu/Desktop/TideiSun/IFC/contracts/contracts/Booster.sol",
  "compiler": {
    "name": "solc",
    "version": "0.4.24+commit.e67f0147.Emscripten.clang"
  },
  "schemaVersion": "2.0.1",
  "updatedAt": "2018-11-15T07:14:00.623Z"
}