{
  "contractName": "Booster",
  "abi": [
    {
      "constant": true,
      "inputs": [
        {
          "name": "",
          "type": "bytes32"
        }
      ],
      "name": "depositLogs",
      "outputs": [
        {
          "name": "stage",
          "type": "bytes32"
        },
        {
          "name": "client",
          "type": "bytes32"
        },
        {
          "name": "value",
          "type": "bytes32"
        },
        {
          "name": "assetID",
          "type": "bytes32"
        },
        {
          "name": "flag",
          "type": "bool"
        }
      ],
      "payable": false,
      "stateMutability": "view",
      "type": "function"
    },
    {
      "constant": true,
      "inputs": [
        {
          "name": "",
          "type": "address"
        }
      ],
      "name": "assetAddresses",
      "outputs": [
        {
          "name": "",
          "type": "bool"
        }
      ],
      "payable": false,
      "stateMutability": "view",
      "type": "function"
    },
    {
      "constant": true,
      "inputs": [
        {
          "name": "",
          "type": "uint256"
        }
      ],
      "name": "assetAddressesArray",
      "outputs": [
        {
          "name": "",
          "type": "address"
        }
      ],
      "payable": false,
      "stateMutability": "view",
      "type": "function"
    },
    {
      "constant": true,
      "inputs": [],
      "name": "defendLibAddress",
      "outputs": [
        {
          "name": "",
          "type": "address"
        }
      ],
      "payable": false,
      "stateMutability": "view",
      "type": "function"
    },
    {
      "constant": true,
      "inputs": [],
      "name": "challengedLibAddress",
      "outputs": [
        {
          "name": "",
          "type": "address"
        }
      ],
      "payable": false,
      "stateMutability": "view",
      "type": "function"
    },
    {
      "constant": true,
      "inputs": [
        {
          "name": "",
          "type": "bytes32"
        }
      ],
      "name": "withdrawalLogs",
      "outputs": [
        {
          "name": "stage",
          "type": "bytes32"
        },
        {
          "name": "client",
          "type": "bytes32"
        },
        {
          "name": "value",
          "type": "bytes32"
        },
        {
          "name": "assetID",
          "type": "bytes32"
        },
        {
          "name": "flag",
          "type": "bool"
        }
      ],
      "payable": false,
      "stateMutability": "view",
      "type": "function"
    },
    {
      "constant": true,
      "inputs": [
        {
          "name": "",
          "type": "uint256"
        }
      ],
      "name": "stages",
      "outputs": [
        {
          "name": "receiptRootHash",
          "type": "bytes32"
        },
        {
          "name": "accountRootHash",
          "type": "bytes32"
        },
        {
          "name": "data",
          "type": "bytes32"
        }
      ],
      "payable": false,
      "stateMutability": "view",
      "type": "function"
    },
    {
      "constant": true,
      "inputs": [],
      "name": "owner",
      "outputs": [
        {
          "name": "",
          "type": "address"
        }
      ],
      "payable": false,
      "stateMutability": "view",
      "type": "function"
    },
    {
      "constant": true,
      "inputs": [],
      "name": "instantWithdrawMaximum",
      "outputs": [
        {
          "name": "",
          "type": "uint256"
        }
      ],
      "payable": false,
      "stateMutability": "view",
      "type": "function"
    },
    {
      "constant": true,
      "inputs": [],
      "name": "utilAddress",
      "outputs": [
        {
          "name": "",
          "type": "address"
        }
      ],
      "payable": false,
      "stateMutability": "view",
      "type": "function"
    },
    {
      "constant": true,
      "inputs": [],
      "name": "depositSequenceNumber",
      "outputs": [
        {
          "name": "",
          "type": "uint256"
        }
      ],
      "payable": false,
      "stateMutability": "view",
      "type": "function"
    },
    {
      "constant": true,
      "inputs": [],
      "name": "managerAddress",
      "outputs": [
        {
          "name": "",
          "type": "address"
        }
      ],
      "payable": false,
      "stateMutability": "view",
      "type": "function"
    },
    {
      "constant": true,
      "inputs": [],
      "name": "stageHeight",
      "outputs": [
        {
          "name": "",
          "type": "uint256"
        }
      ],
      "payable": false,
      "stateMutability": "view",
      "type": "function"
    },
    {
      "constant": true,
      "inputs": [],
      "name": "cryptoFlowLibAddress",
      "outputs": [
        {
          "name": "",
          "type": "address"
        }
      ],
      "payable": false,
      "stateMutability": "view",
      "type": "function"
    },
    {
      "inputs": [
        {
          "name": "_boosterOwner",
          "type": "address"
        },
        {
          "name": "_utilAddress",
          "type": "address"
        },
        {
          "name": "_cryptoFlowLibAddress",
          "type": "address"
        },
        {
          "name": "_challengedLibAddress",
          "type": "address"
        },
        {
          "name": "_defendLibAddress",
          "type": "address"
        },
        {
          "name": "_assetAddresses",
          "type": "address[]"
        },
        {
          "name": "_instantWithdrawMaximum",
          "type": "uint256"
        }
      ],
      "payable": false,
      "stateMutability": "nonpayable",
      "type": "constructor"
    },
    {
      "payable": true,
      "stateMutability": "payable",
      "type": "fallback"
    },
    {
      "anonymous": false,
      "inputs": [
        {
          "indexed": true,
          "name": "_dsn",
          "type": "bytes32"
        },
        {
          "indexed": true,
          "name": "_client",
          "type": "bytes32"
        },
        {
          "indexed": false,
          "name": "_value",
          "type": "bytes32"
        },
        {
          "indexed": false,
          "name": "_assetID",
          "type": "bytes32"
        }
      ],
      "name": "ProposeDeposit",
      "type": "event"
    },
    {
      "anonymous": false,
      "inputs": [
        {
          "indexed": true,
          "name": "_type",
          "type": "uint256"
        },
        {
          "indexed": false,
          "name": "_gsn",
          "type": "bytes32"
        },
        {
          "indexed": false,
          "name": "_lightTxHash",
          "type": "bytes32"
        },
        {
          "indexed": false,
          "name": "_fromBalance",
          "type": "bytes32"
        },
        {
          "indexed": false,
          "name": "_toBalance",
          "type": "bytes32"
        },
        {
          "indexed": false,
          "name": "_sigLightTx",
          "type": "bytes32[3]"
        },
        {
          "indexed": false,
          "name": "_sigReceipt",
          "type": "bytes32[3]"
        }
      ],
      "name": "VerifyReceipt",
      "type": "event"
    },
    {
      "anonymous": false,
      "inputs": [
        {
          "indexed": true,
          "name": "_wsn",
          "type": "bytes32"
        },
        {
          "indexed": true,
          "name": "_client",
          "type": "bytes32"
        },
        {
          "indexed": false,
          "name": "_value",
          "type": "bytes32"
        },
        {
          "indexed": false,
          "name": "_assetID",
          "type": "bytes32"
        }
      ],
      "name": "Withdraw",
      "type": "event"
    },
    {
      "anonymous": false,
      "inputs": [
        {
          "indexed": false,
          "name": "_stageHeight",
          "type": "bytes32"
        },
        {
          "indexed": false,
          "name": "_receiptRootHash",
          "type": "bytes32"
        },
        {
          "indexed": false,
          "name": "_accountRootHash",
          "type": "bytes32"
        }
      ],
      "name": "Attach",
      "type": "event"
    },
    {
      "anonymous": false,
      "inputs": [
        {
          "indexed": true,
          "name": "_challengedType",
          "type": "uint256"
        },
        {
          "indexed": false,
          "name": "_client",
          "type": "bytes32"
        },
        {
          "indexed": false,
          "name": "_lightTxHash",
          "type": "bytes32"
        }
      ],
      "name": "Challenge",
      "type": "event"
    },
    {
      "anonymous": false,
      "inputs": [
        {
          "indexed": false,
          "name": "_lightTxHash",
          "type": "bytes32"
        },
        {
          "indexed": false,
          "name": "_challengeState",
          "type": "bool"
        }
      ],
      "name": "Defend",
      "type": "event"
    },
    {
      "constant": false,
      "inputs": [
        {
          "name": "_signature",
          "type": "bytes4"
        },
        {
          "name": "_parameter",
          "type": "bytes32[]"
        }
      ],
      "name": "delegateToCryptoFlowLib",
      "outputs": [],
      "payable": true,
      "stateMutability": "payable",
      "type": "function"
    },
    {
      "constant": false,
      "inputs": [
        {
          "name": "_signature",
          "type": "bytes4"
        },
        {
          "name": "_parameter",
          "type": "bytes32[]"
        }
      ],
      "name": "delegateToChallengedLib",
      "outputs": [],
      "payable": false,
      "stateMutability": "nonpayable",
      "type": "function"
    },
    {
      "constant": false,
      "inputs": [
        {
          "name": "_signature",
          "type": "bytes4"
        },
        {
          "name": "_parameter",
          "type": "bytes32[]"
        }
      ],
      "name": "delegateToDefendLib",
      "outputs": [],
      "payable": false,
      "stateMutability": "nonpayable",
      "type": "function"
    },
    {
      "constant": false,
      "inputs": [
        {
          "name": "asAddress",
          "type": "address"
        }
      ],
      "name": "setAssetAddress",
      "outputs": [],
      "payable": false,
      "stateMutability": "nonpayable",
      "type": "function"
    },
    {
      "constant": true,
      "inputs": [],
      "name": "getAssetAddressesLength",
      "outputs": [
        {
          "name": "",
          "type": "uint256"
        }
      ],
      "payable": false,
      "stateMutability": "view",
      "type": "function"
    },
    {
      "constant": false,
      "inputs": [
        {
          "name": "_from",
          "type": "address"
        },
        {
          "name": "_value",
          "type": "uint256"
        }
      ],
      "name": "tokenFallback",
      "outputs": [
        {
          "name": "success",
          "type": "bool"
        }
      ],
      "payable": false,
      "stateMutability": "nonpayable",
      "type": "function"
    },
    {
      "constant": true,
      "inputs": [
        {
          "name": "_parameter",
          "type": "bytes32[]"
        }
      ],
      "name": "getChallengedHash",
      "outputs": [
        {
          "name": "",
          "type": "bytes32"
        }
      ],
      "payable": false,
      "stateMutability": "view",
      "type": "function"
    },
    {
      "constant": true,
      "inputs": [
        {
          "name": "_parameter",
          "type": "bytes32[]"
        }
      ],
      "name": "getChallengedRepeatedGSNListInfo",
      "outputs": [
        {
          "name": "",
          "type": "address"
        },
        {
          "name": "",
          "type": "bytes32"
        },
        {
          "name": "",
          "type": "bytes32"
        },
        {
          "name": "",
          "type": "bool"
        },
        {
          "name": "",
          "type": "bool"
        }
      ],
      "payable": false,
      "stateMutability": "view",
      "type": "function"
    },
    {
      "constant": true,
      "inputs": [
        {
          "name": "_parameter",
          "type": "bytes32[]"
        }
      ],
      "name": "getChallengedWrongBalanceListInfo",
      "outputs": [
        {
          "name": "",
          "type": "address"
        },
        {
          "name": "",
          "type": "bytes32"
        },
        {
          "name": "",
          "type": "bytes32"
        },
        {
          "name": "",
          "type": "bool"
        },
        {
          "name": "",
          "type": "bool"
        }
      ],
      "payable": false,
      "stateMutability": "view",
      "type": "function"
    },
    {
      "constant": true,
      "inputs": [
        {
          "name": "_parameter",
          "type": "bytes32[]"
        }
      ],
      "name": "getChallengedSkippedGSNListInfo",
      "outputs": [
        {
          "name": "",
          "type": "address"
        },
        {
          "name": "",
          "type": "bytes32"
        },
        {
          "name": "",
          "type": "bytes32"
        },
        {
          "name": "",
          "type": "bool"
        },
        {
          "name": "",
          "type": "bool"
        }
      ],
      "payable": false,
      "stateMutability": "view",
      "type": "function"
    },
    {
      "constant": true,
      "inputs": [
        {
          "name": "_parameter",
          "type": "bytes32[]"
        }
      ],
      "name": "getChallengedExistedProofListInfo",
      "outputs": [
        {
          "name": "",
          "type": "address"
        },
        {
          "name": "",
          "type": "bytes32"
        },
        {
          "name": "",
          "type": "bytes32"
        },
        {
          "name": "",
          "type": "bool"
        },
        {
          "name": "",
          "type": "bool"
        }
      ],
      "payable": false,
      "stateMutability": "view",
      "type": "function"
    }
  ],
  "bytecode": "0x608060405234801561001057600080fd5b506040516116823803806116828339810160409081528151602080840151838501516060860151608087015160a088015160c08901516009805433600160a060020a031991821617909155600780548216600160a060020a03808c1691909117909155600880548316828a16179055600a80548316828916179055600b80548316828816179055600c80549092169085161790556005819055600454600090815260019097529786207f67656e697369732073746167650000000000000000000000000000000000000060029190910155959793969295919490939190910191905b82518110156101d257600080848381518110151561010c57fe5b6020908102909101810151600160a060020a031682528101919091526040016000205460ff1615156101ca576001600080858481518110151561014b57fe5b602090810291909101810151600160a060020a03168252810191909152604001600020805460ff19169115159190911790558251600d9084908390811061018e57fe5b6020908102919091018101518254600181018455600093845291909220018054600160a060020a031916600160a060020a039092169190911790555b6001016100f2565b5050505050505050611499806101e96000396000f30060806040526004361061012d5763ffffffff60e060020a60003504166277d61d81146101ad578062f817d61461021b578063098bbb6214610260578063130ee4ad1461029557806320b877e8146102c95780632e89a058146102de578063361992ca1461036c57806337674505146103815780633b66d02b146103e85780633f8abf741461040c5780636cdcf15014610421578063770e09fd146104395780637b2cf9a31461045a578063845ddcb2146104d357806388890c81146105095780638da5cb5b1461055e57806390c8a3a1146105735780639604ad4614610588578063c20f17a71461059d578063cc6e7a14146105f2578063cf73a1bc14610607578063d5dd9ddb1461061c578063f418eae414610695578063f5ab6b25146106aa578063f950c6a6146106bf575b60408051600380825260808201909252606091602082018380388339505081519192503391839150600090811061016057fe5b60209081029091010152805134908290600190811061017b57fe5b6020908102909101015280516000908290600290811061019757fe5b602090810290910101526101aa81610714565b50005b6040805160206004602480358281013584810280870186019097528086526102199684357bffffffffffffffffffffffffffffffffffffffffffffffffffffffff1916963696604495919490910192918291850190849080828437509497506108439650505050505050565b005b34801561022757600080fd5b506102336004356108e5565b60408051958652602086019490945284840192909252606084015215156080830152519081900360a00190f35b34801561026c57600080fd5b50610281600160a060020a0360043516610917565b604080519115158252519081900360200190f35b3480156102a157600080fd5b506102ad60043561092c565b60408051600160a060020a039092168252519081900360200190f35b3480156102d557600080fd5b506102ad610954565b3480156102ea57600080fd5b5060408051602060048035808201358381028086018501909652808552610333953695939460249493850192918291850190849080828437509497506109639650505050505050565b60408051600160a060020a0390961686526020860194909452848401929092521515606084015215156080830152519081900360a00190f35b34801561037857600080fd5b506102ad610b7b565b34801561038d57600080fd5b50604080516020600480358082013583810280860185019096528085526103d695369593946024949385019291829185019084908082843750949750610b8a9650505050505050565b60408051918252519081900360200190f35b3480156103f457600080fd5b50610281600160a060020a0360043516602435610bf3565b34801561041857600080fd5b506103d6610ca2565b34801561042d57600080fd5b50610233600435610ca8565b34801561044557600080fd5b50610219600160a060020a0360043516610cdb565b34801561046657600080fd5b506040805160206004602480358281013584810280870186019097528086526102199684357bffffffffffffffffffffffffffffffffffffffffffffffffffffffff191696369660449591949091019291829185019084908082843750949750610d739650505050505050565b3480156104df57600080fd5b506104eb600435610de9565b60408051938452602084019290925282820152519081900360600190f35b34801561051557600080fd5b506040805160206004803580820135838102808601850190965280855261033395369593946024949385019291829185019084908082843750949750610e099650505050505050565b34801561056a57600080fd5b506102ad610fe9565b34801561057f57600080fd5b506103d6610ff8565b34801561059457600080fd5b506102ad610ffe565b3480156105a957600080fd5b50604080516020600480358082013583810280860185019096528085526103339536959394602494938501929182918501908490808284375094975061100d9650505050505050565b3480156105fe57600080fd5b506103d66111ed565b34801561061357600080fd5b506102ad6111f3565b34801561062857600080fd5b506040805160206004602480358281013584810280870186019097528086526102199684357bffffffffffffffffffffffffffffffffffffffffffffffffffffffff1916963696604495919490910192918291850190849080828437509497506112029650505050505050565b3480156106a157600080fd5b506103d6611278565b3480156106b657600080fd5b506102ad61127e565b3480156106cb57600080fd5b50604080516020600480358082013583810280860185019096528085526103339536959394602494938501929182918501908490808284375094975061128d9650505050505050565b600654600454600082815260026020526040812060019092019091558251839190811061073d57fe5b60209081029091018101516000838152600290925260409091206001908101919091558251839190811061076d57fe5b60209081029091018101516000838152600292839052604090208201558251839190811061079757fe5b6020908102909101810151600083815260029092526040822060030155600680546001019055825183919081106107ca57fe5b60209081029091010151825182907f203792de59a635b49a38a375598d4af1adbb5338d5aac279ec37611d1f0e1448908590600190811061080757fe5b9060200190602002015185600281518110151561082057fe5b602090810290910181015160408051938452918301528051918290030190a35050565b600a60009054906101000a9004600160a060020a0316600160a060020a03168260e060020a900460208351846040518463ffffffff1660e060020a02815260040180848152602001838152602001828051906020019060200280838360005b838110156108ba5781810151838201526020016108a2565b505050509050019350505050600060405180830381865af49250505015156108e157600080fd5b5050565b600260208190526000918252604090912080546001820154928201546003830154600490930154919392909160ff1685565b60006020819052908152604090205460ff1681565b600d80548290811061093a57fe5b600091825260209091200154600160a060020a0316905081565b600c54600160a060020a031681565b60008060008060006001600087600081518110151561097e57fe5b9060200190602002015160019004815260200190815260200160002060060160008760018151811015156109ae57fe5b602090810290910181015182528101919091526040016000908120548751600160a060020a03909116916001918990829081106109e757fe5b906020019060200201516001900481526020019081526020016000206006016000886001815181101515610a1757fe5b602090810290910181015182528101919091526040016000908120600101015460016000896000815181101515610a4a57fe5b906020019060200201516001900481526020019081526020016000206006016000896001815181101515610a7a57fe5b6020908102909101810151825281019190915260400160002060019081010154600160008a6000815181101515610aad57fe5b9060200190602002015160019004815260200190815260200160002060060160008a6001815181101515610add57fe5b602090810290910181015182528101919091526040016000908120600301548a5160ff909116916001918c9082908110610b1357fe5b9060200190602002015160019004815260200190815260200160002060060160008b6001815181101515610b4357fe5b602090810291909101810151825281019190915260400160002060030154939a929950909750955061010090910460ff169350915050565b600b54600160a060020a031681565b600060016000836000815181101515610b9f57fe5b90602001906020020151600190048152602001908152602001600020600701826001815181101515610bcd57fe5b6020908102909101015181548110610be157fe5b90600052602060002001549050919050565b3360009081526020819052604081205460609060ff161515610c1457600080fd5b6040805160038082526080820190925290602082016060803883395050815191925050600160a060020a0385169082906000908110610c4f57fe5b602090810290910101528051839082906001908110610c6a57fe5b602090810290910101528051339082906002908110610c8557fe5b60209081029091010152610c9881610714565b5060019392505050565b600d5490565b60036020819052600091825260409091208054600182015460028301549383015460049093015491939092909160ff1685565b600160a060020a03811660009081526020819052604090205460ff161515610d7057600160a060020a0381166000818152602081905260408120805460ff19166001908117909155600d805491820181559091527fd7b6990105719101dabeb77144f2a3385c8033acd3af97e9423a695e81ad1eb501805473ffffffffffffffffffffffffffffffffffffffff191690911790555b50565b600c60009054906101000a9004600160a060020a0316600160a060020a03168260e060020a900460208351846040518463ffffffff1660e060020a0281526004018084815260200183815260200182805190602001906020028083836000838110156108ba5781810151838201526020016108a2565b600160208190526000918252604090912080549181015460029091015483565b600080600080600060016000876000815181101515610e2457fe5b906020019060200201516001900481526020019081526020016000206004016000876001815181101515610e5457fe5b602090810290910181015182528101919091526040016000908120548751600160a060020a0390911691600191899082908110610e8d57fe5b906020019060200201516001900481526020019081526020016000206004016000886001815181101515610ebd57fe5b602090810290910181015182528101919091526040016000908120600101015460016000896000815181101515610ef057fe5b906020019060200201516001900481526020019081526020016000206004016000896001815181101515610f2057fe5b6020908102909101810151825281019190915260400160002060019081010154600160008a6000815181101515610f5357fe5b9060200190602002015160019004815260200190815260200160002060040160008a6001815181101515610f8357fe5b602090810290910181015182528101919091526040016000908120600301548a5160ff909116916001918c9082908110610fb957fe5b9060200190602002015160019004815260200190815260200160002060040160008b6001815181101515610b4357fe5b600754600160a060020a031681565b60055481565b600854600160a060020a031681565b60008060008060006001600087600081518110151561102857fe5b90602001906020020151600190048152602001908152602001600020600501600087600181518110151561105857fe5b602090810290910181015182528101919091526040016000908120548751600160a060020a039091169160019189908290811061109157fe5b9060200190602002015160019004815260200190815260200160002060050160008860018151811015156110c157fe5b6020908102909101810151825281019190915260400160009081206001010154600160008960008151811015156110f457fe5b90602001906020020151600190048152602001908152602001600020600501600089600181518110151561112457fe5b6020908102909101810151825281019190915260400160002060019081010154600160008a600081518110151561115757fe5b9060200190602002015160019004815260200190815260200160002060050160008a600181518110151561118757fe5b602090810290910181015182528101919091526040016000908120600301548a5160ff909116916001918c90829081106111bd57fe5b9060200190602002015160019004815260200190815260200160002060050160008b6001815181101515610b4357fe5b60065481565b600954600160a060020a031681565b600b60009054906101000a9004600160a060020a0316600160a060020a03168260e060020a900460208351846040518463ffffffff1660e060020a0281526004018084815260200183815260200182805190602001906020028083836000838110156108ba5781810151838201526020016108a2565b60045481565b600a54600160a060020a031681565b6000806000806000600160008760008151811015156112a857fe5b9060200190602002015160019004815260200190815260200160002060030160008760018151811015156112d857fe5b602090810290910181015182528101919091526040016000908120548751600160a060020a039091169160019189908290811061131157fe5b90602001906020020151600190048152602001908152602001600020600301600088600181518110151561134157fe5b60209081029091018101518252810191909152604001600090812060010101546001600089600081518110151561137457fe5b9060200190602002015160019004815260200190815260200160002060030160008960018151811015156113a457fe5b6020908102909101810151825281019190915260400160002060019081010154600160008a60008151811015156113d757fe5b9060200190602002015160019004815260200190815260200160002060030160008a600181518110151561140757fe5b602090810290910181015182528101919091526040016000908120600301548a5160ff909116916001918c908290811061143d57fe5b9060200190602002015160019004815260200190815260200160002060030160008b6001815181101515610b4357fe00a165627a7a7230582004ecfe3d2ea455ea2560b2e6b409d7699df12586dd2e4abd3fe221f2a7db5a160029",
  "source": "pragma solidity ^0.4.23;\n\nimport \"./CryptoFlowLib.sol\";\nimport \"./ChallengedLib.sol\";\nimport \"./DefendLib.sol\";\nimport \"./Util.sol\";\n\ncontract Booster {\n    mapping (address => bool) public assetAddresses;\n    mapping (uint256 => ChallengedLib.Stage) public stages;\n    mapping (bytes32 => CryptoFlowLib.Log) public depositLogs;\n    mapping (bytes32 => CryptoFlowLib.Log) public withdrawalLogs;\n\n    uint256 public stageHeight;\n    uint256 public instantWithdrawMaximum;\n    uint256 public depositSequenceNumber;\n    address public owner;\n    address public utilAddress;\n    address public managerAddress;\n    address public cryptoFlowLibAddress;\n    address public challengedLibAddress;\n    address public defendLibAddress;\n    address[] public assetAddressesArray;\n\n    event ProposeDeposit (\n        bytes32 indexed _dsn,\n        bytes32 indexed _client,\n        bytes32 _value,\n        bytes32 _assetID\n    );\n\n    event VerifyReceipt (\n    uint256 indexed _type, // { 0: deposit, 1: proposeWithdrawal, 2: instantWithdrawal }\n    bytes32 _gsn,\n    bytes32 _lightTxHash,\n    bytes32 _fromBalance,\n    bytes32 _toBalance,\n    bytes32[3] _sigLightTx,\n    bytes32[3] _sigReceipt\n    );\n\n    event Withdraw (\n        bytes32 indexed _wsn,\n        bytes32 indexed _client,\n        bytes32 _value,\n        bytes32 _assetID\n    );\n\n    event Attach (\n        bytes32 _stageHeight,\n        bytes32 _receiptRootHash,\n        bytes32 _accountRootHash\n    );\n\n    event Challenge (\n        uint256 indexed _challengedType, // { type: 1 - 4, 1: repeatedGSN 2: wrongBalance 3: skippedGSN 4: existProof }\n        bytes32 _client,\n        bytes32 _lightTxHash\n    );\n\n    event Defend (\n        bytes32 _lightTxHash,\n        bool _challengeState\n    );\n\n    function Booster (\n        address _boosterOwner,\n        address _utilAddress,\n        address _cryptoFlowLibAddress,\n        address _challengedLibAddress,\n        address _defendLibAddress,\n        address[] _assetAddresses,\n        uint256 _instantWithdrawMaximum\n    ) {\n        managerAddress = msg.sender;\n        owner = _boosterOwner;\n        utilAddress = _utilAddress;\n        cryptoFlowLibAddress = _cryptoFlowLibAddress;\n        challengedLibAddress = _challengedLibAddress;\n        defendLibAddress = _defendLibAddress;\n        instantWithdrawMaximum = _instantWithdrawMaximum;\n        stages[stageHeight].data = \"genisis stage\";\n        \n        for (uint i=0; i<_assetAddresses.length; i++) {\n            if (assetAddresses[_assetAddresses[i]] == false) {\n                assetAddresses[_assetAddresses[i]] = true;\n                assetAddressesArray.push(_assetAddresses[i]);\n            }\n        }\n    }\n\n    function proposeDeposit (bytes32[] _parameter) private {\n        /*\n        _parameter[0] = client\n        _parameter[1] = value\n        _parameter[2] = assetID\n        */\n        bytes32 dsn = bytes32(depositSequenceNumber);\n        depositLogs[dsn].stage = bytes32(stageHeight + 1);\n        depositLogs[dsn].client = _parameter[0];\n        depositLogs[dsn].value = _parameter[1];\n        depositLogs[dsn].assetID = _parameter[2];\n        depositSequenceNumber++;\n\n        emit ProposeDeposit (dsn, _parameter[0], _parameter[1], _parameter[2]);\n    }\n\n    function delegateToCryptoFlowLib (bytes4 _signature, bytes32[] _parameter) payable {\n        /*\n        'deposit(bytes32[])':            0x7b9d7d74\n        'proposeWithdrawal(bytes32[])':  0x68ff1929\n        'withdraw(bytes32[])':           0xfe2b3924\n        'instantWithdraw(bytes32[])':    0xbe1946da\n        */\n        require(cryptoFlowLibAddress.delegatecall( _signature, uint256(32), uint256(_parameter.length), _parameter));\n    }\n\n    function delegateToChallengedLib (bytes4 _signature, bytes32[] _parameter) public {\n        /*\n        'attach(bytes32[])':                                0x95aa4aac\n        'challengedRepeatedGSN(bytes32[])':                 0xb210ffbf\n        'challengedWrongBalance(bytes32[])':                0x4259ee16\n        'challengedSkippedGSN(bytes32[])':                  0x6f62a2d9\n        'challengedExistedProof(bytes32[])':                0xbfe6f0e2\n        */\n        require(challengedLibAddress.delegatecall( _signature, uint256(32), uint256(_parameter.length), _parameter));\n    }\n\n    function delegateToDefendLib (bytes4 _signature, bytes32[] _parameter) public {\n        /*\n        'defendWrongBalances(bytes32[])':                    0xa2e630a5\n        'defendSkippedGSN(bytes32[])':                       0xdc64db7c\n        'defendExistProof(bytes32[])':                       0xe1e59fb4\n        */\n        require(defendLibAddress.delegatecall( _signature, uint256(32), uint256(_parameter.length), _parameter));\n    }\n\n    function () payable {\n        /*\n        called delegateToLib to 'proposeDeposit(bytes32[])'\n        gas used : 127075\n        gad used : 106627\n        suggested gas : 150000\n        */\n        bytes32[] memory bytes32Array = new bytes32[](3);\n        bytes32Array[0] = bytes32(msg.sender);\n        bytes32Array[1] = bytes32(msg.value);\n        bytes32Array[2] = bytes32(0);\n        proposeDeposit(bytes32Array);\n    }\n\n    function setAssetAddress(address asAddress) {\n        if (assetAddresses[asAddress] == false) {\n            assetAddresses[asAddress] = true;\n            assetAddressesArray.push(asAddress);\n        }\n    }\n\n    // cannot unset array key\n    // function unsetAssetAddress(address asAddress) {\n    //     delete assetAddresses[asAddress];\n\n    //     // remove asset address from assetAddressesArray\n    //     for (uint i=0; i<assetAddressesArray.length; i++) {\n    //         if (assetAddressesArray[i] == asAddress) {\n    //             delete assetAddressesArray[i];\n    //             break;\n    //         }\n    //     }\n    // }\n\n    function getAssetAddressesLength() public constant returns (uint256) {\n        return assetAddressesArray.length;\n    }\n\n    function tokenFallback(address _from, uint _value) public returns (bool success) {\n        if(assetAddresses[msg.sender] == false) {\n            revert();\n        } else {\n            bytes32[] memory bytes32Array = new bytes32[](3);\n            bytes32Array[0] = bytes32(_from);\n            bytes32Array[1] = bytes32(_value);\n            bytes32Array[2] = bytes32(msg.sender);\n            proposeDeposit(bytes32Array);\n            return true;\n        }\n    }\n\n    function getChallengedHash (bytes32[] _parameter) constant returns (bytes32) {\n        /*\n        parameter[0] = _stageHeight,\n        parameter[1] = _challengeNumber\n        */\n        return stages[uint256(_parameter[0])].challengedLightTxHashes[uint256(_parameter[1])];\n    }\n\n    function getChallengedRepeatedGSNListInfo (bytes32[] _parameter) constant returns (address, bytes32, bytes32, bool, bool) {\n        /*\n        parameter[0] = _stageHeight,\n        parameter[1] = _lightTxHash\n        */\n        return (stages[uint256(_parameter[0])].challengedRepeatedGSNList[_parameter[1]].client, stages[uint256(_parameter[0])].challengedRepeatedGSNList[_parameter[1]].lightTxHashes[0], stages[uint256(_parameter[0])].challengedRepeatedGSNList[_parameter[1]].lightTxHashes[1], stages[uint256(_parameter[0])].challengedRepeatedGSNList[_parameter[1]].challengedState, stages[uint256(_parameter[0])].challengedRepeatedGSNList[_parameter[1]].getCompensation);\n    }\n\n    function getChallengedWrongBalanceListInfo (bytes32[] _parameter) constant returns (address, bytes32, bytes32, bool, bool) {\n        /*\n        parameter[0] = _stageHeight,\n        parameter[1] = _lightTxHash\n        */\n        return (stages[uint256(_parameter[0])].challengedWrongBalanceList[_parameter[1]].client, stages[uint256(_parameter[0])].challengedWrongBalanceList[_parameter[1]].lightTxHashes[0], stages[uint256(_parameter[0])].challengedWrongBalanceList[_parameter[1]].lightTxHashes[1], stages[uint256(_parameter[0])].challengedWrongBalanceList[_parameter[1]].challengedState, stages[uint256(_parameter[0])].challengedWrongBalanceList[_parameter[1]].getCompensation);\n    }\n\n    function getChallengedSkippedGSNListInfo (bytes32[] _parameter) constant returns (address, bytes32, bytes32, bool, bool) {\n        /*\n        parameter[0] = _stageHeight,\n        parameter[1] = _lightTxHash\n        */\n        return (stages[uint256(_parameter[0])].challengedSkippedGSNList[_parameter[1]].client, stages[uint256(_parameter[0])].challengedSkippedGSNList[_parameter[1]].lightTxHashes[0], stages[uint256(_parameter[0])].challengedSkippedGSNList[_parameter[1]].lightTxHashes[1], stages[uint256(_parameter[0])].challengedSkippedGSNList[_parameter[1]].challengedState, stages[uint256(_parameter[0])].challengedSkippedGSNList[_parameter[1]].getCompensation);\n    }\n\n    function getChallengedExistedProofListInfo (bytes32[] _parameter) constant returns (address, bytes32, bytes32, bool, bool) {\n        /*\n        parameter[0] = _stageHeight,\n        parameter[1] = _lightTxHash\n        */\n        return (stages[uint256(_parameter[0])].challengedExistedProofList[_parameter[1]].client, stages[uint256(_parameter[0])].challengedExistedProofList[_parameter[1]].lightTxHashes[0], stages[uint256(_parameter[0])].challengedExistedProofList[_parameter[1]].lightTxHashes[1], stages[uint256(_parameter[0])].challengedExistedProofList[_parameter[1]].challengedState, stages[uint256(_parameter[0])].challengedExistedProofList[_parameter[1]].getCompensation);\n    }\n}\n",
  "sourcePath": "/Users/jhenganjye/contracts/contracts/Booster.sol",
  "compiler": {
    "name": "solc",
    "version": "0.4.24+commit.e67f0147.Emscripten.clang"
  },
  "schemaVersion": "2.0.1",
  "updatedAt": "2018-08-14T07:20:38.925Z"
}