{
  "contractName": "Booster",
  "abi": [
    {
      "constant": true,
      "inputs": [
        {
          "name": "",
          "type": "bytes32"
        }
      ],
      "name": "depositLogs",
      "outputs": [
        {
          "name": "stage",
          "type": "bytes32"
        },
        {
          "name": "client",
          "type": "bytes32"
        },
        {
          "name": "value",
          "type": "bytes32"
        },
        {
          "name": "assetID",
          "type": "bytes32"
        },
        {
          "name": "flag",
          "type": "bool"
        }
      ],
      "payable": false,
      "stateMutability": "view",
      "type": "function"
    },
    {
      "constant": true,
      "inputs": [
        {
          "name": "",
          "type": "address"
        }
      ],
      "name": "assetAddresses",
      "outputs": [
        {
          "name": "",
          "type": "bool"
        }
      ],
      "payable": false,
      "stateMutability": "view",
      "type": "function"
    },
    {
      "constant": true,
      "inputs": [
        {
          "name": "",
          "type": "uint256"
        }
      ],
      "name": "assetAddressesArray",
      "outputs": [
        {
          "name": "",
          "type": "address"
        }
      ],
      "payable": false,
      "stateMutability": "view",
      "type": "function"
    },
    {
      "constant": true,
      "inputs": [
        {
          "name": "",
          "type": "bytes32"
        }
      ],
      "name": "withdrawalLogs",
      "outputs": [
        {
          "name": "stage",
          "type": "bytes32"
        },
        {
          "name": "client",
          "type": "bytes32"
        },
        {
          "name": "value",
          "type": "bytes32"
        },
        {
          "name": "assetID",
          "type": "bytes32"
        },
        {
          "name": "flag",
          "type": "bool"
        }
      ],
      "payable": false,
      "stateMutability": "view",
      "type": "function"
    },
    {
      "constant": true,
      "inputs": [
        {
          "name": "",
          "type": "uint256"
        }
      ],
      "name": "stages",
      "outputs": [
        {
          "name": "receiptRootHash",
          "type": "bytes32"
        },
        {
          "name": "accountRootHash",
          "type": "bytes32"
        },
        {
          "name": "data",
          "type": "bytes32"
        }
      ],
      "payable": false,
      "stateMutability": "view",
      "type": "function"
    },
    {
      "constant": true,
      "inputs": [],
      "name": "owner",
      "outputs": [
        {
          "name": "",
          "type": "address"
        }
      ],
      "payable": false,
      "stateMutability": "view",
      "type": "function"
    },
    {
      "constant": true,
      "inputs": [],
      "name": "instantWithdrawMaximum",
      "outputs": [
        {
          "name": "",
          "type": "uint256"
        }
      ],
      "payable": false,
      "stateMutability": "view",
      "type": "function"
    },
    {
      "constant": true,
      "inputs": [],
      "name": "depositSequenceNumber",
      "outputs": [
        {
          "name": "",
          "type": "uint256"
        }
      ],
      "payable": false,
      "stateMutability": "view",
      "type": "function"
    },
    {
      "constant": true,
      "inputs": [],
      "name": "managerAddress",
      "outputs": [
        {
          "name": "",
          "type": "address"
        }
      ],
      "payable": false,
      "stateMutability": "view",
      "type": "function"
    },
    {
      "constant": true,
      "inputs": [],
      "name": "stageHeight",
      "outputs": [
        {
          "name": "",
          "type": "uint256"
        }
      ],
      "payable": false,
      "stateMutability": "view",
      "type": "function"
    },
    {
      "inputs": [
        {
          "name": "_boosterOwner",
          "type": "address"
        },
        {
          "name": "_assetAddresses",
          "type": "address[]"
        },
        {
          "name": "_instantWithdrawMaximum",
          "type": "uint256"
        }
      ],
      "payable": false,
      "stateMutability": "nonpayable",
      "type": "constructor"
    },
    {
      "payable": true,
      "stateMutability": "payable",
      "type": "fallback"
    },
    {
      "anonymous": false,
      "inputs": [
        {
          "indexed": true,
          "name": "_dsn",
          "type": "bytes32"
        },
        {
          "indexed": true,
          "name": "_client",
          "type": "bytes32"
        },
        {
          "indexed": false,
          "name": "_value",
          "type": "bytes32"
        },
        {
          "indexed": false,
          "name": "_assetID",
          "type": "bytes32"
        }
      ],
      "name": "ProposeDeposit",
      "type": "event"
    },
    {
      "anonymous": false,
      "inputs": [
        {
          "indexed": true,
          "name": "_type",
          "type": "uint256"
        },
        {
          "indexed": false,
          "name": "_gsn",
          "type": "bytes32"
        },
        {
          "indexed": false,
          "name": "_lightTxHash",
          "type": "bytes32"
        },
        {
          "indexed": false,
          "name": "_fromBalance",
          "type": "bytes32"
        },
        {
          "indexed": false,
          "name": "_toBalance",
          "type": "bytes32"
        },
        {
          "indexed": false,
          "name": "_sigLightTx",
          "type": "bytes32[3]"
        },
        {
          "indexed": false,
          "name": "_sigReceipt",
          "type": "bytes32[3]"
        }
      ],
      "name": "VerifyReceipt",
      "type": "event"
    },
    {
      "anonymous": false,
      "inputs": [
        {
          "indexed": true,
          "name": "_wsn",
          "type": "bytes32"
        },
        {
          "indexed": true,
          "name": "_client",
          "type": "bytes32"
        },
        {
          "indexed": false,
          "name": "_value",
          "type": "bytes32"
        },
        {
          "indexed": false,
          "name": "_assetID",
          "type": "bytes32"
        }
      ],
      "name": "Withdraw",
      "type": "event"
    },
    {
      "anonymous": false,
      "inputs": [
        {
          "indexed": false,
          "name": "_stageHeight",
          "type": "bytes32"
        },
        {
          "indexed": false,
          "name": "_receiptRootHash",
          "type": "bytes32"
        },
        {
          "indexed": false,
          "name": "_accountRootHash",
          "type": "bytes32"
        }
      ],
      "name": "Attach",
      "type": "event"
    },
    {
      "anonymous": false,
      "inputs": [
        {
          "indexed": true,
          "name": "_challengedType",
          "type": "uint256"
        },
        {
          "indexed": false,
          "name": "_client",
          "type": "bytes32"
        },
        {
          "indexed": false,
          "name": "_lightTxHash",
          "type": "bytes32"
        }
      ],
      "name": "Challenge",
      "type": "event"
    },
    {
      "constant": false,
      "inputs": [
        {
          "name": "asAddress",
          "type": "address"
        }
      ],
      "name": "setAssetAddress",
      "outputs": [],
      "payable": false,
      "stateMutability": "nonpayable",
      "type": "function"
    },
    {
      "constant": false,
      "inputs": [
        {
          "name": "asAddress",
          "type": "address"
        }
      ],
      "name": "unsetAssetAddress",
      "outputs": [],
      "payable": false,
      "stateMutability": "nonpayable",
      "type": "function"
    },
    {
      "constant": true,
      "inputs": [],
      "name": "getAssetAddressesLength",
      "outputs": [
        {
          "name": "",
          "type": "uint256"
        }
      ],
      "payable": false,
      "stateMutability": "view",
      "type": "function"
    },
    {
      "constant": false,
      "inputs": [
        {
          "name": "_parameter",
          "type": "bytes32[]"
        }
      ],
      "name": "proposeTokenDeposit",
      "outputs": [],
      "payable": false,
      "stateMutability": "nonpayable",
      "type": "function"
    },
    {
      "constant": false,
      "inputs": [
        {
          "name": "_parameter",
          "type": "bytes32[]"
        }
      ],
      "name": "deposit",
      "outputs": [],
      "payable": false,
      "stateMutability": "nonpayable",
      "type": "function"
    },
    {
      "constant": false,
      "inputs": [
        {
          "name": "_parameter",
          "type": "bytes32[]"
        }
      ],
      "name": "proposeWithdrawal",
      "outputs": [],
      "payable": false,
      "stateMutability": "nonpayable",
      "type": "function"
    },
    {
      "constant": false,
      "inputs": [
        {
          "name": "_parameter",
          "type": "bytes32[]"
        }
      ],
      "name": "withdraw",
      "outputs": [],
      "payable": false,
      "stateMutability": "nonpayable",
      "type": "function"
    },
    {
      "constant": false,
      "inputs": [
        {
          "name": "_parameter",
          "type": "bytes32[]"
        }
      ],
      "name": "instantWithdraw",
      "outputs": [],
      "payable": false,
      "stateMutability": "nonpayable",
      "type": "function"
    },
    {
      "constant": false,
      "inputs": [
        {
          "name": "_from",
          "type": "address"
        },
        {
          "name": "_value",
          "type": "uint256"
        }
      ],
      "name": "tokenFallback",
      "outputs": [
        {
          "name": "success",
          "type": "bool"
        }
      ],
      "payable": false,
      "stateMutability": "nonpayable",
      "type": "function"
    },
    {
      "constant": false,
      "inputs": [
        {
          "name": "_parameter",
          "type": "bytes32[]"
        }
      ],
      "name": "attach",
      "outputs": [],
      "payable": false,
      "stateMutability": "nonpayable",
      "type": "function"
    },
    {
      "constant": false,
      "inputs": [
        {
          "name": "_receipt",
          "type": "bytes32[]"
        },
        {
          "name": "_receipt2",
          "type": "bytes32[]"
        }
      ],
      "name": "challengedRepeatedGSN",
      "outputs": [],
      "payable": false,
      "stateMutability": "nonpayable",
      "type": "function"
    },
    {
      "constant": false,
      "inputs": [
        {
          "name": "_receipt",
          "type": "bytes32[]"
        },
        {
          "name": "_receipt2",
          "type": "bytes32[]"
        }
      ],
      "name": "challengedWrongBalance",
      "outputs": [],
      "payable": false,
      "stateMutability": "nonpayable",
      "type": "function"
    },
    {
      "constant": false,
      "inputs": [
        {
          "name": "_receipt",
          "type": "bytes32[]"
        },
        {
          "name": "_receipt2",
          "type": "bytes32[]"
        }
      ],
      "name": "challengedSkippedGSN",
      "outputs": [],
      "payable": false,
      "stateMutability": "nonpayable",
      "type": "function"
    },
    {
      "constant": true,
      "inputs": [
        {
          "name": "_parameter",
          "type": "bytes32[]"
        }
      ],
      "name": "getChallengedHash",
      "outputs": [
        {
          "name": "",
          "type": "bytes32"
        }
      ],
      "payable": false,
      "stateMutability": "view",
      "type": "function"
    },
    {
      "constant": true,
      "inputs": [
        {
          "name": "_parameter",
          "type": "bytes32[]"
        }
      ],
      "name": "getChallengedRepeatedGSNListInfo",
      "outputs": [
        {
          "name": "",
          "type": "bytes32"
        },
        {
          "name": "",
          "type": "bytes32"
        },
        {
          "name": "",
          "type": "bytes32"
        },
        {
          "name": "",
          "type": "bool"
        },
        {
          "name": "",
          "type": "bool"
        }
      ],
      "payable": false,
      "stateMutability": "view",
      "type": "function"
    }
  ],
  "bytecode": "0x60806040523480156200001157600080fd5b5060405162003ad738038062003ad78339810160409081528151602080840151838501516008805433600160a060020a03199182161790915560078054909116600160a060020a0386161790556005819055600454600090815260019093529382207f67656e69736973207374616765000000000000000000000000000000000000006002919091015591939190910191905b82518110156200018a576000808483815181101515620000c057fe5b6020908102909101810151600160a060020a031682528101919091526040016000205460ff1615156200018157600160008085848151811015156200010157fe5b602090810291909101810151600160a060020a03168252810191909152604001600020805460ff191691151591909117905582516009908490839081106200014557fe5b6020908102919091018101518254600181018455600093845291909220018054600160a060020a031916600160a060020a039092169190911790555b600101620000a4565b50505050613939806200019e6000396000f30060806040526004361061012e5763ffffffff60e060020a600035041662f817d681146101ae578063098bbb62146101f3578063130ee4ad14610228578063376745051461025c5780633b66d02b146102c35780633f8abf74146102e757806368ff1929146102fc5780636cdcf15014610353578063770e09fd1461036b5780637b9d7d741461038c578063845ddcb2146103e15780638a77ce41146104175780638da5cb5b146104a557806390c8a3a1146104ba57806395aa4aac146104cf578063a68f4d2714610524578063b3c99e27146105b2578063be1946da14610640578063c5025b8714610695578063cc6e7a14146106ea578063cf73a1bc146106ff578063f418eae414610714578063f950c6a614610729578063fb3b65bb146107ad578063fe2b3924146107ce575b60408051600380825260808201909252606091602082018380388339505081519192503391839150600090811061016157fe5b60209081029091010152805134908290600190811061017c57fe5b6020908102909101015280516000908290600290811061019857fe5b602090810290910101526101ab81610823565b50005b3480156101ba57600080fd5b506101c6600435610952565b60408051958652602086019490945284840192909252606084015215156080830152519081900360a00190f35b3480156101ff57600080fd5b50610214600160a060020a0360043516610984565b604080519115158252519081900360200190f35b34801561023457600080fd5b50610240600435610999565b60408051600160a060020a039092168252519081900360200190f35b34801561026857600080fd5b50604080516020600480358082013583810280860185019096528085526102b1953695939460249493850192918291850190849080828437509497506109c19650505050505050565b60408051918252519081900360200190f35b3480156102cf57600080fd5b50610214600160a060020a0360043516602435610a2b565b3480156102f357600080fd5b506102b1610b27565b34801561030857600080fd5b506040805160206004803580820135838102808601850190965280855261035195369593946024949385019291829185019084908082843750949750610b2e9650505050505050565b005b34801561035f57600080fd5b506101c6600435610eb3565b34801561037757600080fd5b50610351600160a060020a0360043516610ee6565b34801561039857600080fd5b506040805160206004803580820135838102808601850190965280855261035195369593946024949385019291829185019084908082843750949750610f919650505050505050565b3480156103ed57600080fd5b506103f9600435611302565b60408051938452602084019290925282820152519081900360600190f35b34801561042357600080fd5b506040805160206004803580820135838102808601850190965280855261035195369593946024949385019291829185019084908082843750506040805187358901803560208181028481018201909552818452989b9a9989019892975090820195509350839250850190849080828437509497506113229650505050505050565b3480156104b157600080fd5b5061024061180b565b3480156104c657600080fd5b506102b161181a565b3480156104db57600080fd5b5060408051602060048035808201358381028086018501909652808552610351953695939460249493850192918291850190849080828437509497506118209650505050505050565b34801561053057600080fd5b506040805160206004803580820135838102808601850190965280855261035195369593946024949385019291829185019084908082843750506040805187358901803560208181028481018201909552818452989b9a99890198929750908201955093508392508501908490808284375094975061193f9650505050505050565b3480156105be57600080fd5b506040805160206004803580820135838102808601850190965280855261035195369593946024949385019291829185019084908082843750506040805187358901803560208181028481018201909552818452989b9a998901989297509082019550935083925085019084908082843750949750611c399650505050505050565b34801561064c57600080fd5b506040805160206004803580820135838102808601850190965280855261035195369593946024949385019291829185019084908082843750949750611f099650505050505050565b3480156106a157600080fd5b50604080516020600480358082013583810280860185019096528085526103519536959394602494938501929182918501908490808284375094975061254a9650505050505050565b3480156106f657600080fd5b506102b1612714565b34801561070b57600080fd5b5061024061271a565b34801561072057600080fd5b506102b1612729565b34801561073557600080fd5b506040805160206004803580820135838102808601850190965280855261077e9536959394602494938501929182918501908490808284375094975061272f9650505050505050565b604080519586526020860194909452848401929092521515606084015215156080830152519081900360a00190f35b3480156107b957600080fd5b50610351600160a060020a036004351661293d565b3480156107da57600080fd5b506040805160206004803580820135838102808601850190965280855261035195369593946024949385019291829185019084908082843750949750612abe9650505050505050565b600654600454600082815260026020526040812060019092019091558251839190811061084c57fe5b60209081029091018101516000838152600290925260409091206001908101919091558251839190811061087c57fe5b6020908102909101810151600083815260029283905260409020820155825183919081106108a657fe5b6020908102909101810151600083815260029092526040822060030155600680546001019055825183919081106108d957fe5b60209081029091010151825182907f203792de59a635b49a38a375598d4af1adbb5338d5aac279ec37611d1f0e1448908590600190811061091657fe5b9060200190602002015185600281518110151561092f57fe5b602090810290910181015160408051938452918301528051918290030190a35050565b600260208190526000918252604090912080546001820154928201546003830154600490930154919392909160ff1685565b60006020819052908152604090205460ff1681565b60098054829081106109a757fe5b600091825260209091200154600160a060020a0316905081565b6000600160008360008151811015156109d657fe5b90602001906020020151600190048152602001908152602001600020600701826001815181101515610a0457fe5b6020908102909101015181548110610a1857fe5b906000526020600020015490505b919050565b3360009081526020819052604081205460609060ff161515610a97576040805160e560020a62461bcd02815260206004820152601660248201527f4173736574206164647265737320696e76616c69642e00000000000000000000604482015290519081900360640190fd5b6040805160038082526080820190925290602082016060803883395050815191925050600160a060020a0385169082906000908110610ad257fe5b602090810290910101528051839082906001908110610aed57fe5b602090810290910101528051339082906002908110610b0857fe5b60209081029091010152610b1b81610823565b600191505b5092915050565b6009545b90565b60606000610b5783600454600101600760009054906101000a9004600160a060020a0316612dc5565b1515610bad576040805160e560020a62461bcd02815260206004820152600a60248201527f57726f6e67207369672e00000000000000000000000000000000000000000000604482015290519081900360640190fd5b6040805160028082526060820183529091602083019080388339019050509150826001815181101515610bdc57fe5b90602001906020020151826000815181101515610bf557fe5b60209081029091010152825183906006908110610c0e57fe5b90602001906020020151826001815181101515610c2757fe5b60209081029091010152610c3a82613253565b600454600082815260036020526040902060019182019055845191925084918110610c6157fe5b602090810290910181015160008381526003909252604090912060010155825183906004908110610c8e57fe5b60209081029091018101516000838152600392839052604090206002015583518491908110610cb957fe5b60209081029091018101516000838152600392839052604090209091015582516001907f6768e9219651a40c194e7dadba7540b112aa9f5495ed9224d694a2ba71ef9742908590600c908110610d0b57fe5b90602001906020020151856000815181101515610d2457fe5b9060200190602002015186600d815181101515610d3d57fe5b9060200190602002015187600e815181101515610d5657fe5b906020019060200201516060604051908101604052808a6010815181101515610d7b57fe5b602090810290910181015182528b519101908b906011908110610d9a57fe5b602090810290910181015182528b519101908b906012908110610db957fe5b60209081029091010151905260408051606081019091528a5181908c906013908110610de157fe5b602090810290910181015182528c519101908c906014908110610e0057fe5b602090810290910181015182528c519101908c906015908110610e1f57fe5b602090810290910181015190915260408051888152918201879052810185905260608082018590526080820190849080838360005b83811015610e6c578181015183820152602001610e54565b5050505090500182600360200280838360005b83811015610e97578181015183820152602001610e7f565b50505050905001965050505050505060405180910390a2505050565b60036020819052600091825260409091208054600182015460028301549383015460049093015491939092909160ff1685565b600754600160a060020a0316331415610f8e57600160a060020a03811660009081526020819052604090205460ff161515610f8e57600160a060020a0381166000818152602081905260408120805460ff191660019081179091556009805491820181559091527f6e1540171b6c0c960b71a7020d9f60077f6af931a8bbf590da0223dacf75c7af01805473ffffffffffffffffffffffffffffffffffffffff191690911790555b50565b600754600090600160a060020a03163314156112fe57816007815181101515610fb657fe5b602090810290910181015160008181526002808452604091829020825160a081018452815481526001820154958101959095529081015491840191909152600381015460608401526004015460ff16151560808301529150611019908390613438565b151561106f576040805160e560020a62461bcd02815260206004820152601260248201527f57726f6e67206465706f736974206c6f672e0000000000000000000000000000604482015290519081900360640190fd5b60045460075461108f918491600190910190600160a060020a0316612dc5565b15156110e5576040805160e560020a62461bcd02815260206004820152600a60248201527f57726f6e67207369672e00000000000000000000000000000000000000000000604482015290519081900360640190fd5b6001600260008460078151811015156110fa57fe5b60209081029190910181015182528101919091526040016000908120600401805460ff19169215159290921790915582517f6768e9219651a40c194e7dadba7540b112aa9f5495ed9224d694a2ba71ef9742908490600c90811061115a57fe5b9060200190602002015184600081518110151561117357fe5b9060200190602002015185600d81518110151561118c57fe5b9060200190602002015186600e8151811015156111a557fe5b906020019060200201516060604051908101604052808960108151811015156111ca57fe5b602090810290910181015182528a519101908a9060119081106111e957fe5b602090810290910181015182528a519101908a90601290811061120857fe5b6020908102909101015190526040805160608101909152895181908b90601390811061123057fe5b602090810290910181015182528b519101908b90601490811061124f57fe5b602090810290910181015182528b519101908b90601590811061126e57fe5b602090810290910181015190915260408051888152918201879052810185905260608082018590526080820190849080838360005b838110156112bb5781810151838201526020016112a3565b5050505090500182600360200280838360005b838110156112e65781810151838201526020016112ce565b50505050905001965050505050505060405180910390a25b5050565b600160208190526000918252604090912080549181015460029091015483565b60045460075460009161134091859190600160a060020a0316612dc5565b1515611396576040805160e560020a62461bcd02815260206004820152601460248201527f526563656970743120697320696e76616c69642e000000000000000000000000604482015290519081900360640190fd5b6004546007546113b0918491600160a060020a0316612dc5565b1515611406576040805160e560020a62461bcd02815260206004820152601460248201527f526563656970743220697320696e76616c69642e000000000000000000000000604482015290519081900360640190fd5b6000905082600181518110151561141957fe5b9060200190602002015160019004600160a060020a031682600181518110151561143f57fe5b60209081029091010151600160a060020a031614156114c15782600d81518110151561146757fe5b6020908102909101015182516114b3908490600490811061148457fe5b6020908102909101015184518590600d90811061149d57fe5b602090810290910101519063ffffffff61351316565b146114bc575060015b611674565b8260028151811015156114d057fe5b9060200190602002015160019004600160a060020a03168260018151811015156114f657fe5b60209081029091010151600160a060020a0316141561151e5782600e81518110151561146757fe5b82600181518110151561152d57fe5b9060200190602002015160019004600160a060020a031682600281518110151561155357fe5b60209081029091010151600160a060020a031614156115c75782600d81518110151561157b57fe5b6020908102909101015182516114b3908490600490811061159857fe5b6020908102909101015184518590600d9081106115b157fe5b602090810290910101519063ffffffff61352616565b8260028151811015156115d657fe5b9060200190602002015160019004600160a060020a03168260028151811015156115fc57fe5b60209081029091010151600160a060020a031614156116245782600e81518110151561157b57fe5b6040805160e560020a62461bcd02815260206004820152600f60248201527f5265636569707473206572726f722e0000000000000000000000000000000000604482015290519081900360640190fd5b80156118065760408051608081018252338152815180830190925284519091602083019181908790600c9081106116a757fe5b6020908102909101810151825286519101908690600c9081106116c657fe5b60209081029091018101519091529082526001828201819052600060409384018190526004805482529190925291812085519201918590600c90811061170857fe5b6020908102909101810151825281810192909252604001600020825181559082015161173a9060018301906002613893565b506040828101516003909201805460609094015115156101000261ff001993151560ff199095169490941792909216929092179055600454600090815260016020522082516007909101908390600c90811061179257fe5b60209081029091018101518254600181018455600093845291909220015581516002907ffd656b2e5f48a8be9d88bbbb20c5ba9ac45ded8cc81e28436cbf708e0be9da949033908590600c9081106117e657fe5b602090810290910181015160408051938452918301528051918290030190a25b505050565b600754600160a060020a031681565b60055481565b600754600160a060020a0316331415610f8e5760048054600101905580518190600090811061184b57fe5b6020908102909101810151600454600090815260019283905260409020558151829190811061187657fe5b6020908102909101810151600454600090815260019283905260409020909101558051819060029081106118a657fe5b6020908102909101810151600480546000908152600190935260408320600201919091555482517fea3f2b7078db2e6bbf7c7e2ab4a864450c60236f314da2f4340fc53f70f9297692849181106118f957fe5b9060200190602002015183600181518110151561191257fe5b6020908102909101810151604080519485529184019290925282810191909152519081900360600190a150565b600454600754611959918491600160a060020a0316612dc5565b15156119af576040805160e560020a62461bcd02815260206004820152601460248201527f526563656970743120697320696e76616c69642e000000000000000000000000604482015290519081900360640190fd5b6004546007546119c9918391600160a060020a0316612dc5565b1515611a1f576040805160e560020a62461bcd02815260206004820152601460248201527f526563656970743220697320696e76616c69642e000000000000000000000000604482015290519081900360640190fd5b80600c815181101515611a2e57fe5b6020908102909101015182518390600c908110611a4757fe5b6020908102909101015114611aa6576040805160e560020a62461bcd02815260206004820152600e60248201527f4e6f207265706561742067736e2e000000000000000000000000000000000000604482015290519081900360640190fd5b60408051608081018252338152815180830190925283519091602083019181908690600c908110611ad357fe5b6020908102909101810151825285519101908590600c908110611af257fe5b6020908102909101810151909152908252600182820181905260006040938401819052600454815291529081208351600390910191908490600c908110611b3557fe5b60209081029091018101518252818101929092526040016000208251815590820151611b679060018301906002613893565b506040828101516003909201805460609094015115156101000261ff001993151560ff199095169490941792909216929092179055600454600090815260016020522081516007909101908290600c908110611bbf57fe5b60209081029091018101518254600181810185556000948552929093209092019190915581517ffd656b2e5f48a8be9d88bbbb20c5ba9ac45ded8cc81e28436cbf708e0be9da949033908490600c908110611c1657fe5b602090810290910181015160408051938452918301528051918290030190a25050565b600454600754611c53918491600160a060020a0316612dc5565b1515611ca9576040805160e560020a62461bcd02815260206004820152601460248201527f526563656970743120697320696e76616c69642e000000000000000000000000604482015290519081900360640190fd5b600454600754611cc3918391600160a060020a0316612dc5565b1515611d19576040805160e560020a62461bcd02815260206004820152601460248201527f526563656970743220697320696e76616c69642e000000000000000000000000604482015290519081900360640190fd5b611d4482600c815181101515611d2b57fe5b6020908102909101015182518390600c9081106115b157fe5b60011415611d9c576040805160e560020a62461bcd02815260206004820152600c60248201527f4e6f20736b69702067736e2e0000000000000000000000000000000000000000604482015290519081900360640190fd5b60408051608081018252338152815180830190925283519091602083019181908690600c908110611dc957fe5b6020908102909101810151825285519101908590600c908110611de857fe5b6020908102909101810151909152908252600182820181905260006040938401819052600454815291529081208351600590910191908490600c908110611e2b57fe5b60209081029091018101518252818101929092526040016000208251815590820151611e5d9060018301906002613893565b506040828101516003909201805460609094015115156101000261ff001993151560ff199095169490941792909216929092179055600454600090815260016020522081516007909101908290600c908110611eb557fe5b60209081029091018101518254600181018455600093845291909220015580516003907ffd656b2e5f48a8be9d88bbbb20c5ba9ac45ded8cc81e28436cbf708e0be9da949033908490600c908110611c1657fe5b6060600080600080611f3686600454600101600760009054906101000a9004600160a060020a0316612dc5565b1515611f8c576040805160e560020a62461bcd02815260206004820152600a60248201527f57726f6e67207369672e00000000000000000000000000000000000000000000604482015290519081900360640190fd5b600554866004815181101515611f9e57fe5b602090810290910101511115612024576040805160e560020a62461bcd02815260206004820152603260248201527f57697468647261772076616c7565206d6f7265207468616e20696e7374616e7460448201527f207769746864726177206d6178696d756d2e0000000000000000000000000000606482015290519081900360840190fd5b604080516002808252606082018352909160208301908038833901905050945085600181518110151561205357fe5b9060200190602002015185600081518110151561206c57fe5b6020908102909101015285518690600690811061208557fe5b9060200190602002015185600181518110151561209e57fe5b602090810290910101526120b185613253565b60008181526003602052604090206004015490945060ff161561211e576040805160e560020a62461bcd02815260206004820152601860248201527f576974686472617720616c72656164792066696e6973682e0000000000000000604482015290519081900360640190fd5b6004546000858152600360205260409020600191820190558651879190811061214357fe5b60209081029091018101516000868152600390925260409091206001015585518690600490811061217057fe5b6020908102909101810151600086815260039283905260409020600201558651879190811061219b57fe5b602090810290910181015160008681526003928390526040902091820155600401805460ff19166001908117909155865187919081106121d757fe5b602090810290910101518651909350869060049081106121f357fe5b6020908102909101015186519092508690600390811061220f57fe5b602090810290910101519050600160a060020a038116151561226757604051600160a060020a0384169083156108fc029084906000818181858888f19350505050158015612261573d6000803e3d6000fd5b5061236d565b600160a060020a03811660009081526020819052604090205460ff161561231d5780600160a060020a031663a9059cbb84846040518363ffffffff1660e060020a0281526004018083600160a060020a0316600160a060020a0316815260200182815260200192505050602060405180830381600087803b1580156122eb57600080fd5b505af11580156122ff573d6000803e3d6000fd5b505050506040513d602081101561231557600080fd5b5061236d9050565b6040805160e560020a62461bcd02815260206004820152601660248201527f4173736574206164647265737320696e76616c69642e00000000000000000000604482015290519081900360640190fd5b60027f6768e9219651a40c194e7dadba7540b112aa9f5495ed9224d694a2ba71ef974287600c81518110151561239f57fe5b906020019060200201518860008151811015156123b857fe5b9060200190602002015189600d8151811015156123d157fe5b906020019060200201518a600e8151811015156123ea57fe5b906020019060200201516060604051908101604052808d601081518110151561240f57fe5b602090810290910181015182528e519101908e90601190811061242e57fe5b602090810290910181015182528e519101908e90601290811061244d57fe5b60209081029091010151905260408051606081019091528d5181908f90601390811061247557fe5b602090810290910181015182528f519101908f90601490811061249457fe5b602090810290910181015182528f519101908f9060159081106124b357fe5b602090810290910181015190915260408051888152918201879052810185905260608082018590526080820190849080838360005b838110156125005781810151838201526020016124e8565b5050505090500182600360200280838360005b8381101561252b578181015183820152602001612513565b50505050905001965050505050505060405180910390a2505050505050565b600080600083600281518110151561255e57fe5b6020908102909101810151600160a060020a03811660009081529182905260409091205490935060ff1615156125de576040805160e560020a62461bcd02815260206004820152601660248201527f4173736574206164647265737320696e76616c69642e00000000000000000000604482015290519081900360640190fd5b8360008151811015156125ed57fe5b6020908102909101015184519092508490600190811061260957fe5b6020908102909101810151604080517f23b872dd000000000000000000000000000000000000000000000000000000008152600160a060020a038681166004830152306024830152604482018490529151929450908616926323b872dd926064808401938290030181600087803b15801561268357600080fd5b505af1158015612697573d6000803e3d6000fd5b505050506040513d60208110156126ad57600080fd5b50511515612705576040805160e560020a62461bcd02815260206004820152600f60248201527f417070726f7665206661696c65642e0000000000000000000000000000000000604482015290519081900360640190fd5b61270e84610823565b50505050565b60065481565b600854600160a060020a031681565b60045481565b60008060008060006001600087600081518110151561274a57fe5b90602001906020020151600190048152602001908152602001600020600301600087600181518110151561277a57fe5b60209081029091018101518252810191909152604001600090812054875190916001918990829081106127a957fe5b9060200190602002015160019004815260200190815260200160002060030160008860018151811015156127d957fe5b60209081029091018101518252810191909152604001600090812060010101546001600089600081518110151561280c57fe5b90602001906020020151600190048152602001908152602001600020600301600089600181518110151561283c57fe5b6020908102909101810151825281019190915260400160002060019081010154600160008a600081518110151561286f57fe5b9060200190602002015160019004815260200190815260200160002060030160008a600181518110151561289f57fe5b602090810290910181015182528101919091526040016000908120600301548a5160ff909116916001918c90829081106128d557fe5b9060200190602002015160019004815260200190815260200160002060030160008b600181518110151561290557fe5b602090810291909101810151825281019190915260400160002060030154939a929950909750955061010090910460ff169350915050565b6007546000908190600160a060020a031633141561180657600160a060020a03831660009081526020819052604090205460ff1615156001141561180657600160a060020a0383166000908152602081905260408120805460ff1916905591505b6009548210156118065782600160a060020a03166009838154811015156129c157fe5b600091825260209091200154600160a060020a03161415612ab35750805b60095460001901811015612a625760098054600183019081106129fe57fe5b60009182526020909120015460098054600160a060020a039092169183908110612a2457fe5b6000918252602090912001805473ffffffffffffffffffffffffffffffffffffffff1916600160a060020a03929092169190911790556001016129df565b600980546000198101908110612a7457fe5b6000918252602090912001805473ffffffffffffffffffffffffffffffffffffffff191690556009805490612aad9060001983016138d3565b50611806565b60019091019061299e565b604080516002808252606080830184529260009283928392839283929091602083019080388339019050509550866000815181101515612afa57fe5b90602001906020020151866000815181101515612b1357fe5b60209081029091010152865187906001908110612b2c57fe5b90602001906020020151866001815181101515612b4557fe5b60209081029091010152612b5886613253565b60008181526003602052604090206004015490955060ff1615612bc5576040805160e560020a62461bcd02815260206004820152601860248201527f576974686472617720616c72656164792066696e6973682e0000000000000000604482015290519081900360640190fd5b6004546000868152600360205260409020541115612c2d576040805160e560020a62461bcd02815260206004820152601660248201527f4e6f206f766572206368616c6c656e67652074696d6500000000000000000000604482015290519081900360640190fd5b50505060008281526003602081905260409091206001810154600282015491909201549192509080600160a060020a0381161515612ca157604051600160a060020a0385169084156108fc029085906000818181858888f19350505050158015612c9b573d6000803e3d6000fd5b50612d57565b600160a060020a03811660009081526020819052604090205460ff161561231d5780600160a060020a031663a9059cbb85856040518363ffffffff1660e060020a0281526004018083600160a060020a0316600160a060020a0316815260200182815260200192505050602060405180830381600087803b158015612d2557600080fd5b505af1158015612d39573d6000803e3d6000fd5b505050506040513d6020811015612d4f57600080fd5b50612d579050565b600085815260036020908152604091829020600401805460ff1916600117905581518581529081018490528151600160a060020a0387169288927f733a2fbbad52d09b23c64c7210b6598ee1a79fd3614c2052fd6eb9c5604741b0929081900390910190a350505050505050565b604080516008808252610120820190925260009160609183918291906020820161010080388339019050509250866001815181101515612e0157fe5b90602001906020020151836000815181101515612e1a57fe5b60209081029091010152865187906002908110612e3357fe5b90602001906020020151836001815181101515612e4c57fe5b60209081029091010152865187906003908110612e6557fe5b90602001906020020151836002815181101515612e7e57fe5b60209081029091010152865187906004908110612e9757fe5b90602001906020020151836003815181101515612eb057fe5b60209081029091010152865187906005908110612ec957fe5b90602001906020020151836004815181101515612ee257fe5b60209081029091010152865187906006908110612efb57fe5b90602001906020020151836005815181101515612f1457fe5b60209081029091010152865187906007908110612f2d57fe5b90602001906020020151836006815181101515612f4657fe5b60209081029091010152865187906008908110612f5f57fe5b90602001906020020151836007815181101515612f7857fe5b60209081029091010152612f8b83613253565b9150866000815181101515612f9c57fe5b602090810290910101518214612fb55760009350613249565b61300982886009815181101515612fc857fe5b6020908102909101015189518a90600a908110612fe157fe5b906020019060200201518a600b815181101515612ffa57fe5b90602001906020020151613538565b905086600181518110151561301a57fe5b60209081029091010151600160a060020a0316151561306c5786600281518110151561304257fe5b60209081029091010151600160a060020a038281169116146130675760009350613249565b6130a0565b86600181518110151561307b57fe5b60209081029091010151600160a060020a038281169116146130a05760009350613249565b60408051600680825260e08201909252906020820160c08038833950508151919450879185915060009081106130d257fe5b6020908102909101015286518790600c9081106130eb57fe5b9060200190602002015183600181518110151561310457fe5b6020908102909101015286518790600090811061311d57fe5b9060200190602002015183600281518110151561313657fe5b6020908102909101015286518790600d90811061314f57fe5b9060200190602002015183600381518110151561316857fe5b6020908102909101015286518790600e90811061318157fe5b9060200190602002015183600481518110151561319a57fe5b6020908102909101015286518790600f9081106131b357fe5b906020019060200201518360058151811015156131cc57fe5b602090810290910101526131df83613253565b9150613226828860138151811015156131f457fe5b6020908102909101015189518a90601490811061320d57fe5b906020019060200201518a6015815181101515612ffa57fe5b9050600160a060020a03808216908616146132445760009350613249565b600193505b5050509392505050565b6000606060008084511115156132b3576040805160e560020a62461bcd02815260206004820152601460248201527f6861736841727261792e6c656e677468203d2030000000000000000000000000604482015290519081900360640190fd5b6132d48460008151811015156132c557fe5b9060200190602002015161369b565b6040516020018082805190602001908083835b602083106133065780518252601f1990920191602091820191016132e7565b6001836020036101000a0380198251168184511680821785525050505050509050019150506040516020818303038152906040529150600190505b83518110156133d4576133ca8261335f86848151811015156132c557fe5b6040516020018082805190602001908083835b602083106133915780518252601f199092019160209182019101613372565b6001836020036101000a038019825116818451168082178552505050505050905001915050604051602081830303815290604052613798565b9150600101613341565b816040518082805190602001908083835b602083106134045780518252601f1990920191602091820191016133e5565b5181516020939093036101000a60001901801990911692169190911790526040519201829003909120979650505050505050565b60008061349884600081518110151561344d57fe5b9060200190602002015185600981518110151561346657fe5b6020908102909101015186518790600a90811061347f57fe5b9060200190602002015187600b815181101515612ffa57fe5b6020840151909150600160a060020a038083169116146134bb5760009150610b20565b60408301518451859060049081106134cf57fe5b60209081029091010151146134e75760009150610b20565b60608301518451859060039081106134fb57fe5b6020908102909101015114610b1b5760009150610b20565b8181018281101561352057fe5b92915050565b60008282111561353257fe5b50900390565b604080518082018252601c8082527f19457468657265756d205369676e6564204d6573736167653a0a333200000000602080840191825293516000948593849386938c9301918291908083835b602083106135a45780518252601f199092019160209182019101613585565b51815160209384036101000a600019018019909216911617905292019384525060408051808503815293820190819052835193945092839250908401908083835b602083106136045780518252601f1990920191602091820191016135e5565b51815160209384036101000a600019018019909216911617905260408051929094018290038220600080845283830180875282905260ff8f1684870152606084018e9052608084018d905294519098506001965060a080840196509194601f19820194509281900390910191865af1158015613684573d6000803e3d6000fd5b5050604051601f1901519998505050505050505050565b60408051818152606080820183529182916000918291906020820161080080388339019050509250600091505b602082101561378f57506008810260020a84026136ed601060f860020a83040461380f565b83518490600285029081106136fe57fe5b9060200101907effffffffffffffffffffffffffffffffffffffffffffffffffffffffffffff1916908160001a905350613740601060f860020a83040661380f565b838360020260010181518110151561375457fe5b9060200101907effffffffffffffffffffffffffffffffffffffffffffffffffffffffffffff1916908160001a9053506001909101906136c8565b50909392505050565b815181516040518183018082526060939290916020601f8086018290049301049060005b838110156137d8576001016020810289810151908301526137bc565b5060005b828110156137fa5760010160208102888101519087018301526137dc565b50928301602001604052509095945050505050565b6000600a82101561382a575060f860020a6030820102610a26565b6010821015613843575060f860020a6057820102610a26565b6040805160e560020a62461bcd02815260206004820152601160248201527f75696e74546f4173636969206661696c2e000000000000000000000000000000604482015290519081900360640190fd5b82600281019282156138c3579160200282015b828111156138c357825182556020909201916001909101906138a6565b506138cf9291506138f3565b5090565b815481835581811115611806576000838152602090206118069181019083015b610b2b91905b808211156138cf57600081556001016138f95600a165627a7a72305820d11278072ee9c986aa02cff64c9fe1ded8f673719c5d0a37ebe7b2db78f28f7c0029",
  "source": "pragma solidity ^0.4.23;\n\nimport \"./Util.sol\";\nimport \"./EIP20/SafeMath.sol\";\n\ncontract Token {\n    function transfer(address _to, uint256 _value) public returns (bool success);\n    function transferFrom(address _from, address _to, uint256 _value) public returns (bool success);\n}\n\ncontract Booster {\n    using SafeMath for uint256;\n    mapping (address => bool) public assetAddresses;\n    mapping (uint256 => Util.Stage) public stages;\n    mapping (bytes32 => Util.Log) public depositLogs;\n    mapping (bytes32 => Util.Log) public withdrawalLogs;\n\n    uint256 public stageHeight;\n    uint256 public instantWithdrawMaximum;\n    uint256 public depositSequenceNumber;\n    address public owner;\n    address public managerAddress;\n    address[] public assetAddressesArray;\n\n    event ProposeDeposit (\n        bytes32 indexed _dsn,\n        bytes32 indexed _client,\n        bytes32 _value,\n        bytes32 _assetID\n    );\n\n    event VerifyReceipt (\n        uint256 indexed _type, // { 0: deposit, 1: proposeWithdrawal, 2: instantWithdrawal }\n        bytes32 _gsn,\n        bytes32 _lightTxHash,\n        bytes32 _fromBalance,\n        bytes32 _toBalance,\n        bytes32[3] _sigLightTx,\n        bytes32[3] _sigReceipt\n    );\n\n    event Withdraw (\n        bytes32 indexed _wsn,\n        bytes32 indexed _client,\n        bytes32 _value,\n        bytes32 _assetID\n    );\n\n    event Attach (\n        bytes32 _stageHeight,\n        bytes32 _receiptRootHash,\n        bytes32 _accountRootHash\n    );\n\n    event Challenge (\n        uint256 indexed _challengedType, // { type: 1 - 4, 1: repeatedGSN 2: wrongBalance 3: skippedGSN 4: existProof }\n        bytes32 _client,\n        bytes32 _lightTxHash\n    );\n\n    modifier onlyOwner () {\n        if (msg.sender == owner) _;\n    }\n\n    constructor (\n        address _boosterOwner,\n        address[] _assetAddresses,\n        uint256 _instantWithdrawMaximum\n    ) public {\n        managerAddress = msg.sender;\n        owner = _boosterOwner;\n        instantWithdrawMaximum = _instantWithdrawMaximum;\n        stages[stageHeight].data = \"genisis stage\";\n\n        for (uint i = 0; i < _assetAddresses.length; i++) {\n            if (assetAddresses[_assetAddresses[i]] == false) {\n                assetAddresses[_assetAddresses[i]] = true;\n                assetAddressesArray.push(_assetAddresses[i]);\n            }\n        }\n    }\n\n    function setAssetAddress(address asAddress) public onlyOwner {\n        if (assetAddresses[asAddress] == false) {\n            assetAddresses[asAddress] = true;\n            assetAddressesArray.push(asAddress);\n        }\n    }\n\n    function unsetAssetAddress(address asAddress) public onlyOwner {\n        if (assetAddresses[asAddress] == true) {\n            assetAddresses[asAddress] = false;\n            // remove asset address from assetAddressesArray\n            for (uint i = 0; i < assetAddressesArray.length; i++) {\n                if (assetAddressesArray[i] == asAddress) {\n                    for (uint j = i; j < assetAddressesArray.length - 1; j++){\n                        assetAddressesArray[j] = assetAddressesArray[j + 1];\n                    }\n                    delete assetAddressesArray[assetAddressesArray.length - 1];\n                    assetAddressesArray.length--;\n                    break;\n                }\n            }\n        }\n    }\n\n    function getAssetAddressesLength() public view returns (uint256) {\n        return assetAddressesArray.length;\n    }\n\n    function proposeTokenDeposit (bytes32[] _parameter) public {\n        /*\n        _parameter[0] = client\n        _parameter[1] = value\n        _parameter[2] = assetID\n        */\n\n        address assetAddress = address(_parameter[2]);\n        require(assetAddresses[assetAddress] != false, \"Asset address invalid.\");\n        address client = address(_parameter[0]);\n        uint256 value = uint256(_parameter[1]);\n        require(Token(assetAddress).transferFrom(client, this, value), \"Approve failed.\");\n        writeDepositLog(_parameter);\n    }\n\n    function deposit (bytes32[] _parameter) public onlyOwner {\n        bytes32 dsn = bytes32(_parameter[7]);\n        require(Util.isLogValid(_parameter, depositLogs[dsn]), \"Wrong deposit log.\");\n        require(Util.isSigValid(_parameter, stageHeight + 1, owner), \"Wrong sig.\");\n        depositLogs[_parameter[7]].flag = true;\n\n        emit VerifyReceipt (\n            0,\n            _parameter[12],\n            _parameter[0],\n            _parameter[13],\n            _parameter[14],\n            [\n                _parameter[16],\n                _parameter[17],\n                _parameter[18]\n            ],\n            [\n                _parameter[19],\n                _parameter[20],\n                _parameter[21]\n            ]);\n    }\n\n    function proposeWithdrawal (bytes32[] _parameter) public {\n        require(Util.isSigValid(_parameter, stageHeight + 1, owner), \"Wrong sig.\");\n        /*\n        wsn = concat(from + nonce)\n        */\n        bytes32[] memory bytes32Array = new bytes32[](2);\n        bytes32Array[0] = _parameter[1]; // from\n        bytes32Array[1] = _parameter[6]; // nonce\n        bytes32 wsn = Util.hashArray(bytes32Array);\n\n        withdrawalLogs[wsn].stage = bytes32(stageHeight + 1);\n        withdrawalLogs[wsn].client = _parameter[1];\n        withdrawalLogs[wsn].value = _parameter[4];\n        withdrawalLogs[wsn].assetID = _parameter[3];\n\n        emit VerifyReceipt (\n            1,\n            _parameter[12],\n            _parameter[0],\n            _parameter[13],\n            _parameter[14],\n            [\n                _parameter[16],\n                _parameter[17],\n                _parameter[18]\n            ],\n            [\n                _parameter[19],\n                _parameter[20],\n                _parameter[21]\n            ]);\n    }\n\n    function withdraw (bytes32[] _parameter) public {\n        /*\n        _parameter[0] = from\n        _parameter[1] = nonce\n        */\n        // flag = false\n        bytes32[] memory bytes32Array = new bytes32[](2);\n        bytes32Array[0] = _parameter[0];\n        bytes32Array[1] = _parameter[1];\n        bytes32 wsn = Util.hashArray(bytes32Array);\n        require(withdrawalLogs[wsn].flag == false, \"Withdraw already finish.\");\n        // over challenge time\n        require (uint256(withdrawalLogs[wsn].stage) <= stageHeight, \"No over challenge time\");\n        address client = address(withdrawalLogs[wsn].client);\n        uint256 value = uint256(withdrawalLogs[wsn].value);\n        bytes32 assetID = bytes32(withdrawalLogs[wsn].assetID);\n        address assetAddress = address(assetID);\n        if (assetAddress == address(0)) {\n            client.transfer(value);\n        } else if (assetAddresses[assetAddress] != false) {\n            Token(assetAddress).transfer(client, value);\n        } else {\n            revert(\"Asset address invalid.\");\n        }\n        withdrawalLogs[wsn].flag = true;\n        emit Withdraw (wsn, bytes32(client), bytes32(value), assetID);\n    }\n\n    function instantWithdraw (bytes32[] _parameter) public {\n        require(Util.isSigValid(_parameter, stageHeight + 1, owner), \"Wrong sig.\");\n        // instantWithdraw condition\n        require (uint256(_parameter[4]) <= instantWithdrawMaximum, \"Withdraw value more than instant withdraw maximum.\");\n        /*\n        wsn = concat(from + nonce)\n        */\n        bytes32[] memory bytes32Array = new bytes32[](2);\n        bytes32Array[0] = _parameter[1]; // from\n        bytes32Array[1] = _parameter[6]; // nonce\n        bytes32 wsn = Util.hashArray(bytes32Array);\n\n        require(withdrawalLogs[wsn].flag == false, \"Withdraw already finish.\");\n        withdrawalLogs[wsn].stage = bytes32(stageHeight + 1);\n        withdrawalLogs[wsn].client = _parameter[1];\n        withdrawalLogs[wsn].value = _parameter[4];\n        withdrawalLogs[wsn].assetID = _parameter[3];\n        withdrawalLogs[wsn].flag = true;\n\n        address client = address(_parameter[1]);\n        uint256 value = uint256(_parameter[4]);\n        address assetAddress = address(_parameter[3]);\n        if (assetAddress == address(0)) {\n            client.transfer(value);\n        } else if (assetAddresses[assetAddress] != false) {\n            Token(assetAddress).transfer(client, value);\n        } else {\n            revert(\"Asset address invalid.\");\n        }\n        emit VerifyReceipt (\n            2,\n            _parameter[12],\n            _parameter[0],\n            _parameter[13],\n            _parameter[14],\n            [\n                _parameter[16],\n                _parameter[17],\n                _parameter[18]\n            ],\n            [\n                _parameter[19],\n                _parameter[20],\n                _parameter[21]\n            ]);\n    }\n\n    function () public payable {\n        /*\n        called delegateToLib to 'proposeDeposit(bytes32[])'\n        gas used : 127075\n        gad used : 106627\n        suggested gas : 150000\n        */\n        bytes32[] memory bytes32Array = new bytes32[](3);\n        bytes32Array[0] = bytes32(msg.sender);\n        bytes32Array[1] = bytes32(msg.value);\n        bytes32Array[2] = bytes32(0);\n        writeDepositLog(bytes32Array);\n    }\n\n    function tokenFallback(address _from, uint _value) public returns (bool success) {\n        if(assetAddresses[msg.sender] == false) {\n            revert(\"Asset address invalid.\");\n        } else {\n            bytes32[] memory bytes32Array = new bytes32[](3);\n            bytes32Array[0] = bytes32(_from);\n            bytes32Array[1] = bytes32(_value);\n            bytes32Array[2] = bytes32(msg.sender);\n            writeDepositLog(bytes32Array);\n            return true;\n        }\n    }\n\n    function writeDepositLog (bytes32[] _parameter) private {\n        /*\n        _parameter[0] = client\n        _parameter[1] = value\n        _parameter[2] = assetID\n        */\n\n        bytes32 dsn = bytes32(depositSequenceNumber);\n        depositLogs[dsn].stage = bytes32(stageHeight + 1);\n        depositLogs[dsn].client = _parameter[0];\n        depositLogs[dsn].value = _parameter[1];\n        depositLogs[dsn].assetID = _parameter[2];\n        depositSequenceNumber++;\n        emit ProposeDeposit (dsn, _parameter[0], _parameter[1], _parameter[2]);\n    }\n\n    function attach (bytes32[] _parameter) public onlyOwner {\n        /*\n        _parameter[0] = _receiptRootHash\n        _parameter[1] = _accountRootHash\n        _parameter[2] = _data\n        */\n        stageHeight++;\n        stages[stageHeight].receiptRootHash = _parameter[0];\n        stages[stageHeight].accountRootHash = _parameter[1];\n        stages[stageHeight].data = _parameter[2];\n        emit Attach (bytes32(stageHeight), _parameter[0], _parameter[1]);\n    }\n    \n    function challengedRepeatedGSN (bytes32[] _receipt, bytes32[] _receipt2) public {\n        require(Util.isSigValid(_receipt, stageHeight, owner), \"Receipt1 is invalid.\");\n        require(Util.isSigValid(_receipt2, stageHeight, owner), \"Receipt2 is invalid.\");\n        require (uint256(_receipt[12]) == uint256(_receipt2[12]), \"No repeat gsn.\"); // compare gsn\n        stages[stageHeight].challengedRepeatedGSNList[_receipt2[12]] = Util.ChallengedInfo(\n            bytes32(msg.sender), [_receipt[12], _receipt2[12]], true, false);\n        stages[stageHeight].challengedGsn.push(_receipt2[12]);\n        emit Challenge (1, bytes32(msg.sender), _receipt2[12]);\n    }\n\n    function challengedWrongBalance (bytes32[] _receipt, bytes32[] _receipt2) public {\n        require(Util.isSigValid(_receipt, stageHeight, owner), \"Receipt1 is invalid.\");\n        require(Util.isSigValid(_receipt2, stageHeight, owner), \"Receipt2 is invalid.\");\n        bool flag = false;\n        if (address(_receipt2[1]) == address(_receipt[1])) { // from = from\n            if ((uint256(_receipt2[13]).add(uint256(_receipt2[4]))) != uint256(_receipt[13])) {\n                flag = true;\n            }\n        } else if (address(_receipt2[1]) == address(_receipt[2])) { // from = to\n            if ((uint256(_receipt2[13]).add(uint256(_receipt2[4]))) != uint256(_receipt[14])) {\n                flag = true;\n            }\n        } else if (address(_receipt2[2]) == address(_receipt[1])) { // to = from\n            if ((uint256(_receipt2[13]).sub(uint256(_receipt2[4]))) != uint256(_receipt[13])) {\n                flag = true;\n            }\n        } else if (address(_receipt2[2]) == address(_receipt[2])) { // to = to\n            if ((uint256(_receipt2[13]).sub(uint256(_receipt2[4]))) != uint256(_receipt[14])) {\n                flag = true;\n            }\n        } else {\n            revert(\"Receipts error.\");\n        }\n        if (flag) {\n            stages[stageHeight].challengedWrongBalanceList[_receipt2[12]] = Util.ChallengedInfo(\n            bytes32(msg.sender), [_receipt[12], _receipt2[12]], true, false);\n            stages[stageHeight].challengedGsn.push(_receipt2[12]);\n            emit Challenge (2, bytes32(msg.sender), _receipt2[12]);\n        }\n    }\n\n    function challengedSkippedGSN (bytes32[] _receipt, bytes32[] _receipt2) public {\n        require(Util.isSigValid(_receipt, stageHeight, owner), \"Receipt1 is invalid.\");\n        require(Util.isSigValid(_receipt2, stageHeight, owner), \"Receipt2 is invalid.\");\n        require (uint256(_receipt2[12]).sub(uint256(_receipt[12])) != 1, \"No skip gsn.\");\n        stages[stageHeight].challengedSkippedGSNList[_receipt2[12]] = Util.ChallengedInfo(\n            bytes32(msg.sender), [_receipt[12], _receipt2[12]], true, false);\n        stages[stageHeight].challengedGsn.push(_receipt2[12]);\n        emit Challenge (3, bytes32(msg.sender), _receipt2[12]);\n    }\n\n    // function challengedExistedProof (bytes32[] _parameter) public {\n    //     require(Util.isSigValid(_parameter, stageHeight, owner), \"Receipt is invalid.\");\n    //     stages[uint256(_parameter[35])].challengedExistedProofList[_parameter[13]] = Util.ChallengedInfo(bytes32(msg.sender), [_parameter[13], 0x0], true, false);\n    //     stages[uint256(_parameter[12])].challengedGsn.push(_parameter[13]);\n    //     emit Challenge (4, bytes32(msg.sender), _parameter[13]);\n    // }\n\n    function getChallengedHash (bytes32[] _parameter) public view returns (bytes32) {\n        /*\n        parameter[0] = _stageHeight,\n        parameter[1] = _challengeNumber\n        */\n        return stages[uint256(_parameter[0])].challengedGsn[uint256(_parameter[1])];\n    }\n\n    function getChallengedRepeatedGSNListInfo (bytes32[] _parameter) public view returns (bytes32, bytes32, bytes32, bool, bool) {\n        /*\n        parameter[0] = _stageHeight,\n        parameter[1] = _lightTxHash\n        */\n        return (stages[uint256(_parameter[0])].challengedRepeatedGSNList[_parameter[1]].client,\n        stages[uint256(_parameter[0])].challengedRepeatedGSNList[_parameter[1]].gsn[0],\n        stages[uint256(_parameter[0])].challengedRepeatedGSNList[_parameter[1]].gsn[1],\n        stages[uint256(_parameter[0])].challengedRepeatedGSNList[_parameter[1]].challengedState,\n        stages[uint256(_parameter[0])].challengedRepeatedGSNList[_parameter[1]].getCompensation);\n    }\n}\n",
  "sourcePath": "/Users/ming.hsu/Desktop/TideiSun/IFC/contracts/contracts/Booster.sol",
  "compiler": {
    "name": "solc",
    "version": "0.4.24+commit.e67f0147.Emscripten.clang"
  },
  "schemaVersion": "2.0.1",
  "updatedAt": "2018-09-07T06:52:35.775Z"
}