{
  "contractName": "Booster",
  "abi": [
    {
      "constant": true,
      "inputs": [
        {
          "name": "",
          "type": "bytes32"
        }
      ],
      "name": "depositLogs",
      "outputs": [
        {
          "name": "stage",
          "type": "bytes32"
        },
        {
          "name": "client",
          "type": "bytes32"
        },
        {
          "name": "value",
          "type": "bytes32"
        },
        {
          "name": "assetID",
          "type": "bytes32"
        },
        {
          "name": "flag",
          "type": "bool"
        }
      ],
      "payable": false,
      "stateMutability": "view",
      "type": "function"
    },
    {
      "constant": true,
      "inputs": [
        {
          "name": "",
          "type": "address"
        }
      ],
      "name": "assetAddresses",
      "outputs": [
        {
          "name": "",
          "type": "bool"
        }
      ],
      "payable": false,
      "stateMutability": "view",
      "type": "function"
    },
    {
      "constant": true,
      "inputs": [
        {
          "name": "",
          "type": "uint256"
        }
      ],
      "name": "assetAddressesArray",
      "outputs": [
        {
          "name": "",
          "type": "address"
        }
      ],
      "payable": false,
      "stateMutability": "view",
      "type": "function"
    },
    {
      "constant": true,
      "inputs": [],
      "name": "defendLibAddress",
      "outputs": [
        {
          "name": "",
          "type": "address"
        }
      ],
      "payable": false,
      "stateMutability": "view",
      "type": "function"
    },
    {
      "constant": true,
      "inputs": [],
      "name": "challengedLibAddress",
      "outputs": [
        {
          "name": "",
          "type": "address"
        }
      ],
      "payable": false,
      "stateMutability": "view",
      "type": "function"
    },
    {
      "constant": true,
      "inputs": [
        {
          "name": "",
          "type": "bytes32"
        }
      ],
      "name": "withdrawalLogs",
      "outputs": [
        {
          "name": "stage",
          "type": "bytes32"
        },
        {
          "name": "client",
          "type": "bytes32"
        },
        {
          "name": "value",
          "type": "bytes32"
        },
        {
          "name": "assetID",
          "type": "bytes32"
        },
        {
          "name": "flag",
          "type": "bool"
        }
      ],
      "payable": false,
      "stateMutability": "view",
      "type": "function"
    },
    {
      "constant": true,
      "inputs": [
        {
          "name": "",
          "type": "uint256"
        }
      ],
      "name": "stages",
      "outputs": [
        {
          "name": "receiptRootHash",
          "type": "bytes32"
        },
        {
          "name": "accountRootHash",
          "type": "bytes32"
        },
        {
          "name": "data",
          "type": "bytes32"
        }
      ],
      "payable": false,
      "stateMutability": "view",
      "type": "function"
    },
    {
      "constant": true,
      "inputs": [],
      "name": "owner",
      "outputs": [
        {
          "name": "",
          "type": "address"
        }
      ],
      "payable": false,
      "stateMutability": "view",
      "type": "function"
    },
    {
      "constant": true,
      "inputs": [],
      "name": "instantWithdrawMaximum",
      "outputs": [
        {
          "name": "",
          "type": "uint256"
        }
      ],
      "payable": false,
      "stateMutability": "view",
      "type": "function"
    },
    {
      "constant": true,
      "inputs": [],
      "name": "utilAddress",
      "outputs": [
        {
          "name": "",
          "type": "address"
        }
      ],
      "payable": false,
      "stateMutability": "view",
      "type": "function"
    },
    {
      "constant": true,
      "inputs": [],
      "name": "depositSequenceNumber",
      "outputs": [
        {
          "name": "",
          "type": "uint256"
        }
      ],
      "payable": false,
      "stateMutability": "view",
      "type": "function"
    },
    {
      "constant": true,
      "inputs": [],
      "name": "managerAddress",
      "outputs": [
        {
          "name": "",
          "type": "address"
        }
      ],
      "payable": false,
      "stateMutability": "view",
      "type": "function"
    },
    {
      "constant": true,
      "inputs": [],
      "name": "stageHeight",
      "outputs": [
        {
          "name": "",
          "type": "uint256"
        }
      ],
      "payable": false,
      "stateMutability": "view",
      "type": "function"
    },
    {
      "constant": true,
      "inputs": [],
      "name": "cryptoFlowLibAddress",
      "outputs": [
        {
          "name": "",
          "type": "address"
        }
      ],
      "payable": false,
      "stateMutability": "view",
      "type": "function"
    },
    {
      "inputs": [
        {
          "name": "_boosterOwner",
          "type": "address"
        },
        {
          "name": "_utilAddress",
          "type": "address"
        },
        {
          "name": "_cryptoFlowLibAddress",
          "type": "address"
        },
        {
          "name": "_challengedLibAddress",
          "type": "address"
        },
        {
          "name": "_defendLibAddress",
          "type": "address"
        },
        {
          "name": "_assetAddresses",
          "type": "address[]"
        },
        {
          "name": "_instantWithdrawMaximum",
          "type": "uint256"
        }
      ],
      "payable": false,
      "stateMutability": "nonpayable",
      "type": "constructor"
    },
    {
      "payable": true,
      "stateMutability": "payable",
      "type": "fallback"
    },
    {
      "anonymous": false,
      "inputs": [
        {
          "indexed": true,
          "name": "_dsn",
          "type": "bytes32"
        },
        {
          "indexed": true,
          "name": "_client",
          "type": "bytes32"
        },
        {
          "indexed": false,
          "name": "_value",
          "type": "bytes32"
        },
        {
          "indexed": false,
          "name": "_assetID",
          "type": "bytes32"
        }
      ],
      "name": "ProposeDeposit",
      "type": "event"
    },
    {
      "anonymous": false,
      "inputs": [
        {
          "indexed": true,
          "name": "_type",
          "type": "uint256"
        },
        {
          "indexed": false,
          "name": "_gsn",
          "type": "bytes32"
        },
        {
          "indexed": false,
          "name": "_lightTxHash",
          "type": "bytes32"
        },
        {
          "indexed": false,
          "name": "_fromBalance",
          "type": "bytes32"
        },
        {
          "indexed": false,
          "name": "_toBalance",
          "type": "bytes32"
        },
        {
          "indexed": false,
          "name": "_sigLightTx",
          "type": "bytes32[3]"
        },
        {
          "indexed": false,
          "name": "_sigReceipt",
          "type": "bytes32[3]"
        }
      ],
      "name": "VerifyReceipt",
      "type": "event"
    },
    {
      "anonymous": false,
      "inputs": [
        {
          "indexed": true,
          "name": "_wsn",
          "type": "bytes32"
        },
        {
          "indexed": true,
          "name": "_client",
          "type": "bytes32"
        },
        {
          "indexed": false,
          "name": "_value",
          "type": "bytes32"
        },
        {
          "indexed": false,
          "name": "_assetID",
          "type": "bytes32"
        }
      ],
      "name": "Withdraw",
      "type": "event"
    },
    {
      "anonymous": false,
      "inputs": [
        {
          "indexed": false,
          "name": "_stageHeight",
          "type": "bytes32"
        },
        {
          "indexed": false,
          "name": "_receiptRootHash",
          "type": "bytes32"
        },
        {
          "indexed": false,
          "name": "_accountRootHash",
          "type": "bytes32"
        }
      ],
      "name": "Attach",
      "type": "event"
    },
    {
      "anonymous": false,
      "inputs": [
        {
          "indexed": true,
          "name": "_challengedType",
          "type": "uint256"
        },
        {
          "indexed": false,
          "name": "_client",
          "type": "bytes32"
        },
        {
          "indexed": false,
          "name": "_lightTxHash",
          "type": "bytes32"
        }
      ],
      "name": "Challenge",
      "type": "event"
    },
    {
      "anonymous": false,
      "inputs": [
        {
          "indexed": false,
          "name": "_lightTxHash",
          "type": "bytes32"
        },
        {
          "indexed": false,
          "name": "_challengeState",
          "type": "bool"
        }
      ],
      "name": "Defend",
      "type": "event"
    },
    {
      "constant": false,
      "inputs": [
        {
          "name": "_signature",
          "type": "bytes4"
        },
        {
          "name": "_parameter",
          "type": "bytes32[]"
        }
      ],
      "name": "delegateToCryptoFlowLib",
      "outputs": [],
      "payable": true,
      "stateMutability": "payable",
      "type": "function"
    },
    {
      "constant": false,
      "inputs": [
        {
          "name": "_signature",
          "type": "bytes4"
        },
        {
          "name": "_parameter",
          "type": "bytes32[]"
        }
      ],
      "name": "delegateToChallengedLib",
      "outputs": [],
      "payable": false,
      "stateMutability": "nonpayable",
      "type": "function"
    },
    {
      "constant": false,
      "inputs": [
        {
          "name": "_signature",
          "type": "bytes4"
        },
        {
          "name": "_parameter",
          "type": "bytes32[]"
        }
      ],
      "name": "delegateToDefendLib",
      "outputs": [],
      "payable": false,
      "stateMutability": "nonpayable",
      "type": "function"
    },
    {
      "constant": false,
      "inputs": [
        {
          "name": "asAddress",
          "type": "address"
        }
      ],
      "name": "setAssetAddress",
      "outputs": [],
      "payable": false,
      "stateMutability": "nonpayable",
      "type": "function"
    },
    {
      "constant": true,
      "inputs": [],
      "name": "getAssetAddressesLength",
      "outputs": [
        {
          "name": "",
          "type": "uint256"
        }
      ],
      "payable": false,
      "stateMutability": "view",
      "type": "function"
    },
    {
      "constant": false,
      "inputs": [
        {
          "name": "_from",
          "type": "address"
        },
        {
          "name": "_value",
          "type": "uint256"
        }
      ],
      "name": "tokenFallback",
      "outputs": [
        {
          "name": "success",
          "type": "bool"
        }
      ],
      "payable": false,
      "stateMutability": "nonpayable",
      "type": "function"
    },
    {
      "constant": true,
      "inputs": [
        {
          "name": "_parameter",
          "type": "bytes32[]"
        }
      ],
      "name": "getChallengedHash",
      "outputs": [
        {
          "name": "",
          "type": "bytes32"
        }
      ],
      "payable": false,
      "stateMutability": "view",
      "type": "function"
    },
    {
      "constant": true,
      "inputs": [
        {
          "name": "_parameter",
          "type": "bytes32[]"
        }
      ],
      "name": "getChallengedRepeatedGSNListInfo",
      "outputs": [
        {
          "name": "",
          "type": "address"
        },
        {
          "name": "",
          "type": "bytes32"
        },
        {
          "name": "",
          "type": "bytes32"
        },
        {
          "name": "",
          "type": "bool"
        },
        {
          "name": "",
          "type": "bool"
        }
      ],
      "payable": false,
      "stateMutability": "view",
      "type": "function"
    },
    {
      "constant": true,
      "inputs": [
        {
          "name": "_parameter",
          "type": "bytes32[]"
        }
      ],
      "name": "getChallengedWrongBalanceListInfo",
      "outputs": [
        {
          "name": "",
          "type": "address"
        },
        {
          "name": "",
          "type": "bytes32"
        },
        {
          "name": "",
          "type": "bytes32"
        },
        {
          "name": "",
          "type": "bool"
        },
        {
          "name": "",
          "type": "bool"
        }
      ],
      "payable": false,
      "stateMutability": "view",
      "type": "function"
    },
    {
      "constant": true,
      "inputs": [
        {
          "name": "_parameter",
          "type": "bytes32[]"
        }
      ],
      "name": "getChallengedSkippedGSNListInfo",
      "outputs": [
        {
          "name": "",
          "type": "address"
        },
        {
          "name": "",
          "type": "bytes32"
        },
        {
          "name": "",
          "type": "bytes32"
        },
        {
          "name": "",
          "type": "bool"
        },
        {
          "name": "",
          "type": "bool"
        }
      ],
      "payable": false,
      "stateMutability": "view",
      "type": "function"
    },
    {
      "constant": true,
      "inputs": [
        {
          "name": "_parameter",
          "type": "bytes32[]"
        }
      ],
      "name": "getChallengedExistedProofListInfo",
      "outputs": [
        {
          "name": "",
          "type": "address"
        },
        {
          "name": "",
          "type": "bytes32"
        },
        {
          "name": "",
          "type": "bytes32"
        },
        {
          "name": "",
          "type": "bool"
        },
        {
          "name": "",
          "type": "bool"
        }
      ],
      "payable": false,
      "stateMutability": "view",
      "type": "function"
    }
  ],
  "bytecode": "0x608060405234801561001057600080fd5b506040516115953803806115958339810160409081528151602080840151838501516060860151608087015160a088015160c08901516009805433600160a060020a031991821617909155600780548216600160a060020a03808c1691909117909155600880548316828a16179055600a80548316828916179055600b80548316828816179055600c80549092169085161790556005819055600454600090815260019097529786207f67656e697369732073746167650000000000000000000000000000000000000060029190910155959793969295919490939190910191905b82518110156101d257600080848381518110151561010c57fe5b6020908102909101810151600160a060020a031682528101919091526040016000205460ff1615156101ca576001600080858481518110151561014b57fe5b602090810291909101810151600160a060020a03168252810191909152604001600020805460ff19169115159190911790558251600d9084908390811061018e57fe5b6020908102919091018101518254600181018455600093845291909220018054600160a060020a031916600160a060020a039092169190911790555b6001016100f2565b50505050505050506113ac806101e96000396000f30060806040526004361061012d5763ffffffff60e060020a60003504166277d61d81146101ce578062f817d61461023c578063098bbb6214610281578063130ee4ad146102b657806320b877e8146102ea5780632e89a058146102ff578063361992ca1461038d57806337674505146103a25780633b66d02b146104095780633f8abf741461042d5780636cdcf15014610442578063770e09fd1461045a5780637b2cf9a31461047b578063845ddcb2146104f457806388890c811461052a5780638da5cb5b1461057f57806390c8a3a1146105945780639604ad46146105a9578063c20f17a7146105be578063cc6e7a1414610613578063cf73a1bc14610628578063d5dd9ddb1461063d578063f418eae4146106b6578063f5ab6b25146106cb578063f950c6a6146106e0575b60408051600380825260808201909252606091602082018380388339505081519192503391839150600090811061016057fe5b60209081029091010152805134908290600190811061017b57fe5b6020908102909101015280516000908290600290811061019757fe5b602090810290910101526101cb7fdcf12aba0000000000000000000000000000000000000000000000000000000082610735565b50005b60408051602060046024803582810135848102808701860190975280865261023a9684357bffffffffffffffffffffffffffffffffffffffffffffffffffffffff1916963696604495919490910192918291850190849080828437509497506107359650505050505050565b005b34801561024857600080fd5b506102546004356107d7565b60408051958652602086019490945284840192909252606084015215156080830152519081900360a00190f35b34801561028d57600080fd5b506102a2600160a060020a0360043516610809565b604080519115158252519081900360200190f35b3480156102c257600080fd5b506102ce60043561081e565b60408051600160a060020a039092168252519081900360200190f35b3480156102f657600080fd5b506102ce610846565b34801561030b57600080fd5b5060408051602060048035808201358381028086018501909652808552610354953695939460249493850192918291850190849080828437509497506108559650505050505050565b60408051600160a060020a0390961686526020860194909452848401929092521515606084015215156080830152519081900360a00190f35b34801561039957600080fd5b506102ce610a6d565b3480156103ae57600080fd5b50604080516020600480358082013583810280860185019096528085526103f795369593946024949385019291829185019084908082843750949750610a7c9650505050505050565b60408051918252519081900360200190f35b34801561041557600080fd5b506102a2600160a060020a0360043516602435610ae5565b34801561043957600080fd5b506103f7610bb5565b34801561044e57600080fd5b50610254600435610bbb565b34801561046657600080fd5b5061023a600160a060020a0360043516610bee565b34801561048757600080fd5b5060408051602060046024803582810135848102808701860190975280865261023a9684357bffffffffffffffffffffffffffffffffffffffffffffffffffffffff191696369660449591949091019291829185019084908082843750949750610c869650505050505050565b34801561050057600080fd5b5061050c600435610cfc565b60408051938452602084019290925282820152519081900360600190f35b34801561053657600080fd5b506040805160206004803580820135838102808601850190965280855261035495369593946024949385019291829185019084908082843750949750610d1c9650505050505050565b34801561058b57600080fd5b506102ce610efc565b3480156105a057600080fd5b506103f7610f0b565b3480156105b557600080fd5b506102ce610f11565b3480156105ca57600080fd5b506040805160206004803580820135838102808601850190965280855261035495369593946024949385019291829185019084908082843750949750610f209650505050505050565b34801561061f57600080fd5b506103f7611100565b34801561063457600080fd5b506102ce611106565b34801561064957600080fd5b5060408051602060046024803582810135848102808701860190975280865261023a9684357bffffffffffffffffffffffffffffffffffffffffffffffffffffffff1916963696604495919490910192918291850190849080828437509497506111159650505050505050565b3480156106c257600080fd5b506103f761118b565b3480156106d757600080fd5b506102ce611191565b3480156106ec57600080fd5b5060408051602060048035808201358381028086018501909652808552610354953695939460249493850192918291850190849080828437509497506111a09650505050505050565b600a60009054906101000a9004600160a060020a0316600160a060020a03168260e060020a900460208351846040518463ffffffff1660e060020a02815260040180848152602001838152602001828051906020019060200280838360005b838110156107ac578181015183820152602001610794565b505050509050019350505050600060405180830381865af49250505015156107d357600080fd5b5050565b600260208190526000918252604090912080546001820154928201546003830154600490930154919392909160ff1685565b60006020819052908152604090205460ff1681565b600d80548290811061082c57fe5b600091825260209091200154600160a060020a0316905081565b600c54600160a060020a031681565b60008060008060006001600087600081518110151561087057fe5b9060200190602002015160019004815260200190815260200160002060060160008760018151811015156108a057fe5b602090810290910181015182528101919091526040016000908120548751600160a060020a03909116916001918990829081106108d957fe5b90602001906020020151600190048152602001908152602001600020600601600088600181518110151561090957fe5b60209081029091018101518252810191909152604001600090812060010101546001600089600081518110151561093c57fe5b90602001906020020151600190048152602001908152602001600020600601600089600181518110151561096c57fe5b6020908102909101810151825281019190915260400160002060019081010154600160008a600081518110151561099f57fe5b9060200190602002015160019004815260200190815260200160002060060160008a60018151811015156109cf57fe5b602090810290910181015182528101919091526040016000908120600301548a5160ff909116916001918c9082908110610a0557fe5b9060200190602002015160019004815260200190815260200160002060060160008b6001815181101515610a3557fe5b602090810291909101810151825281019190915260400160002060030154939a929950909750955061010090910460ff169350915050565b600b54600160a060020a031681565b600060016000836000815181101515610a9157fe5b90602001906020020151600190048152602001908152602001600020600701826001815181101515610abf57fe5b6020908102909101015181548110610ad357fe5b90600052602060002001549050919050565b3360009081526020819052604081205460609060ff161515610b0657600080fd5b6040805160038082526080820190925290602082016060803883395050815191925050600160a060020a0385169082906000908110610b4157fe5b602090810290910101528051839082906001908110610b5c57fe5b602090810290910101528051339082906002908110610b7757fe5b60209081029091010152610bab7fdcf12aba0000000000000000000000000000000000000000000000000000000082610735565b5060019392505050565b600d5490565b60036020819052600091825260409091208054600182015460028301549383015460049093015491939092909160ff1685565b600160a060020a03811660009081526020819052604090205460ff161515610c8357600160a060020a0381166000818152602081905260408120805460ff19166001908117909155600d805491820181559091527fd7b6990105719101dabeb77144f2a3385c8033acd3af97e9423a695e81ad1eb501805473ffffffffffffffffffffffffffffffffffffffff191690911790555b50565b600c60009054906101000a9004600160a060020a0316600160a060020a03168260e060020a900460208351846040518463ffffffff1660e060020a0281526004018084815260200183815260200182805190602001906020028083836000838110156107ac578181015183820152602001610794565b600160208190526000918252604090912080549181015460029091015483565b600080600080600060016000876000815181101515610d3757fe5b906020019060200201516001900481526020019081526020016000206004016000876001815181101515610d6757fe5b602090810290910181015182528101919091526040016000908120548751600160a060020a0390911691600191899082908110610da057fe5b906020019060200201516001900481526020019081526020016000206004016000886001815181101515610dd057fe5b602090810290910181015182528101919091526040016000908120600101015460016000896000815181101515610e0357fe5b906020019060200201516001900481526020019081526020016000206004016000896001815181101515610e3357fe5b6020908102909101810151825281019190915260400160002060019081010154600160008a6000815181101515610e6657fe5b9060200190602002015160019004815260200190815260200160002060040160008a6001815181101515610e9657fe5b602090810290910181015182528101919091526040016000908120600301548a5160ff909116916001918c9082908110610ecc57fe5b9060200190602002015160019004815260200190815260200160002060040160008b6001815181101515610a3557fe5b600754600160a060020a031681565b60055481565b600854600160a060020a031681565b600080600080600060016000876000815181101515610f3b57fe5b906020019060200201516001900481526020019081526020016000206005016000876001815181101515610f6b57fe5b602090810290910181015182528101919091526040016000908120548751600160a060020a0390911691600191899082908110610fa457fe5b906020019060200201516001900481526020019081526020016000206005016000886001815181101515610fd457fe5b60209081029091018101518252810191909152604001600090812060010101546001600089600081518110151561100757fe5b90602001906020020151600190048152602001908152602001600020600501600089600181518110151561103757fe5b6020908102909101810151825281019190915260400160002060019081010154600160008a600081518110151561106a57fe5b9060200190602002015160019004815260200190815260200160002060050160008a600181518110151561109a57fe5b602090810290910181015182528101919091526040016000908120600301548a5160ff909116916001918c90829081106110d057fe5b9060200190602002015160019004815260200190815260200160002060050160008b6001815181101515610a3557fe5b60065481565b600954600160a060020a031681565b600b60009054906101000a9004600160a060020a0316600160a060020a03168260e060020a900460208351846040518463ffffffff1660e060020a0281526004018084815260200183815260200182805190602001906020028083836000838110156107ac578181015183820152602001610794565b60045481565b600a54600160a060020a031681565b6000806000806000600160008760008151811015156111bb57fe5b9060200190602002015160019004815260200190815260200160002060030160008760018151811015156111eb57fe5b602090810290910181015182528101919091526040016000908120548751600160a060020a039091169160019189908290811061122457fe5b90602001906020020151600190048152602001908152602001600020600301600088600181518110151561125457fe5b60209081029091018101518252810191909152604001600090812060010101546001600089600081518110151561128757fe5b9060200190602002015160019004815260200190815260200160002060030160008960018151811015156112b757fe5b6020908102909101810151825281019190915260400160002060019081010154600160008a60008151811015156112ea57fe5b9060200190602002015160019004815260200190815260200160002060030160008a600181518110151561131a57fe5b602090810290910181015182528101919091526040016000908120600301548a5160ff909116916001918c908290811061135057fe5b9060200190602002015160019004815260200190815260200160002060030160008b6001815181101515610a3557fe00a165627a7a7230582052b3f957292ef086d94ba0a51caaed8af8acb2132cce537633c9c681a2a00b220029",
  "source": "pragma solidity ^0.4.23;\n\nimport \"./CryptoFlowLib.sol\";\nimport \"./ChallengedLib.sol\";\nimport \"./DefendLib.sol\";\nimport \"./Util.sol\";\n\ncontract Booster {\n    mapping (address => bool) public assetAddresses;\n    mapping (uint256 => ChallengedLib.Stage) public stages;\n    mapping (bytes32 => CryptoFlowLib.Log) public depositLogs;\n    mapping (bytes32 => CryptoFlowLib.Log) public withdrawalLogs;\n\n    uint256 public stageHeight;\n    uint256 public instantWithdrawMaximum;\n    uint256 public depositSequenceNumber;\n    address public owner;\n    address public utilAddress;\n    address public managerAddress;\n    address public cryptoFlowLibAddress;\n    address public challengedLibAddress;\n    address public defendLibAddress;\n    address[] public assetAddressesArray;\n\n    event ProposeDeposit (\n        bytes32 indexed _dsn,\n        bytes32 indexed _client,\n        bytes32 _value,\n        bytes32 _assetID\n    );\n\n    event VerifyReceipt (\n    uint256 indexed _type, // { 0: deposit, 1: proposeWithdrawal, 2: instantWithdrawal }\n    bytes32 _gsn,\n    bytes32 _lightTxHash,\n    bytes32 _fromBalance,\n    bytes32 _toBalance,\n    bytes32[3] _sigLightTx,\n    bytes32[3] _sigReceipt\n    );\n\n    event Withdraw (\n        bytes32 indexed _wsn,\n        bytes32 indexed _client,\n        bytes32 _value,\n        bytes32 _assetID\n    );\n\n    event Attach (\n        bytes32 _stageHeight,\n        bytes32 _receiptRootHash,\n        bytes32 _accountRootHash\n    );\n\n    event Challenge (\n        uint256 indexed _challengedType, // { type: 1 - 4, 1: repeatedGSN 2: wrongBalance 3: skippedGSN 4: existProof }\n        bytes32 _client,\n        bytes32 _lightTxHash\n    );\n\n    event Defend (\n        bytes32 _lightTxHash,\n        bool _challengeState\n    );\n\n    function Booster (\n        address _boosterOwner,\n        address _utilAddress,\n        address _cryptoFlowLibAddress,\n        address _challengedLibAddress,\n        address _defendLibAddress,\n        address[] _assetAddresses,\n        uint256 _instantWithdrawMaximum\n    ) {\n        managerAddress = msg.sender;\n        owner = _boosterOwner;\n        utilAddress = _utilAddress;\n        cryptoFlowLibAddress = _cryptoFlowLibAddress;\n        challengedLibAddress = _challengedLibAddress;\n        defendLibAddress = _defendLibAddress;\n        instantWithdrawMaximum = _instantWithdrawMaximum;\n        stages[stageHeight].data = \"genisis stage\";\n        \n        for (uint i=0; i<_assetAddresses.length; i++) {\n            if (assetAddresses[_assetAddresses[i]] == false) {\n                assetAddresses[_assetAddresses[i]] = true;\n                assetAddressesArray.push(_assetAddresses[i]);\n            }\n        }\n    }\n\n    function delegateToCryptoFlowLib (bytes4 _signature, bytes32[] _parameter) payable {\n        /*\n        'proposeDeposit(bytes32[])':     0xdcf12aba\n        'deposit(bytes32[])':            0x7b9d7d74\n        'proposeWithdrawal(bytes32[])':  0x68ff1929\n        'withdraw(bytes32[])':           0xfe2b3924\n        'instantWithdraw(bytes32[])':    0xbe1946da\n        */\n        require(cryptoFlowLibAddress.delegatecall( _signature, uint256(32), uint256(_parameter.length), _parameter));\n    }\n\n    function delegateToChallengedLib (bytes4 _signature, bytes32[] _parameter) public {\n        /*\n        'attach(bytes32[])':                                0x95aa4aac\n        'challengedRepeatedGSN(bytes32[])':                 0xb210ffbf\n        'challengedWrongBalance(bytes32[])':                0x4259ee16\n        'challengedSkippedGSN(bytes32[])':                  0x6f62a2d9\n        'challengedExistedProof(bytes32[])':                0xbfe6f0e2\n        */\n        require(challengedLibAddress.delegatecall( _signature, uint256(32), uint256(_parameter.length), _parameter));\n    }\n\n    function delegateToDefendLib (bytes4 _signature, bytes32[] _parameter) public {\n        /*\n        'defendWrongBalances(bytes32[])':                    0xa2e630a5\n        'defendSkippedGSN(bytes32[])':                       0xdc64db7c\n        'defendExistProof(bytes32[])':                       0xe1e59fb4\n        */\n        require(defendLibAddress.delegatecall( _signature, uint256(32), uint256(_parameter.length), _parameter));\n    }\n\n    function () payable {\n        /*\n        called delegateToLib to 'proposeDeposit(bytes32[])'\n        gas used : 127075\n        gad used : 106627\n        suggested gas : 150000\n        */\n        bytes32[] memory bytes32Array = new bytes32[](3);\n        bytes32Array[0] = bytes32(msg.sender);\n        bytes32Array[1] = bytes32(msg.value);\n        bytes32Array[2] = bytes32(0);\n        delegateToCryptoFlowLib(0xdcf12aba, bytes32Array);\n    }\n\n    function setAssetAddress(address asAddress) {\n        if (assetAddresses[asAddress] == false) {\n            assetAddresses[asAddress] = true;\n            assetAddressesArray.push(asAddress);\n        }\n    }\n\n    // cannot unset array key\n    // function unsetAssetAddress(address asAddress) {\n    //     delete assetAddresses[asAddress];\n\n    //     // remove asset address from assetAddressesArray\n    //     for (uint i=0; i<assetAddressesArray.length; i++) {\n    //         if (assetAddressesArray[i] == asAddress) {\n    //             delete assetAddressesArray[i];\n    //             break;\n    //         }\n    //     }\n    // }\n\n    function getAssetAddressesLength() public constant returns (uint256) {\n        return assetAddressesArray.length;\n    }\n\n    function tokenFallback(address _from, uint _value) public returns (bool success) {\n        if(assetAddresses[msg.sender] == false) {\n            revert();\n        } else {\n            bytes32[] memory bytes32Array = new bytes32[](3);\n            bytes32Array[0] = bytes32(_from);\n            bytes32Array[1] = bytes32(_value);\n            bytes32Array[2] = bytes32(msg.sender);\n            delegateToCryptoFlowLib(0xdcf12aba, bytes32Array);\n            return true;\n        }\n    }\n\n    function getChallengedHash (bytes32[] _parameter) constant returns (bytes32) {\n        /*\n        parameter[0] = _stageHeight,\n        parameter[1] = _challengeNumber\n        */\n        return stages[uint256(_parameter[0])].challengedLightTxHashes[uint256(_parameter[1])];\n    }\n\n    function getChallengedRepeatedGSNListInfo (bytes32[] _parameter) constant returns (address, bytes32, bytes32, bool, bool) {\n        /*\n        parameter[0] = _stageHeight,\n        parameter[1] = _lightTxHash\n        */\n        return (stages[uint256(_parameter[0])].challengedRepeatedGSNList[_parameter[1]].client, stages[uint256(_parameter[0])].challengedRepeatedGSNList[_parameter[1]].lightTxHashes[0], stages[uint256(_parameter[0])].challengedRepeatedGSNList[_parameter[1]].lightTxHashes[1], stages[uint256(_parameter[0])].challengedRepeatedGSNList[_parameter[1]].challengedState, stages[uint256(_parameter[0])].challengedRepeatedGSNList[_parameter[1]].getCompensation);\n    }\n\n    function getChallengedWrongBalanceListInfo (bytes32[] _parameter) constant returns (address, bytes32, bytes32, bool, bool) {\n        /*\n        parameter[0] = _stageHeight,\n        parameter[1] = _lightTxHash\n        */\n        return (stages[uint256(_parameter[0])].challengedWrongBalanceList[_parameter[1]].client, stages[uint256(_parameter[0])].challengedWrongBalanceList[_parameter[1]].lightTxHashes[0], stages[uint256(_parameter[0])].challengedWrongBalanceList[_parameter[1]].lightTxHashes[1], stages[uint256(_parameter[0])].challengedWrongBalanceList[_parameter[1]].challengedState, stages[uint256(_parameter[0])].challengedWrongBalanceList[_parameter[1]].getCompensation);\n    }\n\n    function getChallengedSkippedGSNListInfo (bytes32[] _parameter) constant returns (address, bytes32, bytes32, bool, bool) {\n        /*\n        parameter[0] = _stageHeight,\n        parameter[1] = _lightTxHash\n        */\n        return (stages[uint256(_parameter[0])].challengedSkippedGSNList[_parameter[1]].client, stages[uint256(_parameter[0])].challengedSkippedGSNList[_parameter[1]].lightTxHashes[0], stages[uint256(_parameter[0])].challengedSkippedGSNList[_parameter[1]].lightTxHashes[1], stages[uint256(_parameter[0])].challengedSkippedGSNList[_parameter[1]].challengedState, stages[uint256(_parameter[0])].challengedSkippedGSNList[_parameter[1]].getCompensation);\n    }\n\n    function getChallengedExistedProofListInfo (bytes32[] _parameter) constant returns (address, bytes32, bytes32, bool, bool) {\n        /*\n        parameter[0] = _stageHeight,\n        parameter[1] = _lightTxHash\n        */\n        return (stages[uint256(_parameter[0])].challengedExistedProofList[_parameter[1]].client, stages[uint256(_parameter[0])].challengedExistedProofList[_parameter[1]].lightTxHashes[0], stages[uint256(_parameter[0])].challengedExistedProofList[_parameter[1]].lightTxHashes[1], stages[uint256(_parameter[0])].challengedExistedProofList[_parameter[1]].challengedState, stages[uint256(_parameter[0])].challengedExistedProofList[_parameter[1]].getCompensation);\n    }\n}\n",
  "sourcePath": "/Users/ming.hsu/Desktop/TideiSun/IFC/contracts/gringotts/contracts/Booster.sol",
  "compiler": {
    "name": "solc",
    "version": "0.4.24+commit.e67f0147.Emscripten.clang"
  },
  "schemaVersion": "2.0.0",
  "updatedAt": "2018-07-18T03:12:05.717Z"
}