{
  "contractName": "InfinitechainManager",
  "abi": [
    {
      "constant": true,
      "inputs": [],
      "name": "defendLibAddress",
      "outputs": [
        {
          "name": "",
          "type": "address"
        }
      ],
      "payable": false,
      "stateMutability": "view",
      "type": "function"
    },
    {
      "constant": true,
      "inputs": [
        {
          "name": "",
          "type": "uint256"
        }
      ],
      "name": "sidechainAddress",
      "outputs": [
        {
          "name": "",
          "type": "address"
        }
      ],
      "payable": false,
      "stateMutability": "view",
      "type": "function"
    },
    {
      "constant": true,
      "inputs": [],
      "name": "owner",
      "outputs": [
        {
          "name": "",
          "type": "address"
        }
      ],
      "payable": false,
      "stateMutability": "view",
      "type": "function"
    },
    {
      "constant": true,
      "inputs": [],
      "name": "utilAddress",
      "outputs": [
        {
          "name": "",
          "type": "address"
        }
      ],
      "payable": false,
      "stateMutability": "view",
      "type": "function"
    },
    {
      "constant": true,
      "inputs": [],
      "name": "challengeLibAddress",
      "outputs": [
        {
          "name": "",
          "type": "address"
        }
      ],
      "payable": false,
      "stateMutability": "view",
      "type": "function"
    },
    {
      "constant": true,
      "inputs": [],
      "name": "cryptoFlowLibAddress",
      "outputs": [
        {
          "name": "",
          "type": "address"
        }
      ],
      "payable": false,
      "stateMutability": "view",
      "type": "function"
    },
    {
      "constant": true,
      "inputs": [],
      "name": "sidechainNumber",
      "outputs": [
        {
          "name": "",
          "type": "uint256"
        }
      ],
      "payable": false,
      "stateMutability": "view",
      "type": "function"
    },
    {
      "inputs": [
        {
          "name": "_utilAddress",
          "type": "address"
        },
        {
          "name": "_cryptoFlowLibAddress",
          "type": "address"
        },
        {
          "name": "_challengeLibAddress",
          "type": "address"
        },
        {
          "name": "_defendLibAddress",
          "type": "address"
        }
      ],
      "payable": false,
      "stateMutability": "nonpayable",
      "type": "constructor"
    },
    {
      "anonymous": false,
      "inputs": [
        {
          "indexed": false,
          "name": "_sidechainId",
          "type": "uint256"
        },
        {
          "indexed": false,
          "name": "_sidechainAddress",
          "type": "address"
        }
      ],
      "name": "DeploySidechain",
      "type": "event"
    },
    {
      "constant": false,
      "inputs": [
        {
          "name": "_sidechainOwner",
          "type": "address"
        },
        {
          "name": "_assetAddresses",
          "type": "address[]"
        },
        {
          "name": "_instantWithdrawMaximum",
          "type": "uint256"
        }
      ],
      "name": "deploySidechain",
      "outputs": [],
      "payable": false,
      "stateMutability": "nonpayable",
      "type": "function"
    },
    {
      "constant": false,
      "inputs": [
        {
          "name": "_cryptoFlowLibAddress",
          "type": "address"
        }
      ],
      "name": "setCryptoFlowLibAddress",
      "outputs": [],
      "payable": false,
      "stateMutability": "nonpayable",
      "type": "function"
    },
    {
      "constant": false,
      "inputs": [
        {
          "name": "_challengeLibAddress",
          "type": "address"
        }
      ],
      "name": "setChallengeLibAddress",
      "outputs": [],
      "payable": false,
      "stateMutability": "nonpayable",
      "type": "function"
    },
    {
      "constant": false,
      "inputs": [
        {
          "name": "_defendLibAddress",
          "type": "address"
        }
      ],
      "name": "setDefendLibAddress",
      "outputs": [],
      "payable": false,
      "stateMutability": "nonpayable",
      "type": "function"
    }
  ],
  "bytecode": "0x608060405234801561001057600080fd5b506040516080806119da83398101604090815281516020830151918301516060909301516000805433600160a060020a0319918216178255600180548216600160a060020a03958616179055600280548216958516959095179094556003805485169584169590951790945560048054909316911617905561194290819061009890396000f3006080604052600436106100ae5763ffffffff7c01000000000000000000000000000000000000000000000000000000006000350416631fb236af81146100b357806320b877e81461011a57806333f6781c1461014b578063766fe5c1146101635780638343eb13146101845780638da5cb5b146101a55780639604ad46146101ba578063aacac576146101cf578063cec046a9146101e4578063f5ab6b2514610205578063fdcefff51461021a575b600080fd5b3480156100bf57600080fd5b50604080516020600460248035828101358481028087018601909752808652610118968435600160a060020a03169636966044959194909101929182918501908490808284375094975050933594506102419350505050565b005b34801561012657600080fd5b5061012f6103b0565b60408051600160a060020a039092168252519081900360200190f35b34801561015757600080fd5b5061012f6004356103bf565b34801561016f57600080fd5b50610118600160a060020a03600435166103da565b34801561019057600080fd5b50610118600160a060020a0360043516610420565b3480156101b157600080fd5b5061012f610466565b3480156101c657600080fd5b5061012f610475565b3480156101db57600080fd5b5061012f610484565b3480156101f057600080fd5b50610118600160a060020a0360043516610493565b34801561021157600080fd5b5061012f6104d9565b34801561022657600080fd5b5061022f6104e8565b60408051918252519081900360200190f35b60008054600160a060020a0316331461025957600080fd5b6001546002546003546004548793600160a060020a03908116938116928116911687876102846104ee565b600160a060020a03808916825287811660208084019190915287821660408401528682166060840152908516608083015260c0820183905260e060a0830181815285519184019190915284519091610100840191868201910280838360005b838110156102fb5781810151838201526020016102e3565b5050505090500198505050505050505050604051809103906000f080158015610328573d6000803e3d6000fd5b5060058054600181018255600090815260066020908152604091829020805473ffffffffffffffffffffffffffffffffffffffff1916600160a060020a038616908117909155925482519081529081019290925280519293507f649244b0a34fa560b9d17b63b4a7fb88304d51f44b4946bbbdb74cdfc09facac92918290030190a150505050565b600454600160a060020a031681565b600660205260009081526040902054600160a060020a031681565b600054600160a060020a031633146103f157600080fd5b6004805473ffffffffffffffffffffffffffffffffffffffff1916600160a060020a0392909216919091179055565b600054600160a060020a0316331461043757600080fd5b6002805473ffffffffffffffffffffffffffffffffffffffff1916600160a060020a0392909216919091179055565b600054600160a060020a031681565b600154600160a060020a031681565b600354600160a060020a031681565b600054600160a060020a031633146104aa57600080fd5b6003805473ffffffffffffffffffffffffffffffffffffffff1916600160a060020a0392909216919091179055565b600254600160a060020a031681565b60055481565b604051611418806104ff833901905600608060405234801561001057600080fd5b506040516114183803806114188339810160409081528151602080840151838501516060860151608087015160a088015160c08901516006805433600160a060020a031991821617909155600480548216600160a060020a03808c1691909117909155600580548316828a161790556007805483168289161790556008805483168288161790556009805490921690851617905560028181556001546000908152600a9098529887207f67656e6973697320737461676500000000000000000000000000000000000000990198909855959793969295919490939190910191905b8251811015610147576001600080858481518110151561010d57fe5b602090810291909101810151600160a060020a03168252810191909152604001600020805460ff19169115159190911790556001016100f1565b50505050505050506112ba8061015e6000396000f3006080604052600436106101225763ffffffff60e060020a60003504166277d61d81146101a5578062f817d614610213578063098bbb621461025357806320b877e8146102885780632e89a058146102b9578063361992ca14610347578063376745051461035c5780633b66d02b146103c35780636cdcf150146103e7578063770e09fd146103ff5780637b2cf9a314610420578063845ddcb21461049957806388890c81146104cf5780638da5cb5b1461052457806390c8a3a1146105395780639604ad461461054e578063c20f17a714610563578063cc6e7a14146105b8578063cf73a1bc146105cd578063d5dd9ddb146105e2578063f418eae41461065b578063f5ab6b2514610670578063f950c6a614610685578063fb3b65bb146106da575b6040805160028082526060808301845292602083019080388339505081519192503391839150600090811061015357fe5b60209081029091010152805134908290600190811061016e57fe5b602090810290910101526101a27fdcf12aba00000000000000000000000000000000000000000000000000000000826106fb565b50005b6040805160206004602480358281013584810280870186019097528086526102119684357bffffffffffffffffffffffffffffffffffffffffffffffffffffffff1916963696604495919490910192918291850190849080828437509497506106fb9650505050505050565b005b34801561021f57600080fd5b5061022b600435610792565b6040805194855260208501939093528383019190915215156060830152519081900360800190f35b34801561025f57600080fd5b50610274600160a060020a03600435166107bc565b604080519115158252519081900360200190f35b34801561029457600080fd5b5061029d6107d1565b60408051600160a060020a039092168252519081900360200190f35b3480156102c557600080fd5b506040805160206004803580820135838102808601850190965280855261030e953695939460249493850192918291850190849080828437509497506107e09650505050505050565b60408051600160a060020a0390961686526020860194909452848401929092521515606084015215156080830152519081900360a00190f35b34801561035357600080fd5b5061029d6109f8565b34801561036857600080fd5b50604080516020600480358082013583810280860185019096528085526103b195369593946024949385019291829185019084908082843750949750610a079650505050505050565b60408051918252519081900360200190f35b3480156103cf57600080fd5b50610274600160a060020a0360043516602435610a70565b3480156103f357600080fd5b5061022b600435610b24565b34801561040b57600080fd5b50610211600160a060020a0360043516610b4e565b34801561042c57600080fd5b506040805160206004602480358281013584810280870186019097528086526102119684357bffffffffffffffffffffffffffffffffffffffffffffffffffffffff191696369660449591949091019291829185019084908082843750949750610b729650505050505050565b3480156104a557600080fd5b506104b1600435610be8565b60408051938452602084019290925282820152519081900360600190f35b3480156104db57600080fd5b506040805160206004803580820135838102808601850190965280855261030e95369593946024949385019291829185019084908082843750949750610c099650505050505050565b34801561053057600080fd5b5061029d610de9565b34801561054557600080fd5b506103b1610df8565b34801561055a57600080fd5b5061029d610dfe565b34801561056f57600080fd5b506040805160206004803580820135838102808601850190965280855261030e95369593946024949385019291829185019084908082843750949750610e0d9650505050505050565b3480156105c457600080fd5b506103b1610fed565b3480156105d957600080fd5b5061029d610ff3565b3480156105ee57600080fd5b506040805160206004602480358281013584810280870186019097528086526102119684357bffffffffffffffffffffffffffffffffffffffffffffffffffffffff1916963696604495919490910192918291850190849080828437509497506110029650505050505050565b34801561066757600080fd5b506103b1611078565b34801561067c57600080fd5b5061029d61107e565b34801561069157600080fd5b506040805160206004803580820135838102808601850190965280855261030e9536959394602494938501929182918501908490808284375094975061108d9650505050505050565b3480156106e657600080fd5b50610211600160a060020a036004351661126d565b600760009054906101000a9004600160a060020a0316600160a060020a03168260e060020a900460208351846040518463ffffffff1660e060020a02815260040180848152602001838152602001828051906020019060200280838360005b8381101561077257818101518382015260200161075a565b505050509050019350505050600060405180830381865af4505050505050565b600b6020526000908152604090208054600182015460028301546003909301549192909160ff1684565b60006020819052908152604090205460ff1681565b600954600160a060020a031681565b6000806000806000600a60008760008151811015156107fb57fe5b90602001906020020151600190048152602001908152602001600020600601600087600181518110151561082b57fe5b602090810290910181015182528101919091526040016000908120548751600160a060020a0390911691600a9189908290811061086457fe5b90602001906020020151600190048152602001908152602001600020600601600088600181518110151561089457fe5b6020908102909101810151825281019190915260400160009081206001010154600a60008960008151811015156108c757fe5b9060200190602002015160019004815260200190815260200160002060060160008960018151811015156108f757fe5b6020908102909101810151825281019190915260400160002060019081010154600a60008a600081518110151561092a57fe5b9060200190602002015160019004815260200190815260200160002060060160008a600181518110151561095a57fe5b602090810290910181015182528101919091526040016000908120600301548a5160ff90911691600a918c908290811061099057fe5b9060200190602002015160019004815260200190815260200160002060060160008b60018151811015156109c057fe5b602090810291909101810151825281019190915260400160002060030154939a929950909750955061010090910460ff169350915050565b600854600160a060020a031681565b6000600a6000836000815181101515610a1c57fe5b90602001906020020151600190048152602001908152602001600020600701826001815181101515610a4a57fe5b6020908102909101015181548110610a5e57fe5b90600052602060002001549050919050565b3360009081526020819052604081205460609060ff161515610a9157600080fd5b60408051600280825260608201835290916020830190803883395050815191925050600160a060020a0385169082906000908110610acb57fe5b602090810290910101528051839082906001908110610ae657fe5b60209081029091010152610b1a7fdcf12aba00000000000000000000000000000000000000000000000000000000826106fb565b5060019392505050565b600c6020526000908152604090208054600182015460028301546003909301549192909160ff1684565b600160a060020a03166000908152602081905260409020805460ff19166001179055565b600960009054906101000a9004600160a060020a0316600160a060020a03168260e060020a900460208351846040518463ffffffff1660e060020a02815260040180848152602001838152602001828051906020019060200280838360008381101561077257818101518382015260200161075a565b600a6020526000908152604090208054600182015460029092015490919083565b6000806000806000600a6000876000815181101515610c2457fe5b906020019060200201516001900481526020019081526020016000206004016000876001815181101515610c5457fe5b602090810290910181015182528101919091526040016000908120548751600160a060020a0390911691600a91899082908110610c8d57fe5b906020019060200201516001900481526020019081526020016000206004016000886001815181101515610cbd57fe5b6020908102909101810151825281019190915260400160009081206001010154600a6000896000815181101515610cf057fe5b906020019060200201516001900481526020019081526020016000206004016000896001815181101515610d2057fe5b6020908102909101810151825281019190915260400160002060019081010154600a60008a6000815181101515610d5357fe5b9060200190602002015160019004815260200190815260200160002060040160008a6001815181101515610d8357fe5b602090810290910181015182528101919091526040016000908120600301548a5160ff90911691600a918c9082908110610db957fe5b9060200190602002015160019004815260200190815260200160002060040160008b60018151811015156109c057fe5b600454600160a060020a031681565b60025481565b600554600160a060020a031681565b6000806000806000600a6000876000815181101515610e2857fe5b906020019060200201516001900481526020019081526020016000206005016000876001815181101515610e5857fe5b602090810290910181015182528101919091526040016000908120548751600160a060020a0390911691600a91899082908110610e9157fe5b906020019060200201516001900481526020019081526020016000206005016000886001815181101515610ec157fe5b6020908102909101810151825281019190915260400160009081206001010154600a6000896000815181101515610ef457fe5b906020019060200201516001900481526020019081526020016000206005016000896001815181101515610f2457fe5b6020908102909101810151825281019190915260400160002060019081010154600a60008a6000815181101515610f5757fe5b9060200190602002015160019004815260200190815260200160002060050160008a6001815181101515610f8757fe5b602090810290910181015182528101919091526040016000908120600301548a5160ff90911691600a918c9082908110610fbd57fe5b9060200190602002015160019004815260200190815260200160002060050160008b60018151811015156109c057fe5b60035481565b600654600160a060020a031681565b600860009054906101000a9004600160a060020a0316600160a060020a03168260e060020a900460208351846040518463ffffffff1660e060020a02815260040180848152602001838152602001828051906020019060200280838360008381101561077257818101518382015260200161075a565b60015481565b600754600160a060020a031681565b6000806000806000600a60008760008151811015156110a857fe5b9060200190602002015160019004815260200190815260200160002060030160008760018151811015156110d857fe5b602090810290910181015182528101919091526040016000908120548751600160a060020a0390911691600a9189908290811061111157fe5b90602001906020020151600190048152602001908152602001600020600301600088600181518110151561114157fe5b6020908102909101810151825281019190915260400160009081206001010154600a600089600081518110151561117457fe5b9060200190602002015160019004815260200190815260200160002060030160008960018151811015156111a457fe5b6020908102909101810151825281019190915260400160002060019081010154600a60008a60008151811015156111d757fe5b9060200190602002015160019004815260200190815260200160002060030160008a600181518110151561120757fe5b602090810290910181015182528101919091526040016000908120600301548a5160ff90911691600a918c908290811061123d57fe5b9060200190602002015160019004815260200190815260200160002060030160008b60018151811015156109c057fe5b600160a060020a03166000908152602081905260409020805460ff191690555600a165627a7a72305820960a788014d2544b99885cba2e6afd43dac83d29fcc915be3fd8c8459f3786d00029a165627a7a72305820580c31a7536db6761831934044318e3cabcf03a5105a891e99240c93991d8a700029",
  "source": "pragma solidity ^0.4.23;\n\nimport \"./Sidechain.sol\";\nimport \"./Util.sol\";\n\ncontract InfinitechainManager {\n\taddress public owner;\n\taddress public utilAddress;\n\taddress public cryptoFlowLibAddress;\n\taddress public challengeLibAddress;\n\taddress public defendLibAddress;\n\tuint256 public sidechainNumber;\n\tmapping (uint256 => address) public sidechainAddress;\n\t// id = 0, for ledger use\n\n\tevent DeploySidechain(uint256 _sidechainId, address _sidechainAddress);\n\n\tmodifier onlyOwner {\n        require(msg.sender == owner);\n        _;\n    }\n\n\tfunction InfinitechainManager(address _utilAddress, address _cryptoFlowLibAddress, address _challengeLibAddress, address _defendLibAddress) {\n\t\towner = msg.sender;\n\t\tutilAddress = _utilAddress;\n\t\tcryptoFlowLibAddress = _cryptoFlowLibAddress;\n\t\tchallengeLibAddress = _challengeLibAddress;\n\t\tdefendLibAddress = _defendLibAddress;\n\t}\n\n\tfunction deploySidechain(\n\t\taddress _sidechainOwner,\n\t\taddress[] _assetAddresses,\n\t\tuint256 _instantWithdrawMaximum\n\t) \n\t\tonlyOwner \n\t{\n\t\taddress newSidechain = new Sidechain(_sidechainOwner, utilAddress, cryptoFlowLibAddress, challengeLibAddress, defendLibAddress, _assetAddresses, _instantWithdrawMaximum);\n\t\tsidechainAddress[sidechainNumber++] = newSidechain;\n\t\tDeploySidechain(sidechainNumber, newSidechain);\n\t}\n\n\tfunction setCryptoFlowLibAddress(address _cryptoFlowLibAddress) onlyOwner {\n\t\tcryptoFlowLibAddress = _cryptoFlowLibAddress;\n\t}\n\n\tfunction setChallengeLibAddress(address _challengeLibAddress) onlyOwner {\n\t\tchallengeLibAddress = _challengeLibAddress;\n\t}\n\n\tfunction setDefendLibAddress(address _defendLibAddress) onlyOwner {\n\t\tdefendLibAddress = _defendLibAddress;\n\t}\n}\n",
  "sourcePath": "/Users/peter.lai/Desktop/Projects/contracts/gringotts/contracts/InfinitechainManager.sol",
  "compiler": {
    "name": "solc",
    "version": "0.4.24+commit.e67f0147.Emscripten.clang"
  },
  "schemaVersion": "2.0.0",
  "updatedAt": "2018-07-12T02:27:51.296Z"
}