{
  "contractName": "InfinitechainManager",
  "abi": [
    {
      "constant": true,
      "inputs": [],
      "name": "defendLibAddress",
      "outputs": [
        {
          "name": "",
          "type": "address"
        }
      ],
      "payable": false,
      "stateMutability": "view",
      "type": "function"
    },
    {
      "constant": true,
      "inputs": [
        {
          "name": "",
          "type": "uint256"
        }
      ],
      "name": "boosterAddress",
      "outputs": [
        {
          "name": "",
          "type": "address"
        }
      ],
      "payable": false,
      "stateMutability": "view",
      "type": "function"
    },
    {
      "constant": true,
      "inputs": [],
      "name": "owner",
      "outputs": [
        {
          "name": "",
          "type": "address"
        }
      ],
      "payable": false,
      "stateMutability": "view",
      "type": "function"
    },
    {
      "constant": true,
      "inputs": [],
      "name": "utilAddress",
      "outputs": [
        {
          "name": "",
          "type": "address"
        }
      ],
      "payable": false,
      "stateMutability": "view",
      "type": "function"
    },
    {
      "constant": true,
      "inputs": [],
      "name": "boosterNumber",
      "outputs": [
        {
          "name": "",
          "type": "uint256"
        }
      ],
      "payable": false,
      "stateMutability": "view",
      "type": "function"
    },
    {
      "constant": true,
      "inputs": [],
      "name": "challengeLibAddress",
      "outputs": [
        {
          "name": "",
          "type": "address"
        }
      ],
      "payable": false,
      "stateMutability": "view",
      "type": "function"
    },
    {
      "constant": true,
      "inputs": [],
      "name": "cryptoFlowLibAddress",
      "outputs": [
        {
          "name": "",
          "type": "address"
        }
      ],
      "payable": false,
      "stateMutability": "view",
      "type": "function"
    },
    {
      "inputs": [
        {
          "name": "_utilAddress",
          "type": "address"
        },
        {
          "name": "_cryptoFlowLibAddress",
          "type": "address"
        },
        {
          "name": "_challengeLibAddress",
          "type": "address"
        },
        {
          "name": "_defendLibAddress",
          "type": "address"
        }
      ],
      "payable": false,
      "stateMutability": "nonpayable",
      "type": "constructor"
    },
    {
      "anonymous": false,
      "inputs": [
        {
          "indexed": false,
          "name": "_boosterId",
          "type": "uint256"
        },
        {
          "indexed": false,
          "name": "_boosterAddress",
          "type": "address"
        }
      ],
      "name": "DeployBooster",
      "type": "event"
    },
    {
      "constant": false,
      "inputs": [
        {
          "name": "_boosterOwner",
          "type": "address"
        },
        {
          "name": "_assetAddresses",
          "type": "address[]"
        },
        {
          "name": "_instantWithdrawMaximum",
          "type": "uint256"
        }
      ],
      "name": "deployBooster",
      "outputs": [],
      "payable": false,
      "stateMutability": "nonpayable",
      "type": "function"
    },
    {
      "constant": false,
      "inputs": [
        {
          "name": "_cryptoFlowLibAddress",
          "type": "address"
        }
      ],
      "name": "setCryptoFlowLibAddress",
      "outputs": [],
      "payable": false,
      "stateMutability": "nonpayable",
      "type": "function"
    },
    {
      "constant": false,
      "inputs": [
        {
          "name": "_challengeLibAddress",
          "type": "address"
        }
      ],
      "name": "setChallengeLibAddress",
      "outputs": [],
      "payable": false,
      "stateMutability": "nonpayable",
      "type": "function"
    },
    {
      "constant": false,
      "inputs": [
        {
          "name": "_defendLibAddress",
          "type": "address"
        }
      ],
      "name": "setDefendLibAddress",
      "outputs": [],
      "payable": false,
      "stateMutability": "nonpayable",
      "type": "function"
    }
  ],
  "bytecode": "0x608060405234801561001057600080fd5b50604051608080611b5783398101604090815281516020830151918301516060909301516000805433600160a060020a0319918216178255600180548216600160a060020a039586161790556002805482169585169590951790945560038054851695841695909517909455600480549093169116179055611abf90819061009890396000f3006080604052600436106100ae5763ffffffff7c010000000000000000000000000000000000000000000000000000000060003504166320b877e881146100b3578063766fe5c1146100e45780637b5b33bf146101075780638343eb131461011f5780638da5cb5b146101405780639604ad4614610155578063978702dd1461016a578063aacac57614610191578063cbabb85c146101a6578063cec046a91461020b578063f5ab6b251461022c575b600080fd5b3480156100bf57600080fd5b506100c8610241565b60408051600160a060020a039092168252519081900360200190f35b3480156100f057600080fd5b50610105600160a060020a0360043516610250565b005b34801561011357600080fd5b506100c8600435610296565b34801561012b57600080fd5b50610105600160a060020a03600435166102b1565b34801561014c57600080fd5b506100c86102f7565b34801561016157600080fd5b506100c8610306565b34801561017657600080fd5b5061017f610315565b60408051918252519081900360200190f35b34801561019d57600080fd5b506100c861031b565b3480156101b257600080fd5b50604080516020600460248035828101358481028087018601909752808652610105968435600160a060020a031696369660449591949091019291829185019084908082843750949750509335945061032a9350505050565b34801561021757600080fd5b50610105600160a060020a0360043516610499565b34801561023857600080fd5b506100c86104df565b600454600160a060020a031681565b600054600160a060020a0316331461026757600080fd5b6004805473ffffffffffffffffffffffffffffffffffffffff1916600160a060020a0392909216919091179055565b600660205260009081526040902054600160a060020a031681565b600054600160a060020a031633146102c857600080fd5b6002805473ffffffffffffffffffffffffffffffffffffffff1916600160a060020a0392909216919091179055565b600054600160a060020a031681565b600154600160a060020a031681565b60055481565b600354600160a060020a031681565b60008054600160a060020a0316331461034257600080fd5b6001546002546003546004548793600160a060020a039081169381169281169116878761036d6104ee565b600160a060020a03808916825287811660208084019190915287821660408401528682166060840152908516608083015260c0820183905260e060a0830181815285519184019190915284519091610100840191868201910280838360005b838110156103e45781810151838201526020016103cc565b5050505090500198505050505050505050604051809103906000f080158015610411573d6000803e3d6000fd5b5060058054600181018255600090815260066020908152604091829020805473ffffffffffffffffffffffffffffffffffffffff1916600160a060020a038616908117909155925482519081529081019290925280519293507f730afb510cb901b05d83cca22548c7f5c7b1a493558202a654ee18985c41c37f92918290030190a150505050565b600054600160a060020a031633146104b057600080fd5b6003805473ffffffffffffffffffffffffffffffffffffffff1916600160a060020a0392909216919091179055565b600254600160a060020a031681565b604051611595806104ff833901905600608060405234801561001057600080fd5b506040516115953803806115958339810160409081528151602080840151838501516060860151608087015160a088015160c08901516009805433600160a060020a031991821617909155600780548216600160a060020a03808c1691909117909155600880548316828a16179055600a80548316828916179055600b80548316828816179055600c80549092169085161790556005819055600454600090815260019097529786207f67656e697369732073746167650000000000000000000000000000000000000060029190910155959793969295919490939190910191905b82518110156101d257600080848381518110151561010c57fe5b6020908102909101810151600160a060020a031682528101919091526040016000205460ff1615156101ca576001600080858481518110151561014b57fe5b602090810291909101810151600160a060020a03168252810191909152604001600020805460ff19169115159190911790558251600d9084908390811061018e57fe5b6020908102919091018101518254600181018455600093845291909220018054600160a060020a031916600160a060020a039092169190911790555b6001016100f2565b50505050505050506113ac806101e96000396000f30060806040526004361061012d5763ffffffff60e060020a60003504166277d61d81146101ce578062f817d61461023c578063098bbb6214610281578063130ee4ad146102b657806320b877e8146102ea5780632e89a058146102ff578063361992ca1461038d57806337674505146103a25780633b66d02b146104095780633f8abf741461042d5780636cdcf15014610442578063770e09fd1461045a5780637b2cf9a31461047b578063845ddcb2146104f457806388890c811461052a5780638da5cb5b1461057f57806390c8a3a1146105945780639604ad46146105a9578063c20f17a7146105be578063cc6e7a1414610613578063cf73a1bc14610628578063d5dd9ddb1461063d578063f418eae4146106b6578063f5ab6b25146106cb578063f950c6a6146106e0575b60408051600380825260808201909252606091602082018380388339505081519192503391839150600090811061016057fe5b60209081029091010152805134908290600190811061017b57fe5b6020908102909101015280516000908290600290811061019757fe5b602090810290910101526101cb7fdcf12aba0000000000000000000000000000000000000000000000000000000082610735565b50005b60408051602060046024803582810135848102808701860190975280865261023a9684357bffffffffffffffffffffffffffffffffffffffffffffffffffffffff1916963696604495919490910192918291850190849080828437509497506107359650505050505050565b005b34801561024857600080fd5b506102546004356107d7565b60408051958652602086019490945284840192909252606084015215156080830152519081900360a00190f35b34801561028d57600080fd5b506102a2600160a060020a0360043516610809565b604080519115158252519081900360200190f35b3480156102c257600080fd5b506102ce60043561081e565b60408051600160a060020a039092168252519081900360200190f35b3480156102f657600080fd5b506102ce610846565b34801561030b57600080fd5b5060408051602060048035808201358381028086018501909652808552610354953695939460249493850192918291850190849080828437509497506108559650505050505050565b60408051600160a060020a0390961686526020860194909452848401929092521515606084015215156080830152519081900360a00190f35b34801561039957600080fd5b506102ce610a6d565b3480156103ae57600080fd5b50604080516020600480358082013583810280860185019096528085526103f795369593946024949385019291829185019084908082843750949750610a7c9650505050505050565b60408051918252519081900360200190f35b34801561041557600080fd5b506102a2600160a060020a0360043516602435610ae5565b34801561043957600080fd5b506103f7610bb5565b34801561044e57600080fd5b50610254600435610bbb565b34801561046657600080fd5b5061023a600160a060020a0360043516610bee565b34801561048757600080fd5b5060408051602060046024803582810135848102808701860190975280865261023a9684357bffffffffffffffffffffffffffffffffffffffffffffffffffffffff191696369660449591949091019291829185019084908082843750949750610c869650505050505050565b34801561050057600080fd5b5061050c600435610cfc565b60408051938452602084019290925282820152519081900360600190f35b34801561053657600080fd5b506040805160206004803580820135838102808601850190965280855261035495369593946024949385019291829185019084908082843750949750610d1c9650505050505050565b34801561058b57600080fd5b506102ce610efc565b3480156105a057600080fd5b506103f7610f0b565b3480156105b557600080fd5b506102ce610f11565b3480156105ca57600080fd5b506040805160206004803580820135838102808601850190965280855261035495369593946024949385019291829185019084908082843750949750610f209650505050505050565b34801561061f57600080fd5b506103f7611100565b34801561063457600080fd5b506102ce611106565b34801561064957600080fd5b5060408051602060046024803582810135848102808701860190975280865261023a9684357bffffffffffffffffffffffffffffffffffffffffffffffffffffffff1916963696604495919490910192918291850190849080828437509497506111159650505050505050565b3480156106c257600080fd5b506103f761118b565b3480156106d757600080fd5b506102ce611191565b3480156106ec57600080fd5b5060408051602060048035808201358381028086018501909652808552610354953695939460249493850192918291850190849080828437509497506111a09650505050505050565b600a60009054906101000a9004600160a060020a0316600160a060020a03168260e060020a900460208351846040518463ffffffff1660e060020a02815260040180848152602001838152602001828051906020019060200280838360005b838110156107ac578181015183820152602001610794565b505050509050019350505050600060405180830381865af49250505015156107d357600080fd5b5050565b600260208190526000918252604090912080546001820154928201546003830154600490930154919392909160ff1685565b60006020819052908152604090205460ff1681565b600d80548290811061082c57fe5b600091825260209091200154600160a060020a0316905081565b600c54600160a060020a031681565b60008060008060006001600087600081518110151561087057fe5b9060200190602002015160019004815260200190815260200160002060060160008760018151811015156108a057fe5b602090810290910181015182528101919091526040016000908120548751600160a060020a03909116916001918990829081106108d957fe5b90602001906020020151600190048152602001908152602001600020600601600088600181518110151561090957fe5b60209081029091018101518252810191909152604001600090812060010101546001600089600081518110151561093c57fe5b90602001906020020151600190048152602001908152602001600020600601600089600181518110151561096c57fe5b6020908102909101810151825281019190915260400160002060019081010154600160008a600081518110151561099f57fe5b9060200190602002015160019004815260200190815260200160002060060160008a60018151811015156109cf57fe5b602090810290910181015182528101919091526040016000908120600301548a5160ff909116916001918c9082908110610a0557fe5b9060200190602002015160019004815260200190815260200160002060060160008b6001815181101515610a3557fe5b602090810291909101810151825281019190915260400160002060030154939a929950909750955061010090910460ff169350915050565b600b54600160a060020a031681565b600060016000836000815181101515610a9157fe5b90602001906020020151600190048152602001908152602001600020600701826001815181101515610abf57fe5b6020908102909101015181548110610ad357fe5b90600052602060002001549050919050565b3360009081526020819052604081205460609060ff161515610b0657600080fd5b6040805160038082526080820190925290602082016060803883395050815191925050600160a060020a0385169082906000908110610b4157fe5b602090810290910101528051839082906001908110610b5c57fe5b602090810290910101528051339082906002908110610b7757fe5b60209081029091010152610bab7fdcf12aba0000000000000000000000000000000000000000000000000000000082610735565b5060019392505050565b600d5490565b60036020819052600091825260409091208054600182015460028301549383015460049093015491939092909160ff1685565b600160a060020a03811660009081526020819052604090205460ff161515610c8357600160a060020a0381166000818152602081905260408120805460ff19166001908117909155600d805491820181559091527fd7b6990105719101dabeb77144f2a3385c8033acd3af97e9423a695e81ad1eb501805473ffffffffffffffffffffffffffffffffffffffff191690911790555b50565b600c60009054906101000a9004600160a060020a0316600160a060020a03168260e060020a900460208351846040518463ffffffff1660e060020a0281526004018084815260200183815260200182805190602001906020028083836000838110156107ac578181015183820152602001610794565b600160208190526000918252604090912080549181015460029091015483565b600080600080600060016000876000815181101515610d3757fe5b906020019060200201516001900481526020019081526020016000206004016000876001815181101515610d6757fe5b602090810290910181015182528101919091526040016000908120548751600160a060020a0390911691600191899082908110610da057fe5b906020019060200201516001900481526020019081526020016000206004016000886001815181101515610dd057fe5b602090810290910181015182528101919091526040016000908120600101015460016000896000815181101515610e0357fe5b906020019060200201516001900481526020019081526020016000206004016000896001815181101515610e3357fe5b6020908102909101810151825281019190915260400160002060019081010154600160008a6000815181101515610e6657fe5b9060200190602002015160019004815260200190815260200160002060040160008a6001815181101515610e9657fe5b602090810290910181015182528101919091526040016000908120600301548a5160ff909116916001918c9082908110610ecc57fe5b9060200190602002015160019004815260200190815260200160002060040160008b6001815181101515610a3557fe5b600754600160a060020a031681565b60055481565b600854600160a060020a031681565b600080600080600060016000876000815181101515610f3b57fe5b906020019060200201516001900481526020019081526020016000206005016000876001815181101515610f6b57fe5b602090810290910181015182528101919091526040016000908120548751600160a060020a0390911691600191899082908110610fa457fe5b906020019060200201516001900481526020019081526020016000206005016000886001815181101515610fd457fe5b60209081029091018101518252810191909152604001600090812060010101546001600089600081518110151561100757fe5b90602001906020020151600190048152602001908152602001600020600501600089600181518110151561103757fe5b6020908102909101810151825281019190915260400160002060019081010154600160008a600081518110151561106a57fe5b9060200190602002015160019004815260200190815260200160002060050160008a600181518110151561109a57fe5b602090810290910181015182528101919091526040016000908120600301548a5160ff909116916001918c90829081106110d057fe5b9060200190602002015160019004815260200190815260200160002060050160008b6001815181101515610a3557fe5b60065481565b600954600160a060020a031681565b600b60009054906101000a9004600160a060020a0316600160a060020a03168260e060020a900460208351846040518463ffffffff1660e060020a0281526004018084815260200183815260200182805190602001906020028083836000838110156107ac578181015183820152602001610794565b60045481565b600a54600160a060020a031681565b6000806000806000600160008760008151811015156111bb57fe5b9060200190602002015160019004815260200190815260200160002060030160008760018151811015156111eb57fe5b602090810290910181015182528101919091526040016000908120548751600160a060020a039091169160019189908290811061122457fe5b90602001906020020151600190048152602001908152602001600020600301600088600181518110151561125457fe5b60209081029091018101518252810191909152604001600090812060010101546001600089600081518110151561128757fe5b9060200190602002015160019004815260200190815260200160002060030160008960018151811015156112b757fe5b6020908102909101810151825281019190915260400160002060019081010154600160008a60008151811015156112ea57fe5b9060200190602002015160019004815260200190815260200160002060030160008a600181518110151561131a57fe5b602090810290910181015182528101919091526040016000908120600301548a5160ff909116916001918c908290811061135057fe5b9060200190602002015160019004815260200190815260200160002060030160008b6001815181101515610a3557fe00a165627a7a7230582052b3f957292ef086d94ba0a51caaed8af8acb2132cce537633c9c681a2a00b220029a165627a7a723058207009fb7299ded3a4221c04810f58ffe3cbe4a04135dc6d6d0439188da58594a10029",
  "source": "pragma solidity ^0.4.23;\n\nimport \"./Booster.sol\";\nimport \"./Util.sol\";\n\ncontract InfinitechainManager {\n\taddress public owner;\n\taddress public utilAddress;\n\taddress public cryptoFlowLibAddress;\n\taddress public challengeLibAddress;\n\taddress public defendLibAddress;\n\tuint256 public boosterNumber;\n\tmapping (uint256 => address) public boosterAddress;\n\t// id = 0, for ledger use\n\n\tevent DeployBooster(uint256 _boosterId, address _boosterAddress);\n\n\tmodifier onlyOwner {\n        require(msg.sender == owner);\n        _;\n    }\n\n\tfunction InfinitechainManager(address _utilAddress, address _cryptoFlowLibAddress, address _challengeLibAddress, address _defendLibAddress) {\n\t\towner = msg.sender;\n\t\tutilAddress = _utilAddress;\n\t\tcryptoFlowLibAddress = _cryptoFlowLibAddress;\n\t\tchallengeLibAddress = _challengeLibAddress;\n\t\tdefendLibAddress = _defendLibAddress;\n\t}\n\n\tfunction deployBooster(\n\t\taddress _boosterOwner,\n\t\taddress[] _assetAddresses,\n\t\tuint256 _instantWithdrawMaximum\n\t) \n\t\tonlyOwner \n\t{\n\t\taddress newBooster = new Booster(_boosterOwner, utilAddress, cryptoFlowLibAddress, challengeLibAddress, defendLibAddress, _assetAddresses, _instantWithdrawMaximum);\n\t\tboosterAddress[boosterNumber++] = newBooster;\n\t\tDeployBooster(boosterNumber, newBooster);\n\t}\n\n\tfunction setCryptoFlowLibAddress(address _cryptoFlowLibAddress) onlyOwner {\n\t\tcryptoFlowLibAddress = _cryptoFlowLibAddress;\n\t}\n\n\tfunction setChallengeLibAddress(address _challengeLibAddress) onlyOwner {\n\t\tchallengeLibAddress = _challengeLibAddress;\n\t}\n\n\tfunction setDefendLibAddress(address _defendLibAddress) onlyOwner {\n\t\tdefendLibAddress = _defendLibAddress;\n\t}\n}\n",
  "sourcePath": "/Users/ming.hsu/Desktop/TideiSun/IFC/contracts/gringotts/contracts/InfinitechainManager.sol",
  "compiler": {
    "name": "solc",
    "version": "0.4.24+commit.e67f0147.Emscripten.clang"
  },
  "schemaVersion": "2.0.0",
  "updatedAt": "2018-07-18T03:12:58.476Z"
}