{
  "contractName": "InfinitechainManager",
  "abi": [
    {
      "constant": true,
      "inputs": [],
      "name": "defendLibAddress",
      "outputs": [
        {
          "name": "",
          "type": "address"
        }
      ],
      "payable": false,
      "stateMutability": "view",
      "type": "function"
    },
    {
      "constant": true,
      "inputs": [
        {
          "name": "",
          "type": "uint256"
        }
      ],
      "name": "sidechainAddress",
      "outputs": [
        {
          "name": "",
          "type": "address"
        }
      ],
      "payable": false,
      "stateMutability": "view",
      "type": "function"
    },
    {
      "constant": true,
      "inputs": [],
      "name": "owner",
      "outputs": [
        {
          "name": "",
          "type": "address"
        }
      ],
      "payable": false,
      "stateMutability": "view",
      "type": "function"
    },
    {
      "constant": true,
      "inputs": [],
      "name": "utilAddress",
      "outputs": [
        {
          "name": "",
          "type": "address"
        }
      ],
      "payable": false,
      "stateMutability": "view",
      "type": "function"
    },
    {
      "constant": true,
      "inputs": [],
      "name": "challengeLibAddress",
      "outputs": [
        {
          "name": "",
          "type": "address"
        }
      ],
      "payable": false,
      "stateMutability": "view",
      "type": "function"
    },
    {
      "constant": true,
      "inputs": [],
      "name": "cryptoFlowLibAddress",
      "outputs": [
        {
          "name": "",
          "type": "address"
        }
      ],
      "payable": false,
      "stateMutability": "view",
      "type": "function"
    },
    {
      "constant": true,
      "inputs": [],
      "name": "sidechainNumber",
      "outputs": [
        {
          "name": "",
          "type": "uint256"
        }
      ],
      "payable": false,
      "stateMutability": "view",
      "type": "function"
    },
    {
      "inputs": [
        {
          "name": "_utilAddress",
          "type": "address"
        },
        {
          "name": "_cryptoFlowLibAddress",
          "type": "address"
        },
        {
          "name": "_challengeLibAddress",
          "type": "address"
        },
        {
          "name": "_defendLibAddress",
          "type": "address"
        }
      ],
      "payable": false,
      "stateMutability": "nonpayable",
      "type": "constructor"
    },
    {
      "anonymous": false,
      "inputs": [
        {
          "indexed": false,
          "name": "_sidechainId",
          "type": "uint256"
        },
        {
          "indexed": false,
          "name": "_sidechainAddress",
          "type": "address"
        }
      ],
      "name": "DeploySidechain",
      "type": "event"
    },
    {
      "constant": false,
      "inputs": [
        {
          "name": "_sidechainOwner",
          "type": "address"
        },
        {
          "name": "_assetAddresses",
          "type": "address[]"
        },
        {
          "name": "_instantWithdrawMaximum",
          "type": "uint256"
        }
      ],
      "name": "deploySidechain",
      "outputs": [],
      "payable": false,
      "stateMutability": "nonpayable",
      "type": "function"
    },
    {
      "constant": false,
      "inputs": [
        {
          "name": "_cryptoFlowLibAddress",
          "type": "address"
        }
      ],
      "name": "setCryptoFlowLibAddress",
      "outputs": [],
      "payable": false,
      "stateMutability": "nonpayable",
      "type": "function"
    },
    {
      "constant": false,
      "inputs": [
        {
          "name": "_challengeLibAddress",
          "type": "address"
        }
      ],
      "name": "setChallengeLibAddress",
      "outputs": [],
      "payable": false,
      "stateMutability": "nonpayable",
      "type": "function"
    },
    {
      "constant": false,
      "inputs": [
        {
          "name": "_defendLibAddress",
          "type": "address"
        }
      ],
      "name": "setDefendLibAddress",
      "outputs": [],
      "payable": false,
      "stateMutability": "nonpayable",
      "type": "function"
    }
  ],
  "bytecode": "0x608060405234801561001057600080fd5b50604051608080611a2983398101604090815281516020830151918301516060909301516000805433600160a060020a0319918216178255600180548216600160a060020a03958616179055600280548216958516959095179094556003805485169584169590951790945560048054909316911617905561199190819061009890396000f3006080604052600436106100ae5763ffffffff7c01000000000000000000000000000000000000000000000000000000006000350416631fb236af81146100b357806320b877e81461011a57806333f6781c1461014b578063766fe5c1146101635780638343eb13146101845780638da5cb5b146101a55780639604ad46146101ba578063aacac576146101cf578063cec046a9146101e4578063f5ab6b2514610205578063fdcefff51461021a575b600080fd5b3480156100bf57600080fd5b50604080516020600460248035828101358481028087018601909752808652610118968435600160a060020a03169636966044959194909101929182918501908490808284375094975050933594506102419350505050565b005b34801561012657600080fd5b5061012f6103b0565b60408051600160a060020a039092168252519081900360200190f35b34801561015757600080fd5b5061012f6004356103bf565b34801561016f57600080fd5b50610118600160a060020a03600435166103da565b34801561019057600080fd5b50610118600160a060020a0360043516610420565b3480156101b157600080fd5b5061012f610466565b3480156101c657600080fd5b5061012f610475565b3480156101db57600080fd5b5061012f610484565b3480156101f057600080fd5b50610118600160a060020a0360043516610493565b34801561021157600080fd5b5061012f6104d9565b34801561022657600080fd5b5061022f6104e8565b60408051918252519081900360200190f35b60008054600160a060020a0316331461025957600080fd5b6001546002546003546004548793600160a060020a03908116938116928116911687876102846104ee565b600160a060020a03808916825287811660208084019190915287821660408401528682166060840152908516608083015260c0820183905260e060a0830181815285519184019190915284519091610100840191868201910280838360005b838110156102fb5781810151838201526020016102e3565b5050505090500198505050505050505050604051809103906000f080158015610328573d6000803e3d6000fd5b5060058054600181018255600090815260066020908152604091829020805473ffffffffffffffffffffffffffffffffffffffff1916600160a060020a038616908117909155925482519081529081019290925280519293507f649244b0a34fa560b9d17b63b4a7fb88304d51f44b4946bbbdb74cdfc09facac92918290030190a150505050565b600454600160a060020a031681565b600660205260009081526040902054600160a060020a031681565b600054600160a060020a031633146103f157600080fd5b6004805473ffffffffffffffffffffffffffffffffffffffff1916600160a060020a0392909216919091179055565b600054600160a060020a0316331461043757600080fd5b6002805473ffffffffffffffffffffffffffffffffffffffff1916600160a060020a0392909216919091179055565b600054600160a060020a031681565b600154600160a060020a031681565b600354600160a060020a031681565b600054600160a060020a031633146104aa57600080fd5b6003805473ffffffffffffffffffffffffffffffffffffffff1916600160a060020a0392909216919091179055565b600254600160a060020a031681565b60055481565b604051611467806104ff833901905600608060405234801561001057600080fd5b506040516114673803806114678339810160409081528151602080840151838501516060860151608087015160a088015160c08901516006805433600160a060020a031991821617909155600480548216600160a060020a03808c1691909117909155600580548316828a161790556007805483168289161790556008805483168288161790556009805490921690851617905560028181556001546000908152600a9098529887207f67656e6973697320737461676500000000000000000000000000000000000000990198909855959793969295919490939190910191905b8251811015610147576001600080858481518110151561010d57fe5b602090810291909101810151600160a060020a03168252810191909152604001600020805460ff19169115159190911790556001016100f1565b50505050505050506113098061015e6000396000f3006080604052600436106101225763ffffffff60e060020a60003504166277d61d81146101c3578062f817d614610231578063098bbb621461027657806320b877e8146102ab5780632e89a058146102dc578063361992ca1461036a578063376745051461037f5780633b66d02b146103e65780636cdcf1501461040a578063770e09fd146104225780637b2cf9a314610443578063845ddcb2146104bc57806388890c81146104f25780638da5cb5b1461054757806390c8a3a11461055c5780639604ad4614610571578063c20f17a714610586578063cc6e7a14146105db578063cf73a1bc146105f0578063d5dd9ddb14610605578063f418eae41461067e578063f5ab6b2514610693578063f950c6a6146106a8578063fb3b65bb146106fd575b60408051600380825260808201909252606091602082018380388339505081519192503391839150600090811061015557fe5b60209081029091010152805134908290600190811061017057fe5b6020908102909101015280516000908290600290811061018c57fe5b602090810290910101526101c07fdcf12aba000000000000000000000000000000000000000000000000000000008261071e565b50005b60408051602060046024803582810135848102808701860190975280865261022f9684357bffffffffffffffffffffffffffffffffffffffffffffffffffffffff19169636966044959194909101929182918501908490808284375094975061071e9650505050505050565b005b34801561023d57600080fd5b506102496004356107b5565b60408051958652602086019490945284840192909252606084015215156080830152519081900360a00190f35b34801561028257600080fd5b50610297600160a060020a03600435166107e7565b604080519115158252519081900360200190f35b3480156102b757600080fd5b506102c06107fc565b60408051600160a060020a039092168252519081900360200190f35b3480156102e857600080fd5b50604080516020600480358082013583810280860185019096528085526103319536959394602494938501929182918501908490808284375094975061080b9650505050505050565b60408051600160a060020a0390961686526020860194909452848401929092521515606084015215156080830152519081900360a00190f35b34801561037657600080fd5b506102c0610a23565b34801561038b57600080fd5b50604080516020600480358082013583810280860185019096528085526103d495369593946024949385019291829185019084908082843750949750610a329650505050505050565b60408051918252519081900360200190f35b3480156103f257600080fd5b50610297600160a060020a0360043516602435610a9b565b34801561041657600080fd5b50610249600435610b6b565b34801561042e57600080fd5b5061022f600160a060020a0360043516610b9d565b34801561044f57600080fd5b5060408051602060046024803582810135848102808701860190975280865261022f9684357bffffffffffffffffffffffffffffffffffffffffffffffffffffffff191696369660449591949091019291829185019084908082843750949750610bc19650505050505050565b3480156104c857600080fd5b506104d4600435610c37565b60408051938452602084019290925282820152519081900360600190f35b3480156104fe57600080fd5b506040805160206004803580820135838102808601850190965280855261033195369593946024949385019291829185019084908082843750949750610c589650505050505050565b34801561055357600080fd5b506102c0610e38565b34801561056857600080fd5b506103d4610e47565b34801561057d57600080fd5b506102c0610e4d565b34801561059257600080fd5b506040805160206004803580820135838102808601850190965280855261033195369593946024949385019291829185019084908082843750949750610e5c9650505050505050565b3480156105e757600080fd5b506103d461103c565b3480156105fc57600080fd5b506102c0611042565b34801561061157600080fd5b5060408051602060046024803582810135848102808701860190975280865261022f9684357bffffffffffffffffffffffffffffffffffffffffffffffffffffffff1916963696604495919490910192918291850190849080828437509497506110519650505050505050565b34801561068a57600080fd5b506103d46110c7565b34801561069f57600080fd5b506102c06110cd565b3480156106b457600080fd5b5060408051602060048035808201358381028086018501909652808552610331953695939460249493850192918291850190849080828437509497506110dc9650505050505050565b34801561070957600080fd5b5061022f600160a060020a03600435166112bc565b600760009054906101000a9004600160a060020a0316600160a060020a03168260e060020a900460208351846040518463ffffffff1660e060020a02815260040180848152602001838152602001828051906020019060200280838360005b8381101561079557818101518382015260200161077d565b505050509050019350505050600060405180830381865af4505050505050565b600b60205260009081526040902080546001820154600283015460038401546004909401549293919290919060ff1685565b60006020819052908152604090205460ff1681565b600954600160a060020a031681565b6000806000806000600a600087600081518110151561082657fe5b90602001906020020151600190048152602001908152602001600020600601600087600181518110151561085657fe5b602090810290910181015182528101919091526040016000908120548751600160a060020a0390911691600a9189908290811061088f57fe5b9060200190602002015160019004815260200190815260200160002060060160008860018151811015156108bf57fe5b6020908102909101810151825281019190915260400160009081206001010154600a60008960008151811015156108f257fe5b90602001906020020151600190048152602001908152602001600020600601600089600181518110151561092257fe5b6020908102909101810151825281019190915260400160002060019081010154600a60008a600081518110151561095557fe5b9060200190602002015160019004815260200190815260200160002060060160008a600181518110151561098557fe5b602090810290910181015182528101919091526040016000908120600301548a5160ff90911691600a918c90829081106109bb57fe5b9060200190602002015160019004815260200190815260200160002060060160008b60018151811015156109eb57fe5b602090810291909101810151825281019190915260400160002060030154939a929950909750955061010090910460ff169350915050565b600854600160a060020a031681565b6000600a6000836000815181101515610a4757fe5b90602001906020020151600190048152602001908152602001600020600701826001815181101515610a7557fe5b6020908102909101015181548110610a8957fe5b90600052602060002001549050919050565b3360009081526020819052604081205460609060ff161515610abc57600080fd5b6040805160038082526080820190925290602082016060803883395050815191925050600160a060020a0385169082906000908110610af757fe5b602090810290910101528051839082906001908110610b1257fe5b602090810290910101528051339082906002908110610b2d57fe5b60209081029091010152610b617fdcf12aba000000000000000000000000000000000000000000000000000000008261071e565b5060019392505050565b600c60205260009081526040902080546001820154600283015460038401546004909401549293919290919060ff1685565b600160a060020a03166000908152602081905260409020805460ff19166001179055565b600960009054906101000a9004600160a060020a0316600160a060020a03168260e060020a900460208351846040518463ffffffff1660e060020a02815260040180848152602001838152602001828051906020019060200280838360008381101561079557818101518382015260200161077d565b600a6020526000908152604090208054600182015460029092015490919083565b6000806000806000600a6000876000815181101515610c7357fe5b906020019060200201516001900481526020019081526020016000206004016000876001815181101515610ca357fe5b602090810290910181015182528101919091526040016000908120548751600160a060020a0390911691600a91899082908110610cdc57fe5b906020019060200201516001900481526020019081526020016000206004016000886001815181101515610d0c57fe5b6020908102909101810151825281019190915260400160009081206001010154600a6000896000815181101515610d3f57fe5b906020019060200201516001900481526020019081526020016000206004016000896001815181101515610d6f57fe5b6020908102909101810151825281019190915260400160002060019081010154600a60008a6000815181101515610da257fe5b9060200190602002015160019004815260200190815260200160002060040160008a6001815181101515610dd257fe5b602090810290910181015182528101919091526040016000908120600301548a5160ff90911691600a918c9082908110610e0857fe5b9060200190602002015160019004815260200190815260200160002060040160008b60018151811015156109eb57fe5b600454600160a060020a031681565b60025481565b600554600160a060020a031681565b6000806000806000600a6000876000815181101515610e7757fe5b906020019060200201516001900481526020019081526020016000206005016000876001815181101515610ea757fe5b602090810290910181015182528101919091526040016000908120548751600160a060020a0390911691600a91899082908110610ee057fe5b906020019060200201516001900481526020019081526020016000206005016000886001815181101515610f1057fe5b6020908102909101810151825281019190915260400160009081206001010154600a6000896000815181101515610f4357fe5b906020019060200201516001900481526020019081526020016000206005016000896001815181101515610f7357fe5b6020908102909101810151825281019190915260400160002060019081010154600a60008a6000815181101515610fa657fe5b9060200190602002015160019004815260200190815260200160002060050160008a6001815181101515610fd657fe5b602090810290910181015182528101919091526040016000908120600301548a5160ff90911691600a918c908290811061100c57fe5b9060200190602002015160019004815260200190815260200160002060050160008b60018151811015156109eb57fe5b60035481565b600654600160a060020a031681565b600860009054906101000a9004600160a060020a0316600160a060020a03168260e060020a900460208351846040518463ffffffff1660e060020a02815260040180848152602001838152602001828051906020019060200280838360008381101561079557818101518382015260200161077d565b60015481565b600754600160a060020a031681565b6000806000806000600a60008760008151811015156110f757fe5b90602001906020020151600190048152602001908152602001600020600301600087600181518110151561112757fe5b602090810290910181015182528101919091526040016000908120548751600160a060020a0390911691600a9189908290811061116057fe5b90602001906020020151600190048152602001908152602001600020600301600088600181518110151561119057fe5b6020908102909101810151825281019190915260400160009081206001010154600a60008960008151811015156111c357fe5b9060200190602002015160019004815260200190815260200160002060030160008960018151811015156111f357fe5b6020908102909101810151825281019190915260400160002060019081010154600a60008a600081518110151561122657fe5b9060200190602002015160019004815260200190815260200160002060030160008a600181518110151561125657fe5b602090810290910181015182528101919091526040016000908120600301548a5160ff90911691600a918c908290811061128c57fe5b9060200190602002015160019004815260200190815260200160002060030160008b60018151811015156109eb57fe5b600160a060020a03166000908152602081905260409020805460ff191690555600a165627a7a723058200b4889541992e28e9f7638a4b2eeac477cce80a407427728284e38cbf27e12710029a165627a7a7230582094b713f9dc5c42aa90589fe15cbd0655deed4fb8d4d3438da10e4505dc5a61da0029",
  "source": "pragma solidity ^0.4.23;\n\nimport \"./Sidechain.sol\";\nimport \"./Util.sol\";\n\ncontract InfinitechainManager {\n\taddress public owner;\n\taddress public utilAddress;\n\taddress public cryptoFlowLibAddress;\n\taddress public challengeLibAddress;\n\taddress public defendLibAddress;\n\tuint256 public sidechainNumber;\n\tmapping (uint256 => address) public sidechainAddress;\n\t// id = 0, for ledger use\n\n\tevent DeploySidechain(uint256 _sidechainId, address _sidechainAddress);\n\n\tmodifier onlyOwner {\n        require(msg.sender == owner);\n        _;\n    }\n\n\tfunction InfinitechainManager(address _utilAddress, address _cryptoFlowLibAddress, address _challengeLibAddress, address _defendLibAddress) {\n\t\towner = msg.sender;\n\t\tutilAddress = _utilAddress;\n\t\tcryptoFlowLibAddress = _cryptoFlowLibAddress;\n\t\tchallengeLibAddress = _challengeLibAddress;\n\t\tdefendLibAddress = _defendLibAddress;\n\t}\n\n\tfunction deploySidechain(\n\t\taddress _sidechainOwner,\n\t\taddress[] _assetAddresses,\n\t\tuint256 _instantWithdrawMaximum\n\t) \n\t\tonlyOwner \n\t{\n\t\taddress newSidechain = new Sidechain(_sidechainOwner, utilAddress, cryptoFlowLibAddress, challengeLibAddress, defendLibAddress, _assetAddresses, _instantWithdrawMaximum);\n\t\tsidechainAddress[sidechainNumber++] = newSidechain;\n\t\tDeploySidechain(sidechainNumber, newSidechain);\n\t}\n\n\tfunction setCryptoFlowLibAddress(address _cryptoFlowLibAddress) onlyOwner {\n\t\tcryptoFlowLibAddress = _cryptoFlowLibAddress;\n\t}\n\n\tfunction setChallengeLibAddress(address _challengeLibAddress) onlyOwner {\n\t\tchallengeLibAddress = _challengeLibAddress;\n\t}\n\n\tfunction setDefendLibAddress(address _defendLibAddress) onlyOwner {\n\t\tdefendLibAddress = _defendLibAddress;\n\t}\n}\n",
  "sourcePath": "/Users/jhenganjye/contracts/gringotts/contracts/InfinitechainManager.sol",
  "compiler": {
    "name": "solc",
    "version": "0.4.24+commit.e67f0147.Emscripten.clang"
  },
  "schemaVersion": "2.0.1",
  "updatedAt": "2018-07-13T08:32:43.359Z"
}