{
  "contractName": "InfinitechainManager",
  "abi": [
    {
      "constant": true,
      "inputs": [
        {
          "name": "",
          "type": "uint256"
        }
      ],
      "name": "sidechainAddress",
      "outputs": [
        {
          "name": "",
          "type": "address"
        }
      ],
      "payable": false,
      "stateMutability": "view",
      "type": "function"
    },
    {
      "constant": true,
      "inputs": [],
      "name": "owner",
      "outputs": [
        {
          "name": "",
          "type": "address"
        }
      ],
      "payable": false,
      "stateMutability": "view",
      "type": "function"
    },
    {
      "constant": true,
      "inputs": [],
      "name": "sidechainLibAddress",
      "outputs": [
        {
          "name": "",
          "type": "address"
        }
      ],
      "payable": false,
      "stateMutability": "view",
      "type": "function"
    },
    {
      "constant": true,
      "inputs": [],
      "name": "sidechainNumber",
      "outputs": [
        {
          "name": "",
          "type": "uint256"
        }
      ],
      "payable": false,
      "stateMutability": "view",
      "type": "function"
    },
    {
      "inputs": [
        {
          "name": "_sidechainLibAddress",
          "type": "address"
        }
      ],
      "payable": false,
      "stateMutability": "nonpayable",
      "type": "constructor"
    },
    {
      "anonymous": false,
      "inputs": [
        {
          "indexed": false,
          "name": "_sidechainId",
          "type": "uint256"
        },
        {
          "indexed": false,
          "name": "_sidechainAddress",
          "type": "address"
        }
      ],
      "name": "DeploySidechain",
      "type": "event"
    },
    {
      "constant": false,
      "inputs": [
        {
          "name": "_sidechainOwner",
          "type": "address"
        },
        {
          "name": "_assetAddresses",
          "type": "address[]"
        },
        {
          "name": "_instantWithdrawMaximum",
          "type": "uint256"
        }
      ],
      "name": "deploySidechain",
      "outputs": [],
      "payable": false,
      "stateMutability": "nonpayable",
      "type": "function"
    },
    {
      "constant": false,
      "inputs": [
        {
          "name": "_sidechainLibAddress",
          "type": "address"
        }
      ],
      "name": "setSidechainLibAddress",
      "outputs": [],
      "payable": false,
      "stateMutability": "nonpayable",
      "type": "function"
    }
  ],
  "bytecode": "0x608060405234801561001057600080fd5b50604051602080610b70833981016040525160008054600160a060020a0319908116331790915560018054600160a060020a0390931692909116919091179055610b118061005f6000396000f3006080604052600436106100775763ffffffff7c01000000000000000000000000000000000000000000000000000000006000350416631fb236af811461007c57806333f6781c146100e35780638da5cb5b14610117578063cff50d3e1461012c578063fca2fe2d14610141578063fdcefff514610162575b600080fd5b34801561008857600080fd5b506040805160206004602480358281013584810280870186019097528086526100e1968435600160a060020a03169636966044959194909101929182918501908490808284375094975050933594506101899350505050565b005b3480156100ef57600080fd5b506100fb6004356102de565b60408051600160a060020a039092168252519081900360200190f35b34801561012357600080fd5b506100fb6102f9565b34801561013857600080fd5b506100fb610308565b34801561014d57600080fd5b506100e1600160a060020a0360043516610317565b34801561016e57600080fd5b5061017761035d565b60408051918252519081900360200190f35b60008054600160a060020a031633146101a157600080fd5b6001548490600160a060020a031684846101b9610363565b8085600160a060020a0316600160a060020a0316815260200184600160a060020a0316600160a060020a0316815260200180602001838152602001828103825284818151815260200191508051906020019060200280838360005b8381101561022c578181015183820152602001610214565b5050505090500195505050505050604051809103906000f080158015610256573d6000803e3d6000fd5b5060028054600181018255600090815260036020908152604091829020805473ffffffffffffffffffffffffffffffffffffffff1916600160a060020a038616908117909155925482519081529081019290925280519293507f649244b0a34fa560b9d17b63b4a7fb88304d51f44b4946bbbdb74cdfc09facac92918290030190a150505050565b600360205260009081526040902054600160a060020a031681565b600054600160a060020a031681565b600154600160a060020a031681565b600054600160a060020a0316331461032e57600080fd5b6001805473ffffffffffffffffffffffffffffffffffffffff1916600160a060020a0392909216919091179055565b60025481565b60405161077280610374833901905600608060405234801561001057600080fd5b5060405161077238038061077283398101604090815281516020808401518385015160608601516008805433600160a060020a031991821617909155600780548216600160a060020a03808916919091179091556009805490921690851617905560058190556004546000908152938490529483207f67656e69736973207374616765000000000000000000000000000000000000006002919091015592949093920191905b825181101561010d5760016003600085848151811015156100d357fe5b602090810291909101810151600160a060020a03168252810191909152604001600020805460ff19169115159190911790556001016100b6565b5050505050610651806101216000396000f3006080604052600436106100b55763ffffffff60e060020a600035041662f817d68114610156578063098bbb621461019b5780633b66d02b146101d05780636cdcf150146101f4578063770e09fd1461020c578063845ddcb21461022f5780638da5cb5b1461026557806390c8a3a114610296578063c9a557fb146102bd578063cc6e7a141461032c578063cf73a1bc14610341578063cff50d3e14610356578063f418eae41461036b578063fb3b65bb14610380575b6040805160038082526080820190925260609160208201838038833950508151919250339183915060009081106100e857fe5b60209081029091010152805134908290600190811061010357fe5b6020908102909101015280516000908290600290811061011f57fe5b602090810290910101526101537fdcf12aba00000000000000000000000000000000000000000000000000000000826103a1565b50005b34801561016257600080fd5b5061016e600435610438565b60408051958652602086019490945284840192909252606084015215156080830152519081900360a00190f35b3480156101a757600080fd5b506101bc600160a060020a0360043516610469565b604080519115158252519081900360200190f35b3480156101dc57600080fd5b506101bc600160a060020a036004351660243561047e565b34801561020057600080fd5b5061016e60043561054e565b34801561021857600080fd5b5061022d600160a060020a0360043516610580565b005b34801561023b57600080fd5b506102476004356105a4565b60408051938452602084019290925282820152519081900360600190f35b34801561027157600080fd5b5061027a6105c5565b60408051600160a060020a039092168252519081900360200190f35b3480156102a257600080fd5b506102ab6105d4565b60408051918252519081900360200190f35b60408051602060046024803582810135848102808701860190975280865261022d9684357fffffffff0000000000000000000000000000000000000000000000000000000016963696604495919490910192918291850190849080828437509497506103a19650505050505050565b34801561033857600080fd5b506102ab6105da565b34801561034d57600080fd5b5061027a6105e0565b34801561036257600080fd5b5061027a6105ef565b34801561037757600080fd5b506102ab6105fe565b34801561038c57600080fd5b5061022d600160a060020a0360043516610604565b600960009054906101000a9004600160a060020a0316600160a060020a03168260e060020a900460208351846040518463ffffffff1660e060020a02815260040180848152602001838152602001828051906020019060200280838360005b83811015610418578181015183820152602001610400565b505050509050019350505050600060405180830381865af4505050505050565b6001602081905260009182526040909120805491810154600282015460038301546004909301549192909160ff1685565b60036020526000908152604090205460ff1681565b3360009081526003602052604081205460609060ff16151561049f57600080fd5b6040805160038082526080820190925290602082016060803883395050815191925050600160a060020a03851690829060009081106104da57fe5b6020908102909101015280518390829060019081106104f557fe5b60209081029091010152805133908290600290811061051057fe5b602090810290910101526105447fdcf12aba00000000000000000000000000000000000000000000000000000000826103a1565b5060019392505050565b600260208190526000918252604090912080546001820154928201546003830154600490930154919392909160ff1685565b600160a060020a03166000908152600360205260409020805460ff19166001179055565b60006020819052908152604090208054600182015460029092015490919083565b600754600160a060020a031681565b60055481565b60065481565b600854600160a060020a031681565b600954600160a060020a031681565b60045481565b600160a060020a03166000908152600360205260409020805460ff191690555600a165627a7a72305820a1d824d11dee309bcf8a90edbc1fe4d796e09e28ae0ecc333375c163cbee23900029a165627a7a72305820f9b4d13ac1d52dcaef605856c576bf6dcf1c44afb19350a3dbd2798545bca0df0029",
  "source": "pragma solidity ^0.4.23;\n\nimport \"./Sidechain.sol\";\n\ncontract InfinitechainManager {\n\taddress public owner;\n\taddress public sidechainLibAddress;\n\tuint256 public sidechainNumber;\n\tmapping (uint256 => address) public sidechainAddress;\n\t// id = 0, for ledger use\n\n\tevent DeploySidechain(uint256 _sidechainId, address _sidechainAddress);\n\n\tmodifier onlyOwner {\n        require(msg.sender == owner);\n        _;\n    }\n\n\tfunction InfinitechainManager(address _sidechainLibAddress) {\n\t\towner = msg.sender;\n\t\tsidechainLibAddress = _sidechainLibAddress;\n\t}\n\n\tfunction deploySidechain(\n\t\taddress _sidechainOwner,\n\t\taddress[] _assetAddresses,\n\t\tuint256 _instantWithdrawMaximum\n\t) \n\t\tonlyOwner \n\t{\n\t\taddress newSidechain = new Sidechain(_sidechainOwner, sidechainLibAddress, _assetAddresses, _instantWithdrawMaximum);\n\t\tsidechainAddress[sidechainNumber++] = newSidechain;\n\t\tDeploySidechain(sidechainNumber, newSidechain);\n\t}\n\n\tfunction setSidechainLibAddress(address _sidechainLibAddress) onlyOwner {\n\t\tsidechainLibAddress = _sidechainLibAddress;\n\t}\n}\n",
  "sourcePath": "/Users/peter.lai/Desktop/Projects/contracts/gringotts/contracts/InfinitechainManager.sol",
  "compiler": {
    "name": "solc",
    "version": "0.4.24+commit.e67f0147.Emscripten.clang"
  },
  "schemaVersion": "2.0.0",
  "updatedAt": "2018-07-06T02:33:21.289Z"
}