{
  "contractName": "SidechainLib",
  "abi": [
    {
      "constant": true,
      "inputs": [
        {
          "name": "",
          "type": "bytes32"
        }
      ],
      "name": "depositLogs",
      "outputs": [
        {
          "name": "stage",
          "type": "bytes32"
        },
        {
          "name": "client",
          "type": "bytes32"
        },
        {
          "name": "value",
          "type": "bytes32"
        },
        {
          "name": "assetID",
          "type": "bytes32"
        },
        {
          "name": "flag",
          "type": "bool"
        }
      ],
      "payable": false,
      "stateMutability": "view",
      "type": "function"
    },
    {
      "constant": true,
      "inputs": [
        {
          "name": "",
          "type": "address"
        }
      ],
      "name": "assetAddresses",
      "outputs": [
        {
          "name": "",
          "type": "bool"
        }
      ],
      "payable": false,
      "stateMutability": "view",
      "type": "function"
    },
    {
      "constant": true,
      "inputs": [
        {
          "name": "",
          "type": "bytes32"
        }
      ],
      "name": "withdrawalLogs",
      "outputs": [
        {
          "name": "stage",
          "type": "bytes32"
        },
        {
          "name": "client",
          "type": "bytes32"
        },
        {
          "name": "value",
          "type": "bytes32"
        },
        {
          "name": "assetID",
          "type": "bytes32"
        },
        {
          "name": "flag",
          "type": "bool"
        }
      ],
      "payable": false,
      "stateMutability": "view",
      "type": "function"
    },
    {
      "constant": true,
      "inputs": [
        {
          "name": "",
          "type": "uint256"
        }
      ],
      "name": "stages",
      "outputs": [
        {
          "name": "receiptRootHash",
          "type": "bytes32"
        },
        {
          "name": "accountRootHash",
          "type": "bytes32"
        },
        {
          "name": "data",
          "type": "bytes32"
        }
      ],
      "payable": false,
      "stateMutability": "view",
      "type": "function"
    },
    {
      "constant": true,
      "inputs": [],
      "name": "owner",
      "outputs": [
        {
          "name": "",
          "type": "address"
        }
      ],
      "payable": false,
      "stateMutability": "view",
      "type": "function"
    },
    {
      "constant": true,
      "inputs": [],
      "name": "instantWithdrawMaximum",
      "outputs": [
        {
          "name": "",
          "type": "uint256"
        }
      ],
      "payable": false,
      "stateMutability": "view",
      "type": "function"
    },
    {
      "constant": true,
      "inputs": [],
      "name": "depositSequenceNumber",
      "outputs": [
        {
          "name": "",
          "type": "uint256"
        }
      ],
      "payable": false,
      "stateMutability": "view",
      "type": "function"
    },
    {
      "constant": true,
      "inputs": [],
      "name": "stageHeight",
      "outputs": [
        {
          "name": "",
          "type": "uint256"
        }
      ],
      "payable": false,
      "stateMutability": "view",
      "type": "function"
    },
    {
      "anonymous": false,
      "inputs": [
        {
          "indexed": true,
          "name": "_dsn",
          "type": "bytes32"
        },
        {
          "indexed": true,
          "name": "_client",
          "type": "bytes32"
        },
        {
          "indexed": false,
          "name": "_value",
          "type": "bytes32"
        },
        {
          "indexed": false,
          "name": "_assetID",
          "type": "bytes32"
        }
      ],
      "name": "ProposeDeposit",
      "type": "event"
    },
    {
      "anonymous": false,
      "inputs": [
        {
          "indexed": true,
          "name": "_type",
          "type": "uint256"
        },
        {
          "indexed": false,
          "name": "_gsn",
          "type": "bytes32"
        },
        {
          "indexed": false,
          "name": "_lightTxHash",
          "type": "bytes32"
        },
        {
          "indexed": false,
          "name": "_fromBalance",
          "type": "bytes32"
        },
        {
          "indexed": false,
          "name": "_toBalance",
          "type": "bytes32"
        },
        {
          "indexed": false,
          "name": "_sigLightTx",
          "type": "bytes32[3]"
        },
        {
          "indexed": false,
          "name": "_sigReceipt",
          "type": "bytes32[3]"
        }
      ],
      "name": "VerifyReceipt",
      "type": "event"
    },
    {
      "anonymous": false,
      "inputs": [
        {
          "indexed": false,
          "name": "_stageHeight",
          "type": "bytes32"
        },
        {
          "indexed": false,
          "name": "_receiptRootHash",
          "type": "bytes32"
        },
        {
          "indexed": false,
          "name": "_accountRootHash",
          "type": "bytes32"
        }
      ],
      "name": "Attach",
      "type": "event"
    },
    {
      "anonymous": false,
      "inputs": [
        {
          "indexed": true,
          "name": "_wsn",
          "type": "bytes32"
        },
        {
          "indexed": true,
          "name": "_client",
          "type": "bytes32"
        },
        {
          "indexed": false,
          "name": "_value",
          "type": "bytes32"
        },
        {
          "indexed": false,
          "name": "_assetID",
          "type": "bytes32"
        }
      ],
      "name": "Withdraw",
      "type": "event"
    },
    {
      "constant": true,
      "inputs": [
        {
          "name": "data",
          "type": "bytes32"
        },
        {
          "name": "dataArray",
          "type": "bytes32[]"
        }
      ],
      "name": "inBytes32Array",
      "outputs": [
        {
          "name": "",
          "type": "bool"
        }
      ],
      "payable": false,
      "stateMutability": "view",
      "type": "function"
    },
    {
      "constant": true,
      "inputs": [
        {
          "name": "dataArray",
          "type": "bytes32[]"
        }
      ],
      "name": "hashArray",
      "outputs": [
        {
          "name": "",
          "type": "bytes32"
        }
      ],
      "payable": false,
      "stateMutability": "view",
      "type": "function"
    },
    {
      "constant": true,
      "inputs": [
        {
          "name": "idx",
          "type": "uint256"
        },
        {
          "name": "slice",
          "type": "bytes32[]"
        }
      ],
      "name": "calculateSliceRootHash",
      "outputs": [
        {
          "name": "",
          "type": "bytes32"
        }
      ],
      "payable": false,
      "stateMutability": "view",
      "type": "function"
    },
    {
      "constant": true,
      "inputs": [
        {
          "name": "_a",
          "type": "string"
        },
        {
          "name": "_b",
          "type": "string"
        }
      ],
      "name": "strConcat",
      "outputs": [
        {
          "name": "",
          "type": "string"
        }
      ],
      "payable": false,
      "stateMutability": "view",
      "type": "function"
    },
    {
      "constant": true,
      "inputs": [
        {
          "name": "b32",
          "type": "bytes32"
        }
      ],
      "name": "bytes32ToString",
      "outputs": [
        {
          "name": "",
          "type": "string"
        }
      ],
      "payable": false,
      "stateMutability": "view",
      "type": "function"
    },
    {
      "constant": true,
      "inputs": [
        {
          "name": "number",
          "type": "uint256"
        }
      ],
      "name": "uintToAscii",
      "outputs": [
        {
          "name": "",
          "type": "bytes1"
        }
      ],
      "payable": false,
      "stateMutability": "view",
      "type": "function"
    },
    {
      "constant": true,
      "inputs": [
        {
          "name": "_message",
          "type": "bytes32"
        },
        {
          "name": "_v",
          "type": "uint8"
        },
        {
          "name": "_r",
          "type": "bytes32"
        },
        {
          "name": "_s",
          "type": "bytes32"
        }
      ],
      "name": "verify",
      "outputs": [
        {
          "name": "",
          "type": "address"
        }
      ],
      "payable": false,
      "stateMutability": "view",
      "type": "function"
    },
    {
      "constant": false,
      "inputs": [
        {
          "name": "_parameter",
          "type": "bytes32[]"
        }
      ],
      "name": "attach",
      "outputs": [],
      "payable": false,
      "stateMutability": "nonpayable",
      "type": "function"
    },
    {
      "constant": false,
      "inputs": [
        {
          "name": "_parameter",
          "type": "bytes32[]"
        }
      ],
      "name": "proposeDeposit",
      "outputs": [],
      "payable": true,
      "stateMutability": "payable",
      "type": "function"
    },
    {
      "constant": false,
      "inputs": [
        {
          "name": "_parameter",
          "type": "bytes32[]"
        }
      ],
      "name": "deposit",
      "outputs": [],
      "payable": false,
      "stateMutability": "nonpayable",
      "type": "function"
    },
    {
      "constant": false,
      "inputs": [
        {
          "name": "_parameter",
          "type": "bytes32[]"
        }
      ],
      "name": "proposeWithdrawal",
      "outputs": [],
      "payable": false,
      "stateMutability": "nonpayable",
      "type": "function"
    },
    {
      "constant": false,
      "inputs": [
        {
          "name": "_parameter",
          "type": "bytes32[]"
        }
      ],
      "name": "withdraw",
      "outputs": [],
      "payable": false,
      "stateMutability": "nonpayable",
      "type": "function"
    },
    {
      "constant": false,
      "inputs": [
        {
          "name": "_parameter",
          "type": "bytes32[]"
        }
      ],
      "name": "instantWithdraw",
      "outputs": [],
      "payable": false,
      "stateMutability": "nonpayable",
      "type": "function"
    }
  ],
  "bytecode": "0x608060405234801561001057600080fd5b506129ba806100206000396000f3006080604052600436106101025763ffffffff60e060020a600035041662f817d68114610107578063098bbb621461014c57806342233547146101815780634a7c7e46146101e857806368ff1929146102355780636cdcf1501461028c5780637b9d7d74146102a4578063845ddcb2146102f95780638da5cb5b1461032f57806390c8a3a1146103605780639201de551461037557806395aa4aac14610402578063a87a8c1714610457578063be1946da146104b1578063cc6e7a1414610506578063dcf12aba1461051b578063f1835db714610563578063f418eae414610587578063f661bec51461059c578063fe2b3924146105f6578063ff74927b1461064b575b600080fd5b34801561011357600080fd5b5061011f6004356106e2565b60408051958652602086019490945284840192909252606084015215156080830152519081900360a00190f35b34801561015857600080fd5b5061016d600160a060020a0360043516610713565b604080519115158252519081900360200190f35b34801561018d57600080fd5b50604080516020600480358082013583810280860185019096528085526101d6953695939460249493850192918291850190849080828437509497506107289650505050505050565b60408051918252519081900360200190f35b3480156101f457600080fd5b506102006004356107f6565b604080517fff000000000000000000000000000000000000000000000000000000000000009092168252519081900360200190f35b34801561024157600080fd5b506040805160206004803580820135838102808601850190965280855261028a9536959394602494938501929182918501908490808284375094975061082b9650505050505050565b005b34801561029857600080fd5b5061011f6004356110a5565b3480156102b057600080fd5b506040805160206004803580820135838102808601850190965280855261028a953695939460249493850192918291850190849080828437509497506110d79650505050505050565b34801561030557600080fd5b506103116004356117f8565b60408051938452602084019290925282820152519081900360600190f35b34801561033b57600080fd5b50610344611819565b60408051600160a060020a039092168252519081900360200190f35b34801561036c57600080fd5b506101d6611828565b34801561038157600080fd5b5061038d60043561182e565b6040805160208082528351818301528351919283929083019185019080838360005b838110156103c75781810151838201526020016103af565b50505050905090810190601f1680156103f45780820380516001836020036101000a031916815260200191505b509250505060405180910390f35b34801561040e57600080fd5b506040805160206004803580820135838102808601850190965280855261028a953695939460249493850192918291850190849080828437509497506118fb9650505050505050565b34801561046357600080fd5b506040805160206004602480358281013584810280870186019097528086526101d696843596369660449591949091019291829185019084908082843750949750611a069650505050505050565b3480156104bd57600080fd5b506040805160206004803580820135838102808601850190965280855261028a95369593946024949385019291829185019084908082843750949750611b0d9650505050505050565b34801561051257600080fd5b506101d6612310565b6040805160206004803580820135838102808601850190965280855261028a953695939460249493850192918291850190849080828437509497506123169650505050505050565b34801561056f57600080fd5b5061034460043560ff60243516604435606435612449565b34801561059357600080fd5b506101d661254a565b3480156105a857600080fd5b5060408051602060046024803582810135848102808701860190975280865261016d968435963696604495919490910192918291850190849080828437509497506125509650505050505050565b34801561060257600080fd5b506040805160206004803580820135838102808601850190965280855261028a953695939460249493850192918291850190849080828437509497506125999650505050505050565b34801561065757600080fd5b506040805160206004803580820135601f810184900484028501840190955284845261038d94369492936024939284019190819084018382808284375050604080516020601f89358b018035918201839004830284018301909452808352979a99988101979196509182019450925082915084018382808284375094975061286f9650505050505050565b6001602081905260009182526040909120805491810154600282015460038301546004909301549192909160ff1685565b60036020526000908152604090205460ff1681565b60006060600080845111151561073d57600080fd5b61075e84600081518110151561074f57fe5b9060200190602002015161182e565b9150600190505b83518110156107925761078882610783868481518110151561074f57fe5b61286f565b9150600101610765565b816040518082805190602001908083835b602083106107c25780518252601f1990920191602091820191016107a3565b5181516020939093036101000a60001901801990911692169190911790526040519201829003909120979650505050505050565b6000600a821015610811575060f860020a6030820102610826565b6010821015610102575060f860020a60578201025b919050565b606060008260606000806008604051908082528060200260200182016040528015610860578160200160208202803883390190505b50925083600181518110151561087257fe5b9060200190602002015183600081518110151561088b57fe5b602090810290910101528351849060029081106108a457fe5b906020019060200201518360018151811015156108bd57fe5b602090810290910101528351849060039081106108d657fe5b906020019060200201518360028151811015156108ef57fe5b6020908102909101015283518490600490811061090857fe5b9060200190602002015183600381518110151561092157fe5b6020908102909101015283518490600590811061093a57fe5b9060200190602002015183600481518110151561095357fe5b6020908102909101015283518490600690811061096c57fe5b9060200190602002015183600581518110151561098557fe5b6020908102909101015283518490600790811061099e57fe5b906020019060200201518360068151811015156109b757fe5b602090810290910101528351849060089081106109d057fe5b906020019060200201518360078151811015156109e957fe5b602090810290910101526109fc83610728565b9150836000815181101515610a0d57fe5b602090810290910101518214610a2257600080fd5b610a7682856009815181101515610a3557fe5b6020908102909101015186518790600a908110610a4e57fe5b9060200190602002015187600b815181101515610a6757fe5b90602001906020020151612449565b9050836001815181101515610a8757fe5b60209081029091010151600160a060020a0316158015610ac75750836002815181101515610ab157fe5b60209081029091010151600160a060020a031615155b15610b9b57836002815181101515610adb57fe5b60209081029091010151600160a060020a03828116911614610afc57600080fd5b60016000856007815181101515610b0f57fe5b6020908102909101810151825281019190915260400160002060010154600160a060020a03828116911614610b4357600080fd5b60016000856007815181101515610b5657fe5b6020908102909101810151825281019190915260400160002060020154845185906004908110610b8257fe5b6020908102909101015114610b9657600080fd5b610c1f565b836001815181101515610baa57fe5b60209081029091010151600160a060020a031615801590610bea5750836002815181101515610bd557fe5b60209081029091010151600160a060020a0316155b1561010257836001815181101515610bfe57fe5b60209081029091010151600160a060020a03828116911614610b9657600080fd5b60408051600580825260c08201909252906020820160a08038833950506004548251929550600101918591506000908110610c5657fe5b6020908102909101015283518490600c908110610c6f57fe5b90602001906020020151836001815181101515610c8857fe5b60209081029091010152835184906000908110610ca157fe5b90602001906020020151836002815181101515610cba57fe5b6020908102909101015283518490600d908110610cd357fe5b90602001906020020151836003815181101515610cec57fe5b6020908102909101015283518490600e908110610d0557fe5b90602001906020020151836004815181101515610d1e57fe5b60209081029091010152610d3183610728565b9150610d7882856012815181101515610d4657fe5b60209081029091010151865187906013908110610d5f57fe5b90602001906020020151876014815181101515610a6757fe5b600754909150600160a060020a03808316911614610d9557600080fd5b6040805160028082526060820183529091602083019080388339019050509550866001815181101515610dc457fe5b90602001906020020151866000815181101515610ddd57fe5b60209081029091010152865187906006908110610df657fe5b90602001906020020151866001815181101515610e0f57fe5b60209081029091010152610e2286610728565b600454600082815260026020526040902060019182019055885191965088918110610e4957fe5b602090810290910181015160008781526002909252604090912060010155865187906005908110610e7657fe5b60209081029091010151875188906004908110610e8f57fe5b602090810290910181015160008881526002928390526040902092900391015586516001907f6768e9219651a40c194e7dadba7540b112aa9f5495ed9224d694a2ba71ef9742908990600c908110610ee357fe5b90602001906020020151896000815181101515610efc57fe5b906020019060200201518a600d815181101515610f1557fe5b906020019060200201518b600e815181101515610f2e57fe5b906020019060200201516060604051908101604052808e600f815181101515610f5357fe5b602090810290910181015182528f519101908f906010908110610f7257fe5b602090810290910181015182528f519101908f906011908110610f9157fe5b9060200190602002015160001916600019168152506060604051908101604052808f6012815181101515610fc157fe5b90602001906020020151600019166000191681526020018f6013815181101515610fe757fe5b90602001906020020151600019166000191681526020018f601481518110151561100d57fe5b602090810290910181015190915260408051888152918201879052810185905260608082018590526080820190849080838360005b8381101561105a578181015183820152602001611042565b5050505090500182600360200280838360005b8381101561108557818101518382015260200161106d565b50505050905001965050505050505060405180910390a250505050505050565b600260208190526000918252604090912080546001820154928201546003830154600490930154919392909160ff1685565b60408051600880825261012082019092528291606091600091829190602082016101008038833901905050925083600181518110151561111357fe5b9060200190602002015183600081518110151561112c57fe5b6020908102909101015283518490600290811061114557fe5b9060200190602002015183600181518110151561115e57fe5b6020908102909101015283518490600390811061117757fe5b9060200190602002015183600281518110151561119057fe5b602090810290910101528351849060049081106111a957fe5b906020019060200201518360038151811015156111c257fe5b602090810290910101528351849060059081106111db57fe5b906020019060200201518360048151811015156111f457fe5b6020908102909101015283518490600690811061120d57fe5b9060200190602002015183600581518110151561122657fe5b6020908102909101015283518490600790811061123f57fe5b9060200190602002015183600681518110151561125857fe5b6020908102909101015283518490600890811061127157fe5b9060200190602002015183600781518110151561128a57fe5b6020908102909101015261129d83610728565b91508360008151811015156112ae57fe5b6020908102909101015182146112c357600080fd5b6112d682856009815181101515610a3557fe5b90508360018151811015156112e757fe5b60209081029091010151600160a060020a0316158015611327575083600281518110151561131157fe5b60209081029091010151600160a060020a031615155b156113fb5783600281518110151561133b57fe5b60209081029091010151600160a060020a0382811691161461135c57600080fd5b6001600085600781518110151561136f57fe5b6020908102909101810151825281019190915260400160002060010154600160a060020a038281169116146113a357600080fd5b600160008560078151811015156113b657fe5b60209081029091018101518252810191909152604001600020600201548451859060049081106113e257fe5b60209081029091010151146113f657600080fd5b61147f565b83600181518110151561140a57fe5b60209081029091010151600160a060020a03161580159061144a575083600281518110151561143557fe5b60209081029091010151600160a060020a0316155b156101025783600181518110151561145e57fe5b60209081029091010151600160a060020a038281169116146113f657600080fd5b60408051600580825260c08201909252906020820160a080388339505060045482519295506001019185915060009081106114b657fe5b6020908102909101015283518490600c9081106114cf57fe5b906020019060200201518360018151811015156114e857fe5b6020908102909101015283518490600090811061150157fe5b9060200190602002015183600281518110151561151a57fe5b6020908102909101015283518490600d90811061153357fe5b9060200190602002015183600381518110151561154c57fe5b6020908102909101015283518490600e90811061156557fe5b9060200190602002015183600481518110151561157e57fe5b6020908102909101015261159183610728565b91506115a682856012815181101515610d4657fe5b600754909150600160a060020a038083169116146115c357600080fd5b600754600160a060020a031633146115da57600080fd5b60018060008760078151811015156115ee57fe5b60209081029190910181015182528101919091526040016000908120600401805460ff19169215159290921790915585517f6768e9219651a40c194e7dadba7540b112aa9f5495ed9224d694a2ba71ef9742908790600c90811061164e57fe5b9060200190602002015187600081518110151561166757fe5b9060200190602002015188600d81518110151561168057fe5b9060200190602002015189600e81518110151561169957fe5b906020019060200201516060604051908101604052808c600f8151811015156116be57fe5b602090810290910181015182528d519101908d9060109081106116dd57fe5b602090810290910181015182528d519101908d9060119081106116fc57fe5b60209081029091010151905260408051606081019091528c5181908e90601290811061172457fe5b602090810290910181015182528e519101908e90601390811061174357fe5b602090810290910181015182528e519101908e90601490811061176257fe5b602090810290910181015190915260408051888152918201879052810185905260608082018590526080820190849080838360005b838110156117af578181015183820152602001611797565b5050505090500182600360200280838360005b838110156117da5781810151838201526020016117c2565b50505050905001965050505050505060405180910390a25050505050565b60006020819052908152604090208054600182015460029092015490919083565b600754600160a060020a031681565b60055481565b60408051818152606080820183529182916000918291906020820161080080388339019050509250600091505b60208210156118f257506008810260020a8402611880601060f860020a8304046107f6565b835184906002850290811061189157fe5b906020010190600160f860020a031916908160001a9053506118bb601060f860020a8304066107f6565b83836002026001018151811015156118cf57fe5b906020010190600160f860020a031916908160001a90535060019091019061185b565b50909392505050565b60048054600101905580518190600090811061191357fe5b602090810290910181015160045460009081529182905260409091205580518190600190811061193f57fe5b602090810290910181015160045460009081529182905260409091206001015580518190600290811061196e57fe5b60209081029091018101516004805460009081529283905260408320600201919091555482517fea3f2b7078db2e6bbf7c7e2ab4a864450c60236f314da2f4340fc53f70f9297692849181106119c057fe5b906020019060200201518360018151811015156119d957fe5b6020908102909101810151604080519485529184019290925282810191909152519081900360600190a150565b60008060606000808551111515611a1c57600080fd5b846000815181101515611a2b57fe5b906020019060200201519250600190505b8451811015611b0357611a4e8361182e565b9150600286061515611a7657611a6f82610783878481518110151561074f57fe5b9150611a93565b611a90611a8a868381518110151561074f57fe5b8361286f565b91505b816040518082805190602001908083835b60208310611ac35780518252601f199092019160209182019101611aa4565b5181516020939093036101000a60001901801990911692169190911790526040519201829003909120600290990498955050506001919091019050611a3c565b5090949350505050565b606060008260606000806008604051908082528060200260200182016040528015611b42578160200160208202803883390190505b509250836001815181101515611b5457fe5b90602001906020020151836000815181101515611b6d57fe5b60209081029091010152835184906002908110611b8657fe5b90602001906020020151836001815181101515611b9f57fe5b60209081029091010152835184906003908110611bb857fe5b90602001906020020151836002815181101515611bd157fe5b60209081029091010152835184906004908110611bea57fe5b90602001906020020151836003815181101515611c0357fe5b60209081029091010152835184906005908110611c1c57fe5b90602001906020020151836004815181101515611c3557fe5b60209081029091010152835184906006908110611c4e57fe5b90602001906020020151836005815181101515611c6757fe5b60209081029091010152835184906007908110611c8057fe5b90602001906020020151836006815181101515611c9957fe5b60209081029091010152835184906008908110611cb257fe5b90602001906020020151836007815181101515611ccb57fe5b60209081029091010152611cde83610728565b9150836000815181101515611cef57fe5b602090810290910101518214611d0457600080fd5b611d1782856009815181101515610a3557fe5b9050836001815181101515611d2857fe5b60209081029091010151600160a060020a0316158015611d685750836002815181101515611d5257fe5b60209081029091010151600160a060020a031615155b15611e3c57836002815181101515611d7c57fe5b60209081029091010151600160a060020a03828116911614611d9d57600080fd5b60016000856007815181101515611db057fe5b6020908102909101810151825281019190915260400160002060010154600160a060020a03828116911614611de457600080fd5b60016000856007815181101515611df757fe5b6020908102909101810151825281019190915260400160002060020154845185906004908110611e2357fe5b6020908102909101015114611e3757600080fd5b611ec0565b836001815181101515611e4b57fe5b60209081029091010151600160a060020a031615801590611e8b5750836002815181101515611e7657fe5b60209081029091010151600160a060020a0316155b1561010257836001815181101515611e9f57fe5b60209081029091010151600160a060020a03828116911614611e3757600080fd5b60408051600580825260c08201909252906020820160a08038833950506004548251929550600101918591506000908110611ef757fe5b6020908102909101015283518490600c908110611f1057fe5b90602001906020020151836001815181101515611f2957fe5b60209081029091010152835184906000908110611f4257fe5b90602001906020020151836002815181101515611f5b57fe5b6020908102909101015283518490600d908110611f7457fe5b90602001906020020151836003815181101515611f8d57fe5b6020908102909101015283518490600e908110611fa657fe5b90602001906020020151836004815181101515611fbf57fe5b60209081029091010152611fd283610728565b9150611fe782856012815181101515610d4657fe5b600754909150600160a060020a0380831691161461200457600080fd5b60055487600481518110151561201657fe5b60209081029091010151111561202b57600080fd5b604080516002808252606082018352909160208301908038833901905050955086600181518110151561205a57fe5b9060200190602002015186600081518110151561207357fe5b6020908102909101015286518790600690811061208c57fe5b906020019060200201518660018151811015156120a557fe5b602090810290910101526120b886610728565b60008181526002602052604090206004015490955060ff16156120da57600080fd5b600454600086815260026020526040902060019182019055875188919081106120ff57fe5b60209081029091018101516000878152600290925260409091206001015586518790600490811061212c57fe5b6020908102909101810151600087815260029283905260408120928301919091556004909101805460ff1916600117905587516003919089908390811061216f57fe5b6020908102909101810151600160a060020a031682528101919091526040016000205460ff1615612272578660038151811015156121a957fe5b9060200190602002015160019004600160a060020a031663a9059cbb8860028151811015156121d457fe5b6020908102909101015189518a9060049081106121ed57fe5b60209081029091018101516040805160e060020a63ffffffff8716028152600160a060020a0390941660048501526024840191909152516044808401938290030181600087803b15801561224057600080fd5b505af1158015612254573d6000803e3d6000fd5b505050506040513d602081101561226a57600080fd5b506122de9050565b86600181518110151561228157fe5b9060200190602002015160019004600160a060020a03166108fc8860048151811015156122aa57fe5b602090810290910101516040518115909202916000818181858888f193505050501580156122dc573d6000803e3d6000fd5b505b60027f6768e9219651a40c194e7dadba7540b112aa9f5495ed9224d694a2ba71ef974288600c815181101515610ee357fe5b60065481565b6006546004546000828152600160208190526040822092019091558251839190811061233e57fe5b60209081029091018101516000838152600192839052604090208201558251839190811061236857fe5b60209081029091018101516000838152600190925260409091206002908101919091558251839190811061239857fe5b60209081029091018101516000838152600192839052604081206003019190915560068054909201909155825183919081106123d057fe5b60209081029091010151825182907f203792de59a635b49a38a375598d4af1adbb5338d5aac279ec37611d1f0e1448908590600190811061240d57fe5b9060200190602002015185600281518110151561242657fe5b602090810290910181015160408051938452918301528051918290030190a35050565b604080518082018252601c8082527f19457468657265756d205369676e6564204d6573736167653a0a3332000000006020830190815292516000938492839285928b928291908083835b602083106124b25780518252601f199092019160209182019101612493565b51815160209384036101000a6000190180199092169116179052920193845250604080519384900382018420600080865285840180845282905260ff8e1686840152606086018d9052608086018c905291519097506001955060a080860195939450601f198201938290030191865af1158015612533573d6000803e3d6000fd5b5050604051601f1901519998505050505050505050565b60045481565b6000805b825181101561258d57828181518110151561256b57fe5b602090810290910101518414156125855760019150612592565b600101612554565b600091505b5092915050565b600080600080600260008660008151811015156125b257fe5b602090810290910181015182528101919091526040016000206004015460ff16156125dc57600080fd5b600454600260008760008151811015156125f257fe5b60209081029091018101518252810191909152604001600020541061261657600080fd5b6002600086600081518110151561262957fe5b6020908102909101810151825281019190915260400160009081206001015486519095506002919087908290811061265d57fe5b9060200190602002015160001916600019168152602001908152602001600020600201546001900492506002600086600081518110151561269a57fe5b60209081029091018101518252810191909152604001600020600390810154865190935086919081106126c957fe5b6020908102909101810151600160a060020a0381166000908152600390925260409091205490915060ff161561278e5780600160a060020a031663a9059cbb85856040518363ffffffff1660e060020a0281526004018083600160a060020a0316600160a060020a0316815260200182815260200192505050602060405180830381600087803b15801561275c57600080fd5b505af1158015612770573d6000803e3d6000fd5b505050506040513d602081101561278657600080fd5b506128079050565b604051600160a060020a0385169084156108fc029085906000818181858888f193505050501580156127c4573d6000803e3d6000fd5b506001600260008760008151811015156127da57fe5b6020908102919091018101518252810191909152604001600020600401805460ff19169115159190911790555b8451600160a060020a038516908690600090811061282157fe5b602090810290910181015160408051878152928301869052805191927f733a2fbbad52d09b23c64c7210b6598ee1a79fd3614c2052fd6eb9c5604741b0929081900390910190a35050505050565b606080606080606060008088955087945084518651016040519080825280601f01601f1916602001820160405280156128b2578160200160208202803883390190505b50935083925060009150600090505b855181101561291f5785818151811015156128d857fe5b90602001015160f860020a900460f860020a0283838060010194508151811015156128ff57fe5b906020010190600160f860020a031916908160001a9053506001016128c1565b5060005b845181101561298157848181518110151561293a57fe5b90602001015160f860020a900460f860020a02838380600101945081518110151561296157fe5b906020010190600160f860020a031916908160001a905350600101612923565b50909796505050505050505600a165627a7a723058208b77d3b80489a9063e0645d723ab6c7314fa3a09f7eb2059e1dd69b55b1ecb2b0029",
  "source": "pragma solidity ^0.4.23;\n\ncontract Token {\n    function transfer(address _to, uint256 _value) public returns (bool success);\n}\n\ncontract SidechainLib {\n    mapping (uint256 => SidechainLib.Stage) public stages;\n    mapping (bytes32 => SidechainLib.Log) public depositLogs;\n    mapping (bytes32 => SidechainLib.Log) public withdrawalLogs;\n    mapping (address => bool) public assetAddresses;\n    uint256 public stageHeight;\n    uint256 public instantWithdrawMaximum;\n    uint256 public depositSequenceNumber;\n    address public owner;\n\n    string constant version = \"v1.3.0\";\n\n    struct Stage {\n        bytes32 receiptRootHash;\n        bytes32 accountRootHash;\n        bytes32 data;\n    }\n\n    struct Log {\n        bytes32 stage;\n        bytes32 client;\n        bytes32 value;\n        bytes32 assetID;\n        bool flag;\n    }\n\n    event ProposeDeposit (\n        bytes32 indexed _dsn,\n        bytes32 indexed _client,\n        bytes32 _value,\n        bytes32 _assetID\n    );\n\n    event VerifyReceipt (\n        uint256 indexed _type, // { 0: deposit, 1: proposeWithdrawal, 2: instantWithdrawal}\n        bytes32 _gsn,\n        bytes32 _lightTxHash,\n        bytes32 _fromBalance,\n        bytes32 _toBalance,\n        bytes32[3] _sigLightTx,\n        bytes32[3] _sigReceipt\n    );\n\n    event Attach (\n        bytes32 _stageHeight,\n        bytes32 _receiptRootHash,\n        bytes32 _accountRootHash\n    );\n\n    event Withdraw (\n        bytes32 indexed _wsn,\n        bytes32 indexed _client,\n        bytes32 _value,\n        bytes32 _assetID\n    );\n\n    modifier onlyOwner {\n        require(msg.sender == owner);\n        _;\n    }\n\n    modifier isSigValid (bytes32[] _parameter) {\n        /*\n        _parameter[0] = _lightTxHash\n\n        ===lightTxData===\n        _parameter[1] = _from\n        _parameter[2] = _to\n        _parameter[3] = _assetID\n        _parameter[4] = _value\n        _parameter[5] = _fee\n        _parameter[6] = _nonce\n        _parameter[7] = _logID\n        _parameter[8] = _metadataHash\n\n        ===clientLtxSignature===\n        _parameter[9] = _vFromClient\n        _parameter[10] = _rFromClient\n        _parameter[11] = _sFromClient\n\n        ===receipt===\n        _parameter[12] = _gsn,\n        _parameter[13] = _fromBalance,\n        _parameter[14] = _toBalance,\n\n        ===serverLtxSignature===\n        _parameter[15] = _vFromServer\n        _parameter[16] = _rFromServer\n        _parameter[17] = _sFromServer\n\n        ===serverReceiptSignature===\n        _parameter[18] = _vFromServer,\n        _parameter[19] = _rFromServer,\n        _parameter[20] = _sFromServer,\n\n        */\n        bytes32[] memory bytes32Array = new bytes32[](8);\n        bytes32Array[0] = _parameter[1]; // from\n        bytes32Array[1] = _parameter[2]; // to\n        bytes32Array[2] = _parameter[3]; // assetID\n        bytes32Array[3] = _parameter[4]; // value\n        bytes32Array[4] = _parameter[5]; // fee\n        bytes32Array[5] = _parameter[6]; // nonce\n        bytes32Array[6] = _parameter[7]; // logID\n        bytes32Array[7] = _parameter[8]; // metadataHash\n        bytes32 hashMsg = hashArray(bytes32Array);\n        require(hashMsg == _parameter[0]);\n        address signer = verify(hashMsg, uint8(_parameter[9]), _parameter[10], _parameter[11]);\n        if (address(0) == address(_parameter[1]) && address(0) != address(_parameter[2])) {\n            // Deposit\n            require(signer == address(_parameter[2]));\n            require(signer == address(depositLogs[_parameter[7]].client));\n            require(_parameter[4] == depositLogs[_parameter[7]].value);\n        } else if (address(0) != address(_parameter[1]) && address(0) == address(_parameter[2])) {\n            // Withdraw\n            require(signer == address(_parameter[1]));\n        } else {\n            revert();\n        }\n\n        bytes32Array = new bytes32[](5);\n        bytes32Array[0] = bytes32(stageHeight+1); // stageHeight\n        bytes32Array[1] = _parameter[12];         // gsn\n        bytes32Array[2] = _parameter[0];          // lightTxHash\n        bytes32Array[3] = _parameter[13];         // fromBalance\n        bytes32Array[4] = _parameter[14];         // toBalance\n        hashMsg = hashArray(bytes32Array);\n        signer = verify(hashMsg, uint8(_parameter[18]), _parameter[19], _parameter[20]);\n        require (signer == owner);\n        _;\n    }\n\n    function inBytes32Array (bytes32 data, bytes32[] dataArray) constant returns (bool){\n        for (uint i = 0; i < dataArray.length; i++) {\n            if (data == dataArray[i]) {\n                return true;\n            }\n        }\n        return false;\n    }\n\n    function hashArray (bytes32[] dataArray) constant returns (bytes32) {\n        require(dataArray.length > 0);\n        string memory str = bytes32ToString(dataArray[0]);\n        for (uint i = 1; i < dataArray.length; i++) {\n            str = strConcat(str, bytes32ToString(dataArray[i]));\n        }\n        return sha3(str);\n    }\n\n    function calculateSliceRootHash (uint idx, bytes32[] slice) constant returns (bytes32) {\n        require(slice.length > 0);\n        bytes32 rootHash = slice[0];\n        string memory str;\n        for (uint i = 1; i < slice.length; i++) {\n            str = bytes32ToString(rootHash);\n            if (idx % 2 == 0) {\n                str = strConcat(str, bytes32ToString(slice[i]));\n            } else {\n                str = strConcat(bytes32ToString(slice[i]), str);\n            }\n            rootHash = sha3(str);\n            idx = idx >> 1;\n        }\n        return rootHash;\n    }\n\n    function strConcat (string _a, string _b) constant returns (string) {\n        bytes memory bytes_a = bytes(_a);\n        bytes memory bytes_b = bytes(_b);\n        string memory length_ab = new string(bytes_a.length + bytes_b.length);\n        bytes memory bytes_c = bytes(length_ab);\n        uint k = 0;\n        for (uint i = 0; i < bytes_a.length; i++) {bytes_c[k++] = bytes_a[i];}\n        for (i = 0; i < bytes_b.length; i++) {bytes_c[k++] = bytes_b[i];}\n        return string(bytes_c);\n    }\n\n    function bytes32ToString (bytes32 b32) constant returns (string) {\n        bytes memory bytesString = new bytes(64);\n        for (uint i = 0; i < 32; i++) {\n            byte char = byte(bytes32(uint(b32) * 2 ** (8 * i)));\n            bytesString[i*2+0] = uintToAscii(uint(char) / 16);\n            bytesString[i*2+1] = uintToAscii(uint(char) % 16);\n        }\n        return string(bytesString);\n    }\n\n    function uintToAscii (uint number) constant returns(byte) {\n        if (number < 10) {\n            return byte(48 + number);\n        } else if (number < 16) {\n            // asciicode a = 97 return 10\n            return byte(87 + number);\n        } else {\n            revert();\n        }\n    }\n\n    function verify (bytes32 _message, uint8 _v, bytes32 _r, bytes32 _s) constant returns (address) {\n        bytes memory prefix = \"\\x19Ethereum Signed Message:\\n32\";\n        bytes32 prefixedHash = sha3(prefix, _message);\n        address signer = ecrecover(prefixedHash, _v, _r, _s);\n        return signer;\n    }\n\n    function attach (bytes32[] _parameter) {\n        /*\n        _parameter[0] = _receiptRootHash\n        _parameter[1] = _accountRootHash\n        _parameter[2] = _data\n        */\n        stageHeight++;\n        stages[stageHeight].receiptRootHash = _parameter[0];\n        stages[stageHeight].accountRootHash = _parameter[1];\n        stages[stageHeight].data = _parameter[2];\n        emit Attach (bytes32(stageHeight), _parameter[0], _parameter[1]);\n    }\n\n    function proposeDeposit (bytes32[] _parameter) payable {\n        /*\n        _parameter[0] = client\n        _parameter[1] = value\n        _parameter[2] = assetID\n        */\n        bytes32 dsn = bytes32(depositSequenceNumber);\n        depositLogs[dsn].stage = bytes32(stageHeight + 1);\n        depositLogs[dsn].client = _parameter[0];\n        depositLogs[dsn].value = _parameter[1];\n        depositLogs[dsn].assetID = _parameter[2];\n        depositSequenceNumber++;\n\n        emit ProposeDeposit (dsn, _parameter[0], _parameter[1], _parameter[2]);\n    }\n\n    function deposit (bytes32[] _parameter) isSigValid (_parameter) public onlyOwner {\n        depositLogs[_parameter[7]].flag = true;\n\n        emit VerifyReceipt ( 0,\n                             _parameter[12],\n                             _parameter[0],\n                             _parameter[13],\n                             _parameter[14],\n                             [ _parameter[15],\n                               _parameter[16],\n                               _parameter[17]],\n                             [ _parameter[18],\n                               _parameter[19],\n                               _parameter[20]]);\n    }\n\n    function proposeWithdrawal (bytes32[] _parameter) isSigValid (_parameter) public {\n        /*\n        wsn = concat(from + nonce)\n        */\n        bytes32[] memory bytes32Array = new bytes32[](2);\n        bytes32Array[0] = _parameter[1]; // from\n        bytes32Array[1] = _parameter[6]; // nonce\n        bytes32 wsn = hashArray(bytes32Array);\n\n        withdrawalLogs[wsn].stage = bytes32(stageHeight+1);\n        withdrawalLogs[wsn].client = _parameter[1];\n        withdrawalLogs[wsn].value = bytes32(uint256(_parameter[4]) - uint256(_parameter[5])); // value - fee\n\n        emit VerifyReceipt ( 1,\n                             _parameter[12],\n                             _parameter[0],\n                             _parameter[13],\n                             _parameter[14],\n                             [ _parameter[15],\n                               _parameter[16],\n                               _parameter[17]],\n                             [ _parameter[18],\n                               _parameter[19],\n                               _parameter[20]]);\n    }\n\n    function withdraw (bytes32[] _parameter) public {\n        /*\n        _parameter[0] = _wsn\n        */\n        // flag = false\n        require(!withdrawalLogs[_parameter[0]].flag);\n        // over challenge time\n        require (uint256(withdrawalLogs[_parameter[0]].stage) < stageHeight);\n        address client = address(withdrawalLogs[_parameter[0]].client);\n        uint256 value = uint256(withdrawalLogs[_parameter[0]].value);\n        bytes32 assetID = bytes32(withdrawalLogs[_parameter[0]].assetID);\n        address assetAddress = address(_parameter[3]);\n        if (assetAddresses[assetAddress] != false) {\n            Token(assetAddress).transfer(client, value);\n        } else {\n            client.transfer(value);\n            withdrawalLogs[_parameter[0]].flag = true;\n        }\n        emit Withdraw (_parameter[0], bytes32(client), bytes32(value), assetID);\n    }\n\n    function instantWithdraw (bytes32[] _parameter) isSigValid (_parameter) public {\n        // instantWithdraw condition\n        require (uint256(_parameter[4]) <= instantWithdrawMaximum);\n        /*\n        wsn = concat(from + nonce)\n        */\n        bytes32[] memory bytes32Array = new bytes32[](2);\n        bytes32Array[0] = _parameter[1]; // from\n        bytes32Array[1] = _parameter[6]; // nonce\n        bytes32 wsn = hashArray(bytes32Array);\n\n        require(withdrawalLogs[wsn].flag == false);\n        withdrawalLogs[wsn].stage = bytes32(stageHeight+1);\n        withdrawalLogs[wsn].client = _parameter[1];\n        withdrawalLogs[wsn].value = _parameter[4];\n        withdrawalLogs[wsn].flag = true;\n\n        if (assetAddresses[address(_parameter[3])] != false) {\n            Token(address(_parameter[3])).transfer(address(_parameter[2]), uint256(_parameter[4]));\n        } else {\n            address(_parameter[1]).transfer(uint256(_parameter[4]));\n        }\n\n        emit VerifyReceipt ( 2,\n                             _parameter[12],\n                             _parameter[0],\n                             _parameter[13],\n                             _parameter[14],\n                             [ _parameter[15],\n                               _parameter[16],\n                               _parameter[17]],\n                             [ _parameter[18],\n                               _parameter[19],\n                               _parameter[20]]);\n    }\n}\n",
  "sourcePath": "/Users/peter.lai/Desktop/Projects/contracts/gringotts/contracts/SidechainLib.sol",
  "compiler": {
    "name": "solc",
    "version": "0.4.24+commit.e67f0147.Emscripten.clang"
  },
  "schemaVersion": "2.0.0",
  "updatedAt": "2018-07-06T02:33:21.304Z"
}