{
  "contractName": "Sidechain",
  "abi": [
    {
      "constant": true,
      "inputs": [
        {
          "name": "",
          "type": "bytes32"
        }
      ],
      "name": "depositLogs",
      "outputs": [
        {
          "name": "stage",
          "type": "bytes32"
        },
        {
          "name": "client",
          "type": "bytes32"
        },
        {
          "name": "value",
          "type": "bytes32"
        },
        {
          "name": "flag",
          "type": "bool"
        }
      ],
      "payable": false,
      "stateMutability": "view",
      "type": "function"
    },
    {
      "constant": true,
      "inputs": [
        {
          "name": "",
          "type": "bytes32"
        }
      ],
      "name": "withdrawalLogs",
      "outputs": [
        {
          "name": "stage",
          "type": "bytes32"
        },
        {
          "name": "client",
          "type": "bytes32"
        },
        {
          "name": "value",
          "type": "bytes32"
        },
        {
          "name": "flag",
          "type": "bool"
        }
      ],
      "payable": false,
      "stateMutability": "view",
      "type": "function"
    },
    {
      "constant": true,
      "inputs": [],
      "name": "description",
      "outputs": [
        {
          "name": "",
          "type": "string"
        }
      ],
      "payable": false,
      "stateMutability": "view",
      "type": "function"
    },
    {
      "constant": true,
      "inputs": [
        {
          "name": "",
          "type": "uint256"
        }
      ],
      "name": "stages",
      "outputs": [
        {
          "name": "receiptRootHash",
          "type": "bytes32"
        },
        {
          "name": "accountRootHash",
          "type": "bytes32"
        },
        {
          "name": "data",
          "type": "bytes32"
        }
      ],
      "payable": false,
      "stateMutability": "view",
      "type": "function"
    },
    {
      "constant": true,
      "inputs": [],
      "name": "owner",
      "outputs": [
        {
          "name": "",
          "type": "address"
        }
      ],
      "payable": false,
      "stateMutability": "view",
      "type": "function"
    },
    {
      "constant": true,
      "inputs": [],
      "name": "depositSequenceNumber",
      "outputs": [
        {
          "name": "",
          "type": "uint256"
        }
      ],
      "payable": false,
      "stateMutability": "view",
      "type": "function"
    },
    {
      "constant": true,
      "inputs": [],
      "name": "sidechainLibAddress",
      "outputs": [
        {
          "name": "",
          "type": "address"
        }
      ],
      "payable": false,
      "stateMutability": "view",
      "type": "function"
    },
    {
      "constant": true,
      "inputs": [],
      "name": "stageHeight",
      "outputs": [
        {
          "name": "",
          "type": "uint256"
        }
      ],
      "payable": false,
      "stateMutability": "view",
      "type": "function"
    },
    {
      "inputs": [
        {
          "name": "_sidechainOwner",
          "type": "address"
        },
        {
          "name": "_sidechainLibAddress",
          "type": "address"
        }
      ],
      "payable": false,
      "stateMutability": "nonpayable",
      "type": "constructor"
    },
    {
      "payable": true,
      "stateMutability": "payable",
      "type": "fallback"
    },
    {
      "anonymous": false,
      "inputs": [
        {
          "indexed": true,
          "name": "_dsn",
          "type": "bytes32"
        },
        {
          "indexed": false,
          "name": "_client",
          "type": "bytes32"
        },
        {
          "indexed": false,
          "name": "_value",
          "type": "bytes32"
        }
      ],
      "name": "ProposeDeposit",
      "type": "event"
    },
    {
      "anonymous": false,
      "inputs": [
        {
          "indexed": true,
          "name": "_type",
          "type": "uint256"
        },
        {
          "indexed": false,
          "name": "_gsn",
          "type": "bytes32"
        },
        {
          "indexed": false,
          "name": "_lightTxHash",
          "type": "bytes32"
        },
        {
          "indexed": false,
          "name": "_fromBalance",
          "type": "bytes32"
        },
        {
          "indexed": false,
          "name": "_toBalance",
          "type": "bytes32"
        },
        {
          "indexed": false,
          "name": "_sigLightTx",
          "type": "bytes32[3]"
        },
        {
          "indexed": false,
          "name": "_sigReceipt",
          "type": "bytes32[3]"
        }
      ],
      "name": "VerifyReceipt",
      "type": "event"
    },
    {
      "anonymous": false,
      "inputs": [
        {
          "indexed": false,
          "name": "_stageHeight",
          "type": "bytes32"
        },
        {
          "indexed": false,
          "name": "_receiptRootHash",
          "type": "bytes32"
        },
        {
          "indexed": false,
          "name": "_accountRootHash",
          "type": "bytes32"
        }
      ],
      "name": "Attach",
      "type": "event"
    },
    {
      "anonymous": false,
      "inputs": [
        {
          "indexed": true,
          "name": "_wsn",
          "type": "bytes32"
        },
        {
          "indexed": false,
          "name": "_client",
          "type": "bytes32"
        },
        {
          "indexed": false,
          "name": "_value",
          "type": "bytes32"
        }
      ],
      "name": "Withdraw",
      "type": "event"
    },
    {
      "constant": false,
      "inputs": [
        {
          "name": "_signature",
          "type": "bytes4"
        },
        {
          "name": "_parameter",
          "type": "bytes32[]"
        }
      ],
      "name": "delegateToLib",
      "outputs": [],
      "payable": true,
      "stateMutability": "payable",
      "type": "function"
    }
  ],
  "bytecode": "0x608060405234801561001057600080fd5b506040516040806106fe833981016040818152825160209384015160048054600160a060020a03808516600160a060020a031992831617835560058054918516919092161790558385019093528284527f7465737400000000000000000000000000000000000000000000000000000000949093019384529261009691600791906100d6565b505060035460009081526020819052604090207f67656e697369732073746167650000000000000000000000000000000000000060029091015550610171565b828054600181600116156101000203166002900490600052602060002090601f016020900481019282601f1061011757805160ff1916838001178555610144565b82800160010185558215610144579182015b82811115610144578251825591602001919060010190610129565b50610150929150610154565b5090565b61016e91905b80821115610150576000815560010161015a565b90565b61057e806101806000396000f30060806040526004361061007e5763ffffffff60e060020a600035041662f817d6811461013f5780636cdcf1501461017f5780637284e41614610197578063845ddcb2146102215780638da5cb5b14610257578063c9a557fb14610295578063cc6e7a1414610306578063cff50d3e1461032d578063f418eae414610342575b60408051600380825260808201909252606091602082018380388339505060065482519293509183915060009081106100b357fe5b60209081029091010152805173ffffffffffffffffffffffffffffffffffffffff331690829060019081106100e457fe5b6020908102909101015280513490829060029081106100ff57fe5b602090810290910101526101337fdcf12aba0000000000000000000000000000000000000000000000000000000082610357565b50600680546001019055005b34801561014b57600080fd5b50610157600435610408565b6040805194855260208501939093528383019190915215156060830152519081900360800190f35b34801561018b57600080fd5b50610157600435610433565b3480156101a357600080fd5b506101ac61045f565b6040805160208082528351818301528351919283929083019185019080838360005b838110156101e65781810151838201526020016101ce565b50505050905090810190601f1680156102135780820380516001836020036101000a031916815260200191505b509250505060405180910390f35b34801561022d57600080fd5b506102396004356104ed565b60408051938452602084019290925282820152519081900360600190f35b34801561026357600080fd5b5061026c61050e565b6040805173ffffffffffffffffffffffffffffffffffffffff9092168252519081900360200190f35b6040805160206004602480358281013584810280870186019097528086526103049684357fffffffff0000000000000000000000000000000000000000000000000000000016963696604495919490910192918291850190849080828437509497506103579650505050505050565b005b34801561031257600080fd5b5061031b61052a565b60408051918252519081900360200190f35b34801561033957600080fd5b5061026c610530565b34801561034e57600080fd5b5061031b61054c565b600560009054906101000a900473ffffffffffffffffffffffffffffffffffffffff1673ffffffffffffffffffffffffffffffffffffffff168260e060020a900460208351846040518463ffffffff1660e060020a02815260040180848152602001838152602001828051906020019060200280838360005b838110156103e85781810151838201526020016103d0565b505050509050019350505050600060405180830381865af4505050505050565b6001602081905260009182526040909120805491810154600282015460039092015490919060ff1684565b600260208190526000918252604090912080546001820154928201546003909201549092919060ff1684565b6007805460408051602060026001851615610100026000190190941693909304601f810184900484028201840190925281815292918301828280156104e55780601f106104ba576101008083540402835291602001916104e5565b820191906000526020600020905b8154815290600101906020018083116104c857829003601f168201915b505050505081565b60006020819052908152604090208054600182015460029092015490919083565b60045473ffffffffffffffffffffffffffffffffffffffff1681565b60065481565b60055473ffffffffffffffffffffffffffffffffffffffff1681565b600354815600a165627a7a7230582006bc9a657f36f6d03f6cc27d598228cad4df3f8d95ae5e59d9910ab46856fd750029",
  "source": "pragma solidity ^0.4.23;\n\nimport \"./SidechainLib.sol\";\n\ncontract Sidechain {\n    mapping (uint256 => SidechainLib.Stage) public stages;\n    mapping (bytes32 => SidechainLib.Log) public depositLogs;\n    mapping (bytes32 => SidechainLib.Log) public withdrawalLogs;\n    uint256 public stageHeight;\n    address public owner;\n\n    address public sidechainLibAddress;\n    uint256 public depositSequenceNumber;\n    string public description;\n\n    event ProposeDeposit (\n        bytes32 indexed _dsn,\n        bytes32 _client,\n        bytes32 _value\n    );\n\n    event VerifyReceipt (\n        uint256 indexed _type, // { 0: deposit, 1: proposeWithdrawal, 2: instantWithdrawal}\n        bytes32 _gsn,\n        bytes32 _lightTxHash,\n        bytes32 _fromBalance,\n        bytes32 _toBalance,\n        bytes32[3] _sigLightTx,\n        bytes32[3] _sigReceipt\n    );\n\n    event Attach (\n        bytes32 _stageHeight,\n        bytes32 _receiptRootHash,\n        bytes32 _accountRootHash\n    );\n\n    event Withdraw (\n        bytes32 indexed _wsn,\n        bytes32 _client,\n        bytes32 _value\n    );\n\n    function Sidechain (address _sidechainOwner, address _sidechainLibAddress) {\n        owner = _sidechainOwner;\n        sidechainLibAddress = _sidechainLibAddress;\n        description = \"test\";\n        stages[stageHeight].data = \"genisis stage\";\n    }\n\n    function delegateToLib (bytes4 _signature, bytes32[] _parameter) payable {\n        /*\n        'attach(bytes32[])':             0x95aa4aac\n        'proposeDeposit(bytes32[])':     0xdcf12aba\n        'deposit(bytes32[])':            0x7b9d7d74\n        'proposeWithdrawal(bytes32[])':  0x68ff1929\n        'withdraw(bytes32[])':           0xfe2b3924\n        'instantWithdraw(bytes32[])':    0xbe1946da\n        */\n        sidechainLibAddress.delegatecall( _signature, uint256(32), uint256(_parameter.length), _parameter);\n    }\n\n    function () payable {\n        /*\n        called delegateToLib to 'proposeDeposit(bytes32[])'\n        gas used : 127075\n        gad used : 106627\n        suggested gas : 150000\n        */\n        bytes32[] memory bytes32Array = new bytes32[](3);\n        bytes32Array[0] = bytes32(depositSequenceNumber);\n        bytes32Array[1] = bytes32(msg.sender);\n        bytes32Array[2] = bytes32(msg.value);\n        delegateToLib(0xdcf12aba, bytes32Array);\n        depositSequenceNumber++;\n    }\n}\n",
  "sourcePath": "/Users/juinc/infinitechain/infinitechain_contract/gringotts/contracts/Sidechain.sol",
  "compiler": {
    "name": "solc",
    "version": "0.4.23+commit.124ca40d.Emscripten.clang"
  },
  "schemaVersion": "2.0.0",
  "updatedAt": "2018-05-18T10:53:08.089Z"
}