{
  "contractName": "SidechainLib",
  "abi": [
    {
      "constant": true,
      "inputs": [
        {
          "name": "",
          "type": "bytes32"
        }
      ],
      "name": "depositLogs",
      "outputs": [
        {
          "name": "stage",
          "type": "bytes32"
        },
        {
          "name": "client",
          "type": "bytes32"
        },
        {
          "name": "value",
          "type": "bytes32"
        },
        {
          "name": "flag",
          "type": "bool"
        }
      ],
      "payable": false,
      "stateMutability": "view",
      "type": "function"
    },
    {
      "constant": true,
      "inputs": [
        {
          "name": "",
          "type": "bytes32"
        }
      ],
      "name": "withdrawalLogs",
      "outputs": [
        {
          "name": "stage",
          "type": "bytes32"
        },
        {
          "name": "client",
          "type": "bytes32"
        },
        {
          "name": "value",
          "type": "bytes32"
        },
        {
          "name": "flag",
          "type": "bool"
        }
      ],
      "payable": false,
      "stateMutability": "view",
      "type": "function"
    },
    {
      "constant": true,
      "inputs": [
        {
          "name": "",
          "type": "uint256"
        }
      ],
      "name": "stages",
      "outputs": [
        {
          "name": "receiptRootHash",
          "type": "bytes32"
        },
        {
          "name": "accountRootHash",
          "type": "bytes32"
        },
        {
          "name": "data",
          "type": "bytes32"
        }
      ],
      "payable": false,
      "stateMutability": "view",
      "type": "function"
    },
    {
      "constant": true,
      "inputs": [],
      "name": "owner",
      "outputs": [
        {
          "name": "",
          "type": "address"
        }
      ],
      "payable": false,
      "stateMutability": "view",
      "type": "function"
    },
    {
      "constant": true,
      "inputs": [],
      "name": "stageHeight",
      "outputs": [
        {
          "name": "",
          "type": "uint256"
        }
      ],
      "payable": false,
      "stateMutability": "view",
      "type": "function"
    },
    {
      "anonymous": false,
      "inputs": [
        {
          "indexed": true,
          "name": "_dsn",
          "type": "bytes32"
        },
        {
          "indexed": false,
          "name": "_client",
          "type": "bytes32"
        },
        {
          "indexed": false,
          "name": "_value",
          "type": "bytes32"
        }
      ],
      "name": "ProposeDeposit",
      "type": "event"
    },
    {
      "anonymous": false,
      "inputs": [
        {
          "indexed": true,
          "name": "_type",
          "type": "uint256"
        },
        {
          "indexed": false,
          "name": "_gsn",
          "type": "bytes32"
        },
        {
          "indexed": false,
          "name": "_lightTxHash",
          "type": "bytes32"
        },
        {
          "indexed": false,
          "name": "_fromBalance",
          "type": "bytes32"
        },
        {
          "indexed": false,
          "name": "_toBalance",
          "type": "bytes32"
        },
        {
          "indexed": false,
          "name": "_sigLightTx",
          "type": "bytes32[3]"
        },
        {
          "indexed": false,
          "name": "_sigReceipt",
          "type": "bytes32[3]"
        }
      ],
      "name": "VerifyReceipt",
      "type": "event"
    },
    {
      "anonymous": false,
      "inputs": [
        {
          "indexed": false,
          "name": "_stageHeight",
          "type": "bytes32"
        },
        {
          "indexed": false,
          "name": "_receiptRootHash",
          "type": "bytes32"
        },
        {
          "indexed": false,
          "name": "_accountRootHash",
          "type": "bytes32"
        }
      ],
      "name": "Attach",
      "type": "event"
    },
    {
      "anonymous": false,
      "inputs": [
        {
          "indexed": true,
          "name": "_wsn",
          "type": "bytes32"
        },
        {
          "indexed": false,
          "name": "_client",
          "type": "bytes32"
        },
        {
          "indexed": false,
          "name": "_value",
          "type": "bytes32"
        }
      ],
      "name": "Withdraw",
      "type": "event"
    },
    {
      "constant": true,
      "inputs": [
        {
          "name": "data",
          "type": "bytes32"
        },
        {
          "name": "dataArray",
          "type": "bytes32[]"
        }
      ],
      "name": "inBytes32Array",
      "outputs": [
        {
          "name": "",
          "type": "bool"
        }
      ],
      "payable": false,
      "stateMutability": "view",
      "type": "function"
    },
    {
      "constant": true,
      "inputs": [
        {
          "name": "dataArray",
          "type": "bytes32[]"
        }
      ],
      "name": "hashArray",
      "outputs": [
        {
          "name": "",
          "type": "bytes32"
        }
      ],
      "payable": false,
      "stateMutability": "view",
      "type": "function"
    },
    {
      "constant": true,
      "inputs": [
        {
          "name": "idx",
          "type": "uint256"
        },
        {
          "name": "slice",
          "type": "bytes32[]"
        }
      ],
      "name": "calculateSliceRootHash",
      "outputs": [
        {
          "name": "",
          "type": "bytes32"
        }
      ],
      "payable": false,
      "stateMutability": "view",
      "type": "function"
    },
    {
      "constant": true,
      "inputs": [
        {
          "name": "_a",
          "type": "string"
        },
        {
          "name": "_b",
          "type": "string"
        }
      ],
      "name": "strConcat",
      "outputs": [
        {
          "name": "",
          "type": "string"
        }
      ],
      "payable": false,
      "stateMutability": "view",
      "type": "function"
    },
    {
      "constant": true,
      "inputs": [
        {
          "name": "b32",
          "type": "bytes32"
        }
      ],
      "name": "bytes32ToString",
      "outputs": [
        {
          "name": "",
          "type": "string"
        }
      ],
      "payable": false,
      "stateMutability": "view",
      "type": "function"
    },
    {
      "constant": true,
      "inputs": [
        {
          "name": "number",
          "type": "uint256"
        }
      ],
      "name": "uintToAscii",
      "outputs": [
        {
          "name": "",
          "type": "bytes1"
        }
      ],
      "payable": false,
      "stateMutability": "view",
      "type": "function"
    },
    {
      "constant": true,
      "inputs": [
        {
          "name": "_message",
          "type": "bytes32"
        },
        {
          "name": "_v",
          "type": "uint8"
        },
        {
          "name": "_r",
          "type": "bytes32"
        },
        {
          "name": "_s",
          "type": "bytes32"
        }
      ],
      "name": "verify",
      "outputs": [
        {
          "name": "",
          "type": "address"
        }
      ],
      "payable": false,
      "stateMutability": "view",
      "type": "function"
    },
    {
      "constant": false,
      "inputs": [
        {
          "name": "_parameter",
          "type": "bytes32[]"
        }
      ],
      "name": "attach",
      "outputs": [],
      "payable": false,
      "stateMutability": "nonpayable",
      "type": "function"
    },
    {
      "constant": false,
      "inputs": [
        {
          "name": "_parameter",
          "type": "bytes32[]"
        }
      ],
      "name": "proposeDeposit",
      "outputs": [],
      "payable": true,
      "stateMutability": "payable",
      "type": "function"
    },
    {
      "constant": false,
      "inputs": [
        {
          "name": "_parameter",
          "type": "bytes32[]"
        }
      ],
      "name": "deposit",
      "outputs": [],
      "payable": false,
      "stateMutability": "nonpayable",
      "type": "function"
    },
    {
      "constant": false,
      "inputs": [
        {
          "name": "_parameter",
          "type": "bytes32[]"
        }
      ],
      "name": "proposeWithdrawal",
      "outputs": [],
      "payable": false,
      "stateMutability": "nonpayable",
      "type": "function"
    },
    {
      "constant": false,
      "inputs": [
        {
          "name": "_parameter",
          "type": "bytes32[]"
        }
      ],
      "name": "withdraw",
      "outputs": [],
      "payable": false,
      "stateMutability": "nonpayable",
      "type": "function"
    },
    {
      "constant": false,
      "inputs": [
        {
          "name": "_parameter",
          "type": "bytes32[]"
        }
      ],
      "name": "instantWithdraw",
      "outputs": [],
      "payable": false,
      "stateMutability": "nonpayable",
      "type": "function"
    }
  ],
  "bytecode": "0x608060405234801561001057600080fd5b506124c7806100206000396000f3006080604052600436106100fa5763ffffffff7c0100000000000000000000000000000000000000000000000000000000600035041662f817d681146100ff578063422335471461013f5780634a7c7e46146101a657806368ff1929146101f35780636cdcf1501461024a5780637b9d7d7414610262578063845ddcb2146102b75780638da5cb5b146102ed5780639201de551461031e57806395aa4aac146103ab578063a87a8c1714610400578063be1946da1461045a578063dcf12aba146104af578063f1835db7146104f7578063f418eae41461051b578063f661bec514610530578063fe2b39241461059e578063ff74927b146105f3575b600080fd5b34801561010b57600080fd5b5061011760043561068a565b6040805194855260208501939093528383019190915215156060830152519081900360800190f35b34801561014b57600080fd5b5060408051602060048035808201358381028086018501909652808552610194953695939460249493850192918291850190849080828437509497506106b59650505050505050565b60408051918252519081900360200190f35b3480156101b257600080fd5b506101be600435610783565b604080517fff000000000000000000000000000000000000000000000000000000000000009092168252519081900360200190f35b3480156101ff57600080fd5b5060408051602060048035808201358381028086018501909652808552610248953695939460249493850192918291850190849080828437509497506107b89650505050505050565b005b34801561025657600080fd5b50610117600435610f6b565b34801561026e57600080fd5b506040805160206004803580820135838102808601850190965280855261024895369593946024949385019291829185019084908082843750949750610f979650505050505050565b3480156102c357600080fd5b506102cf600435611605565b60408051938452602084019290925282820152519081900360600190f35b3480156102f957600080fd5b50610302611626565b60408051600160a060020a039092168252519081900360200190f35b34801561032a57600080fd5b50610336600435611635565b6040805160208082528351818301528351919283929083019185019080838360005b83811015610370578181015183820152602001610358565b50505050905090810190601f16801561039d5780820380516001836020036101000a031916815260200191505b509250505060405180910390f35b3480156103b757600080fd5b5060408051602060048035808201358381028086018501909652808552610248953695939460249493850192918291850190849080828437509497506117029650505050505050565b34801561040c57600080fd5b506040805160206004602480358281013584810280870186019097528086526101949684359636966044959194909101929182918501908490808284375094975061180d9650505050505050565b34801561046657600080fd5b5060408051602060048035808201358381028086018501909652808552610248953695939460249493850192918291850190849080828437509497506119149650505050505050565b6040805160206004803580820135838102808601850190965280855261024895369593946024949385019291829185019084908082843750949750611f1c9650505050505050565b34801561050357600080fd5b5061030260043560ff6024351660443560643561206c565b34801561052757600080fd5b5061019461216d565b34801561053c57600080fd5b5060408051602060046024803582810135848102808701860190975280865261058a968435963696604495919490910192918291850190849080828437509497506121739650505050505050565b604080519115158252519081900360200190f35b3480156105aa57600080fd5b5060408051602060048035808201358381028086018501909652808552610248953695939460249493850192918291850190849080828437509497506121bc9650505050505050565b3480156105ff57600080fd5b506040805160206004803580820135601f810184900484028501840190955284845261033694369492936024939284019190819084018382808284375050604080516020601f89358b018035918201839004830284018301909452808352979a99988101979196509182019450925082915084018382808284375094975061237c9650505050505050565b6001602081905260009182526040909120805491810154600282015460039092015490919060ff1684565b6000606060008084511115156106ca57600080fd5b6106eb8460008151811015156106dc57fe5b90602001906020020151611635565b9150600190505b835181101561071f576107158261071086848151811015156106dc57fe5b61237c565b91506001016106f2565b816040518082805190602001908083835b6020831061074f5780518252601f199092019160209182019101610730565b5181516020939093036101000a60001901801990911692169190911790526040519201829003909120979650505050505050565b6000600a82101561079e575060f860020a60308201026107b3565b60108210156100fa575060f860020a60578201025b919050565b6060600082606060008060056040519080825280602002602001820160405280156107ed578160200160208202803883390190505b5092508360018151811015156107ff57fe5b9060200190602002015183600081518110151561081857fe5b6020908102909101015283518490600290811061083157fe5b9060200190602002015183600181518110151561084a57fe5b6020908102909101015283518490600390811061086357fe5b9060200190602002015183600281518110151561087c57fe5b6020908102909101015283518490600490811061089557fe5b906020019060200201518360038151811015156108ae57fe5b602090810290910101528351849060059081106108c757fe5b906020019060200201518360048151811015156108e057fe5b602090810290910101526108f3836106b5565b915083600081518110151561090457fe5b60209081029091010151821461091957600080fd5b61096d8285600681518110151561092c57fe5b6020908102909101015186518790600790811061094557fe5b9060200190602002015187600881518110151561095e57fe5b9060200190602002015161206c565b905083600181518110151561097e57fe5b60209081029091010151600160a060020a03161580156109be57508360028151811015156109a857fe5b60209081029091010151600160a060020a031615155b15610a92578360028151811015156109d257fe5b60209081029091010151600160a060020a038281169116146109f357600080fd5b60016000856012815181101515610a0657fe5b6020908102909101810151825281019190915260400160002060010154600160a060020a03828116911614610a3a57600080fd5b60016000856012815181101515610a4d57fe5b6020908102909101810151825281019190915260400160002060020154845185906003908110610a7957fe5b6020908102909101015114610a8d57600080fd5b610b16565b836001815181101515610aa157fe5b60209081029091010151600160a060020a031615801590610ae15750836002815181101515610acc57fe5b60209081029091010151600160a060020a0316155b156100fa57836001815181101515610af557fe5b60209081029091010151600160a060020a03828116911614610a8d57600080fd5b600354600101600102836000815181101515610b2e57fe5b60209081029091010152835184906009908110610b4757fe5b90602001906020020151836001815181101515610b6057fe5b60209081029091010152835184906000908110610b7957fe5b90602001906020020151836002815181101515610b9257fe5b6020908102909101015283518490600a908110610bab57fe5b90602001906020020151836003815181101515610bc457fe5b6020908102909101015283518490600b908110610bdd57fe5b90602001906020020151836004815181101515610bf657fe5b60209081029091010152610c09836106b5565b9150610c508285600f815181101515610c1e57fe5b60209081029091010151865187906010908110610c3757fe5b9060200190602002015187601181518110151561095e57fe5b600454909150600160a060020a03808316911614610c6d57600080fd5b604080516002808252606082018352909160208301908038833950506003548251929850600101918891506000908110610ca357fe5b60209081029091010152865187906009908110610cbc57fe5b90602001906020020151866001815181101515610cd557fe5b60209081029091010152610ce8866106b5565b600354600082815260026020526040902060019182019055885191965088918110610d0f57fe5b602090810290910181015160008781526002909252604090912060010155865187906004908110610d3c57fe5b60209081029091010151875188906003908110610d5557fe5b602090810290910181015160008881526002928390526040902092900391015586516001907f6768e9219651a40c194e7dadba7540b112aa9f5495ed9224d694a2ba71ef97429089906009908110610da957fe5b90602001906020020151896000815181101515610dc257fe5b906020019060200201518a600a815181101515610ddb57fe5b906020019060200201518b600b815181101515610df457fe5b906020019060200201516060604051908101604052808e600c815181101515610e1957fe5b602090810290910181015182528f519101908f90600d908110610e3857fe5b602090810290910181015182528f519101908f90600e908110610e5757fe5b9060200190602002015160001916600019168152506060604051908101604052808f600f815181101515610e8757fe5b90602001906020020151600019166000191681526020018f6010815181101515610ead57fe5b90602001906020020151600019166000191681526020018f6011815181101515610ed357fe5b602090810290910181015190915260408051888152918201879052810185905260608082018590526080820190849080838360005b83811015610f20578181015183820152602001610f08565b5050505090500182600360200280838360005b83811015610f4b578181015183820152602001610f33565b50505050905001965050505050505060405180910390a250505050505050565b600260208190526000918252604090912080546001820154928201546003909201549092919060ff1684565b60408051600580825260c0820190925282916060916000918291906020820160a080388339019050509250836001815181101515610fd157fe5b90602001906020020151836000815181101515610fea57fe5b6020908102909101015283518490600290811061100357fe5b9060200190602002015183600181518110151561101c57fe5b6020908102909101015283518490600390811061103557fe5b9060200190602002015183600281518110151561104e57fe5b6020908102909101015283518490600490811061106757fe5b9060200190602002015183600381518110151561108057fe5b6020908102909101015283518490600590811061109957fe5b906020019060200201518360048151811015156110b257fe5b602090810290910101526110c5836106b5565b91508360008151811015156110d657fe5b6020908102909101015182146110eb57600080fd5b6110fe8285600681518110151561092c57fe5b905083600181518110151561110f57fe5b60209081029091010151600160a060020a031615801561114f575083600281518110151561113957fe5b60209081029091010151600160a060020a031615155b156112235783600281518110151561116357fe5b60209081029091010151600160a060020a0382811691161461118457600080fd5b6001600085601281518110151561119757fe5b6020908102909101810151825281019190915260400160002060010154600160a060020a038281169116146111cb57600080fd5b600160008560128151811015156111de57fe5b602090810290910181015182528101919091526040016000206002015484518590600390811061120a57fe5b602090810290910101511461121e57600080fd5b6112a7565b83600181518110151561123257fe5b60209081029091010151600160a060020a031615801590611272575083600281518110151561125d57fe5b60209081029091010151600160a060020a0316155b156100fa5783600181518110151561128657fe5b60209081029091010151600160a060020a0382811691161461121e57600080fd5b6003546001016001028360008151811015156112bf57fe5b602090810290910101528351849060099081106112d857fe5b906020019060200201518360018151811015156112f157fe5b6020908102909101015283518490600090811061130a57fe5b9060200190602002015183600281518110151561132357fe5b6020908102909101015283518490600a90811061133c57fe5b9060200190602002015183600381518110151561135557fe5b6020908102909101015283518490600b90811061136e57fe5b9060200190602002015183600481518110151561138757fe5b6020908102909101015261139a836106b5565b91506113af8285600f815181101515610c1e57fe5b600454909150600160a060020a038083169116146113cc57600080fd5b60045433600160a060020a039081169116146113e757600080fd5b60018060008760128151811015156113fb57fe5b60209081029190910181015182528101919091526040016000908120600301805460ff19169215159290921790915585517f6768e9219651a40c194e7dadba7540b112aa9f5495ed9224d694a2ba71ef9742908790600990811061145b57fe5b9060200190602002015187600081518110151561147457fe5b9060200190602002015188600a81518110151561148d57fe5b9060200190602002015189600b8151811015156114a657fe5b906020019060200201516060604051908101604052808c600c8151811015156114cb57fe5b602090810290910181015182528d519101908d90600d9081106114ea57fe5b602090810290910181015182528d519101908d90600e90811061150957fe5b60209081029091010151905260408051606081019091528c5181908e90600f90811061153157fe5b602090810290910181015182528e519101908e90601090811061155057fe5b602090810290910181015182528e519101908e90601190811061156f57fe5b602090810290910181015190915260408051888152918201879052810185905260608082018590526080820190849080838360005b838110156115bc5781810151838201526020016115a4565b5050505090500182600360200280838360005b838110156115e75781810151838201526020016115cf565b50505050905001965050505050505060405180910390a25050505050565b60006020819052908152604090208054600182015460029092015490919083565b600454600160a060020a031681565b60408051818152606080820183529182916000918291906020820161080080388339019050509250600091505b60208210156116f957506008810260020a8402611687601060f860020a830404610783565b835184906002850290811061169857fe5b906020010190600160f860020a031916908160001a9053506116c2601060f860020a830406610783565b83836002026001018151811015156116d657fe5b906020010190600160f860020a031916908160001a905350600190910190611662565b50909392505050565b60038054600101905580518190600090811061171a57fe5b602090810290910181015160035460009081529182905260409091205580518190600190811061174657fe5b602090810290910181015160035460009081529182905260409091206001015580518190600290811061177557fe5b60209081029091018101516003805460009081529283905260408320600201919091555482517fea3f2b7078db2e6bbf7c7e2ab4a864450c60236f314da2f4340fc53f70f9297692849181106117c757fe5b906020019060200201518360018151811015156117e057fe5b6020908102909101810151604080519485529184019290925282810191909152519081900360600190a150565b6000806060600080855111151561182357600080fd5b84600081518110151561183257fe5b906020019060200201519250600190505b845181101561190a5761185583611635565b915060028606151561187d576118768261071087848151811015156106dc57fe5b915061189a565b61189761189186838151811015156106dc57fe5b8361237c565b91505b816040518082805190602001908083835b602083106118ca5780518252601f1990920191602091820191016118ab565b5181516020939093036101000a60001901801990911692169190911790526040519201829003909120600290990498955050506001919091019050611843565b5090949350505050565b606060008260606000806005604051908082528060200260200182016040528015611949578160200160208202803883390190505b50925083600181518110151561195b57fe5b9060200190602002015183600081518110151561197457fe5b6020908102909101015283518490600290811061198d57fe5b906020019060200201518360018151811015156119a657fe5b602090810290910101528351849060039081106119bf57fe5b906020019060200201518360028151811015156119d857fe5b602090810290910101528351849060049081106119f157fe5b90602001906020020151836003815181101515611a0a57fe5b60209081029091010152835184906005908110611a2357fe5b90602001906020020151836004815181101515611a3c57fe5b60209081029091010152611a4f836106b5565b9150836000815181101515611a6057fe5b602090810290910101518214611a7557600080fd5b611a888285600681518110151561092c57fe5b9050836001815181101515611a9957fe5b60209081029091010151600160a060020a0316158015611ad95750836002815181101515611ac357fe5b60209081029091010151600160a060020a031615155b15611bad57836002815181101515611aed57fe5b60209081029091010151600160a060020a03828116911614611b0e57600080fd5b60016000856012815181101515611b2157fe5b6020908102909101810151825281019190915260400160002060010154600160a060020a03828116911614611b5557600080fd5b60016000856012815181101515611b6857fe5b6020908102909101810151825281019190915260400160002060020154845185906003908110611b9457fe5b6020908102909101015114611ba857600080fd5b611c31565b836001815181101515611bbc57fe5b60209081029091010151600160a060020a031615801590611bfc5750836002815181101515611be757fe5b60209081029091010151600160a060020a0316155b156100fa57836001815181101515611c1057fe5b60209081029091010151600160a060020a03828116911614611ba857600080fd5b600354600101600102836000815181101515611c4957fe5b60209081029091010152835184906009908110611c6257fe5b90602001906020020151836001815181101515611c7b57fe5b60209081029091010152835184906000908110611c9457fe5b90602001906020020151836002815181101515611cad57fe5b6020908102909101015283518490600a908110611cc657fe5b90602001906020020151836003815181101515611cdf57fe5b6020908102909101015283518490600b908110611cf857fe5b90602001906020020151836004815181101515611d1157fe5b60209081029091010152611d24836106b5565b9150611d398285600f815181101515610c1e57fe5b600454909150600160a060020a03808316911614611d5657600080fd5b678ac7230489e80000876003815181101515611d6e57fe5b602090810290910101511115611d8357600080fd5b604080516002808252606082018352909160208301908038833950506003548251929850600101918891506000908110611db957fe5b60209081029091010152865187906009908110611dd257fe5b90602001906020020151866001815181101515611deb57fe5b60209081029091010152611dfe866106b5565b600354600082815260026020526040902060019182019055885191965088918110611e2557fe5b602090810290910181015160008781526002909252604090912060010155865187906003908110611e5257fe5b602090810290910181015160008781526002928390526040902080830191909155600301805460ff1916600117905587518891908110611e8e57fe5b9060200190602002015160019004600160a060020a03166108fc886003815181101515611eb757fe5b602090810290910101516040518115909202916000818181858888f19350505050158015611ee9573d6000803e3d6000fd5b5060027f6768e9219651a40c194e7dadba7540b112aa9f5495ed9224d694a2ba71ef9742886009815181101515610da957fe5b60035460010160010260016000836000815181101515611f3857fe5b6020908102909101810151825281019190915260400160002055805181906001908110611f6157fe5b9060200190602002015160016000836000815181101515611f7e57fe5b6020908102909101810151825281019190915260400160002060010155805181906002908110611faa57fe5b9060200190602002015160016000836000815181101515611fc757fe5b6020908102909101810151825281019190915260400160009081206002019190915581518291908110611ff657fe5b6020908102909101015181517f913dac1707e441befc53d93550609b9848366e115ea3b348ce0d352ae59b271e908390600190811061203157fe5b9060200190602002015183600281518110151561204a57fe5b602090810290910181015160408051938452918301528051918290030190a250565b604080518082018252601c8082527f19457468657265756d205369676e6564204d6573736167653a0a3332000000006020830190815292516000938492839285928b928291908083835b602083106120d55780518252601f1990920191602091820191016120b6565b51815160209384036101000a6000190180199092169116179052920193845250604080519384900382018420600080865285840180845282905260ff8e1686840152606086018d9052608086018c905291519097506001955060a080860195939450601f198201938290030191865af1158015612156573d6000803e3d6000fd5b5050604051601f1901519998505050505050505050565b60035481565b6000805b82518110156121b057828181518110151561218e57fe5b602090810290910101518414156121a857600191506121b5565b600101612177565b600091505b5092915050565b600080600260008460008151811015156121d257fe5b602090810290910181015182528101919091526040016000206003015460ff16156121fc57600080fd5b6003546002600085600081518110151561221257fe5b60209081029091018101518252810191909152604001600020541061223657600080fd5b6002600084600081518110151561224957fe5b6020908102909101810151825281019190915260400160009081206001015484519093506002919085908290811061227d57fe5b6020908102909101810151825281019190915260409081016000908120600201549151919250600160a060020a0384169183156108fc0291849190818181858888f193505050501580156122d5573d6000803e3d6000fd5b506001600260008560008151811015156122eb57fe5b60209081029190910181015182528101919091526040016000908120600301805460ff1916921515929092179091558351849190811061232757fe5b602090810290910181015160408051600160a060020a0386168152928301849052805191927f80a40f1c0f5b1e6713e99526ec5194e44c9093e8aa012fb3673a24119edc795b929081900390910190a2505050565b606080606080606060008088955087945084518651016040519080825280601f01601f1916602001820160405280156123bf578160200160208202803883390190505b50935083925060009150600090505b855181101561242c5785818151811015156123e557fe5b90602001015160f860020a900460f860020a02838380600101945081518110151561240c57fe5b906020010190600160f860020a031916908160001a9053506001016123ce565b5060005b845181101561248e57848181518110151561244757fe5b90602001015160f860020a900460f860020a02838380600101945081518110151561246e57fe5b906020010190600160f860020a031916908160001a905350600101612430565b50909796505050505050505600a165627a7a7230582054230247859b519e87f483637ef25301829bb200473363a6c02805b35d8c04ad0029",
  "source": "pragma solidity ^0.4.23;\n\ncontract SidechainLib {\n    mapping (uint256 => SidechainLib.Stage) public stages;\n    mapping (bytes32 => SidechainLib.Log) public depositLogs;\n    mapping (bytes32 => SidechainLib.Log) public withdrawalLogs;\n    uint256 public stageHeight;\n    address public owner;\n\n    string constant version = \"v1.2.1\";\n\n\tstruct Stage {\n\t\tbytes32 receiptRootHash;\n\t\tbytes32 accountRootHash;\n\t\tbytes32 data;\n\t}\n\n    struct Log {\n        bytes32 stage;\n        bytes32 client;\n        bytes32 value;\n        bool flag;\n    }\n\n    event ProposeDeposit (\n        bytes32 indexed _dsn,\n        bytes32 _client,\n        bytes32 _value\n    );\n\n    event VerifyReceipt (\n        uint256 indexed _type, // { 0: deposit, 1: proposeWithdrawal, 2: instantWithdrawal}\n        bytes32 _gsn,\n        bytes32 _lightTxHash,\n        bytes32 _fromBalance,\n        bytes32 _toBalance,\n        bytes32[3] _sigLightTx,\n        bytes32[3] _sigReceipt\n    );\n\n    event Attach (\n        bytes32 _stageHeight,\n        bytes32 _receiptRootHash,\n        bytes32 _accountRootHash\n    );\n\n    event Withdraw (\n        bytes32 indexed _wsn,\n        bytes32 _client,\n        bytes32 _value\n    );\n\n    modifier onlyOwner {\n        require(msg.sender == owner);\n        _;\n    }\n\n    modifier isSigValid (bytes32[] _parameter) {\n        /*\n        _parameter[0] = _lightTxHash\n\n        ===lightTxData===\n        _parameter[1] = _from\n        _parameter[2] = _to\n        _parameter[3] = _value\n        _parameter[4] = _fee\n        _parameter[5] = _lsn\n\n        ===clientLtxSignature===\n        _parameter[6] = _vFromClient\n        _parameter[7] = _rFromClient\n        _parameter[8] = _sFromClient\n\n        ===receipt===\n        _parameter[9] = _gsn,\n        _parameter[10] = _fromBalance,\n        _parameter[11] = _toBalance,\n\n        ===serverLtxSignature===\n        _parameter[12] = _vFromServer\n        _parameter[13] = _rFromServer\n        _parameter[14] = _sFromServer\n\n        ===serverReceiptSignature===\n        _parameter[15] = _vFromServer,\n        _parameter[16] = _rFromServer,\n        _parameter[17] = _sFromServer,\n\n        _parameter[18] = _dsn (deposit)\n        */\n        bytes32[] memory bytes32Array = new bytes32[](5);\n        bytes32Array[0] = _parameter[1]; // from\n        bytes32Array[1] = _parameter[2]; // to\n        bytes32Array[2] = _parameter[3]; // value\n        bytes32Array[3] = _parameter[4]; // fee\n        bytes32Array[4] = _parameter[5]; // lsn\n        bytes32 hashMsg = hashArray(bytes32Array);\n        require(hashMsg == _parameter[0]);\n        address signer = verify(hashMsg, uint8(_parameter[6]), _parameter[7], _parameter[8]);\n        if (address(0) == address(_parameter[1]) && address(0) != address(_parameter[2])) {\n            // Deposit\n            require(signer == address(_parameter[2]));\n            require(signer == address(depositLogs[_parameter[18]].client));\n            require(_parameter[3] == depositLogs[_parameter[18]].value);\n        } else if (address(0) != address(_parameter[1]) && address(0) == address(_parameter[2])) {\n            // Withdraw\n            require(signer == address(_parameter[1]));\n        } else {\n            revert();\n        }\n\n        bytes32Array[0] = bytes32(stageHeight+1); // stageHeight\n        bytes32Array[1] = _parameter[9];          // gsn\n        bytes32Array[2] = _parameter[0];          // lightTxHash\n        bytes32Array[3] = _parameter[10];         // fromBalance\n        bytes32Array[4] = _parameter[11];         // toBalance\n        hashMsg = hashArray(bytes32Array);\n        signer = verify(hashMsg, uint8(_parameter[15]), _parameter[16], _parameter[17]);\n        require (signer == owner);\n        _;\n    }\n\n    function inBytes32Array (bytes32 data, bytes32[] dataArray) constant returns (bool){\n        for (uint i = 0; i < dataArray.length; i++) {\n            if (data == dataArray[i]) {\n                return true;\n            }\n        }\n        return false;\n    }\n\n    function hashArray (bytes32[] dataArray) constant returns (bytes32) {\n        require(dataArray.length > 0);\n        string memory str = bytes32ToString(dataArray[0]);\n        for (uint i = 1; i < dataArray.length; i++) {\n            str = strConcat(str, bytes32ToString(dataArray[i]));\n        }\n        return sha3(str);\n    }\n\n    function calculateSliceRootHash (uint idx, bytes32[] slice) constant returns (bytes32) {\n        require(slice.length > 0);\n        bytes32 rootHash = slice[0];\n        string memory str;\n        for (uint i = 1; i < slice.length; i++) {\n            str = bytes32ToString(rootHash);\n            if (idx % 2 == 0) {\n                str = strConcat(str, bytes32ToString(slice[i]));\n            } else {\n                str = strConcat(bytes32ToString(slice[i]), str);\n            }\n            rootHash = sha3(str);\n            idx = idx >> 1;\n        }\n        return rootHash;\n    }\n\n    function strConcat (string _a, string _b) constant returns (string) {\n        bytes memory bytes_a = bytes(_a);\n        bytes memory bytes_b = bytes(_b);\n        string memory length_ab = new string(bytes_a.length + bytes_b.length);\n        bytes memory bytes_c = bytes(length_ab);\n        uint k = 0;\n        for (uint i = 0; i < bytes_a.length; i++) {bytes_c[k++] = bytes_a[i];}\n        for (i = 0; i < bytes_b.length; i++) {bytes_c[k++] = bytes_b[i];}\n        return string(bytes_c);\n    }\n\n    function bytes32ToString (bytes32 b32) constant returns (string) {\n        bytes memory bytesString = new bytes(64);\n        for (uint i = 0; i < 32; i++) {\n            byte char = byte(bytes32(uint(b32) * 2 ** (8 * i)));\n            bytesString[i*2+0] = uintToAscii(uint(char) / 16);\n            bytesString[i*2+1] = uintToAscii(uint(char) % 16);\n        }\n        return string(bytesString);\n    }\n\n    function uintToAscii (uint number) constant returns(byte) {\n        if (number < 10) {\n            return byte(48 + number);\n        } else if (number < 16) {\n            // asciicode a = 97 return 10\n            return byte(87 + number);\n        } else {\n            revert();\n        }\n    }\n\n    function verify (bytes32 _message, uint8 _v, bytes32 _r, bytes32 _s) constant returns (address) {\n        bytes memory prefix = \"\\x19Ethereum Signed Message:\\n32\";\n        bytes32 prefixedHash = sha3(prefix, _message);\n        address signer = ecrecover(prefixedHash, _v, _r, _s);\n        return signer;\n    }\n\n    function attach (bytes32[] _parameter) {\n        /*\n        _parameter[0] = _receiptRootHash\n        _parameter[1] = _accountRootHash\n        _parameter[2] = _data\n        */\n        stageHeight++;\n        stages[stageHeight].receiptRootHash = _parameter[0];\n        stages[stageHeight].accountRootHash = _parameter[1];\n        stages[stageHeight].data = _parameter[2];\n        emit Attach (bytes32(stageHeight), _parameter[0], _parameter[1]);\n    }\n\n    function proposeDeposit (bytes32[] _parameter) payable {\n        /*\n        _parameter[0] = dsn\n        _parameter[1] = msg.sender\n        _parameter[2] = msg.value\n        */\n        depositLogs[_parameter[0]].stage = bytes32(stageHeight + 1);\n        depositLogs[_parameter[0]].client = _parameter[1];\n        depositLogs[_parameter[0]].value = _parameter[2];\n\n        emit ProposeDeposit (_parameter[0], _parameter[1], _parameter[2]);\n    }\n\n    function deposit (bytes32[] _parameter) isSigValid (_parameter) public onlyOwner {\n        depositLogs[_parameter[18]].flag = true;\n\n        emit VerifyReceipt ( 0,\n                             _parameter[9],\n                             _parameter[0],\n                             _parameter[10],\n                             _parameter[11],\n                             [ _parameter[12],\n                               _parameter[13],\n                               _parameter[14]],\n                             [ _parameter[15],\n                               _parameter[16],\n                               _parameter[17]]);\n    }\n\n    function proposeWithdrawal (bytes32[] _parameter) isSigValid (_parameter) public {\n        /*\n        wsn = concat(stageHeight + gsn)\n        */\n        bytes32[] memory bytes32Array = new bytes32[](2);\n        bytes32Array[0] = bytes32(stageHeight+1);\n        bytes32Array[1] = _parameter[9];\n        bytes32 wsn = hashArray(bytes32Array);\n\n        withdrawalLogs[wsn].stage = bytes32(stageHeight+1);\n        withdrawalLogs[wsn].client = _parameter[1];\n        withdrawalLogs[wsn].value = bytes32(uint256(_parameter[3]) - uint256(_parameter[4])); // value - fee\n\n        emit VerifyReceipt ( 1,\n                             _parameter[9],\n                             _parameter[0],\n                             _parameter[10],\n                             _parameter[11],\n                             [ _parameter[12],\n                               _parameter[13],\n                               _parameter[14]],\n                             [ _parameter[15],\n                               _parameter[16],\n                               _parameter[17]]);\n    }\n\n    function withdraw (bytes32[] _parameter) public {\n        /*\n        _parameter[0] = _wsn\n        */\n        // flag = false\n        require(!withdrawalLogs[_parameter[0]].flag);\n        // over challenge time\n        require (uint256(withdrawalLogs[_parameter[0]].stage) < stageHeight);\n        address client = address(withdrawalLogs[_parameter[0]].client);\n        uint256 value = uint256(withdrawalLogs[_parameter[0]].value);\n        client.transfer(value);\n        withdrawalLogs[_parameter[0]].flag = true;\n\n        emit Withdraw (_parameter[0], bytes32(client), bytes32(value));\n    }\n\n    function instantWithdraw (bytes32[] _parameter) isSigValid (_parameter) public {\n        // instantWithdraw condition\n        require (uint256(_parameter[3]) <= 10000000000000000000);\n        /*\n        wsn = concat((stageHeight+1) + gsn)\n        */\n        bytes32[] memory bytes32Array = new bytes32[](2);\n        bytes32Array[0] = bytes32(stageHeight+1);\n        bytes32Array[1] = _parameter[9];\n        bytes32 wsn = hashArray(bytes32Array);\n\n        withdrawalLogs[wsn].stage = bytes32(stageHeight+1);\n        withdrawalLogs[wsn].client = _parameter[1];\n        withdrawalLogs[wsn].value = _parameter[3];\n        withdrawalLogs[wsn].flag = true;\n\n        address(_parameter[2]).transfer(uint256(_parameter[3]));\n\n        emit VerifyReceipt ( 2,\n                             _parameter[9],\n                             _parameter[0],\n                             _parameter[10],\n                             _parameter[11],\n                             [ _parameter[12],\n                               _parameter[13],\n                               _parameter[14]],\n                             [ _parameter[15],\n                               _parameter[16],\n                               _parameter[17]]);\n    }\n}\n",
  "sourcePath": "/Users/juinc/infinitechain/infinitechain_contract/gringotts/contracts/SidechainLib.sol",
  "compiler": {
    "name": "solc",
    "version": "0.4.23+commit.124ca40d.Emscripten.clang"
  },
  "schemaVersion": "2.0.0",
  "updatedAt": "2018-05-18T10:53:08.101Z"
}