{
  "contractName": "Sidechain",
  "abi": [
    {
      "constant": true,
      "inputs": [
        {
          "name": "",
          "type": "bytes32"
        }
      ],
      "name": "depositLogs",
      "outputs": [
        {
          "name": "stage",
          "type": "bytes32"
        },
        {
          "name": "client",
          "type": "bytes32"
        },
        {
          "name": "value",
          "type": "bytes32"
        },
        {
          "name": "assetID",
          "type": "bytes32"
        },
        {
          "name": "flag",
          "type": "bool"
        }
      ],
      "payable": false,
      "stateMutability": "view",
      "type": "function"
    },
    {
      "constant": true,
      "inputs": [
        {
          "name": "",
          "type": "address"
        }
      ],
      "name": "assetAddresses",
      "outputs": [
        {
          "name": "",
          "type": "bool"
        }
      ],
      "payable": false,
      "stateMutability": "view",
      "type": "function"
    },
    {
      "constant": true,
      "inputs": [],
      "name": "defendLibAddress",
      "outputs": [
        {
          "name": "",
          "type": "address"
        }
      ],
      "payable": false,
      "stateMutability": "view",
      "type": "function"
    },
    {
      "constant": true,
      "inputs": [],
      "name": "challengedLibAddress",
      "outputs": [
        {
          "name": "",
          "type": "address"
        }
      ],
      "payable": false,
      "stateMutability": "view",
      "type": "function"
    },
    {
      "constant": true,
      "inputs": [
        {
          "name": "",
          "type": "bytes32"
        }
      ],
      "name": "withdrawalLogs",
      "outputs": [
        {
          "name": "stage",
          "type": "bytes32"
        },
        {
          "name": "client",
          "type": "bytes32"
        },
        {
          "name": "value",
          "type": "bytes32"
        },
        {
          "name": "assetID",
          "type": "bytes32"
        },
        {
          "name": "flag",
          "type": "bool"
        }
      ],
      "payable": false,
      "stateMutability": "view",
      "type": "function"
    },
    {
      "constant": true,
      "inputs": [
        {
          "name": "",
          "type": "uint256"
        }
      ],
      "name": "stages",
      "outputs": [
        {
          "name": "receiptRootHash",
          "type": "bytes32"
        },
        {
          "name": "accountRootHash",
          "type": "bytes32"
        },
        {
          "name": "data",
          "type": "bytes32"
        }
      ],
      "payable": false,
      "stateMutability": "view",
      "type": "function"
    },
    {
      "constant": true,
      "inputs": [],
      "name": "owner",
      "outputs": [
        {
          "name": "",
          "type": "address"
        }
      ],
      "payable": false,
      "stateMutability": "view",
      "type": "function"
    },
    {
      "constant": true,
      "inputs": [],
      "name": "instantWithdrawMaximum",
      "outputs": [
        {
          "name": "",
          "type": "uint256"
        }
      ],
      "payable": false,
      "stateMutability": "view",
      "type": "function"
    },
    {
      "constant": true,
      "inputs": [],
      "name": "utilAddress",
      "outputs": [
        {
          "name": "",
          "type": "address"
        }
      ],
      "payable": false,
      "stateMutability": "view",
      "type": "function"
    },
    {
      "constant": true,
      "inputs": [],
      "name": "depositSequenceNumber",
      "outputs": [
        {
          "name": "",
          "type": "uint256"
        }
      ],
      "payable": false,
      "stateMutability": "view",
      "type": "function"
    },
    {
      "constant": true,
      "inputs": [],
      "name": "managerAddress",
      "outputs": [
        {
          "name": "",
          "type": "address"
        }
      ],
      "payable": false,
      "stateMutability": "view",
      "type": "function"
    },
    {
      "constant": true,
      "inputs": [],
      "name": "stageHeight",
      "outputs": [
        {
          "name": "",
          "type": "uint256"
        }
      ],
      "payable": false,
      "stateMutability": "view",
      "type": "function"
    },
    {
      "constant": true,
      "inputs": [],
      "name": "cryptoFlowLibAddress",
      "outputs": [
        {
          "name": "",
          "type": "address"
        }
      ],
      "payable": false,
      "stateMutability": "view",
      "type": "function"
    },
    {
      "inputs": [
        {
          "name": "_sidechainOwner",
          "type": "address"
        },
        {
          "name": "_utilAddress",
          "type": "address"
        },
        {
          "name": "_cryptoFlowLibAddress",
          "type": "address"
        },
        {
          "name": "_challengedLibAddress",
          "type": "address"
        },
        {
          "name": "_defendLibAddress",
          "type": "address"
        },
        {
          "name": "_assetAddresses",
          "type": "address[]"
        },
        {
          "name": "_instantWithdrawMaximum",
          "type": "uint256"
        }
      ],
      "payable": false,
      "stateMutability": "nonpayable",
      "type": "constructor"
    },
    {
      "payable": true,
      "stateMutability": "payable",
      "type": "fallback"
    },
    {
      "anonymous": false,
      "inputs": [
        {
          "indexed": true,
          "name": "_dsn",
          "type": "bytes32"
        },
        {
          "indexed": true,
          "name": "_client",
          "type": "bytes32"
        },
        {
          "indexed": false,
          "name": "_value",
          "type": "bytes32"
        },
        {
          "indexed": false,
          "name": "_assetID",
          "type": "bytes32"
        }
      ],
      "name": "ProposeDeposit",
      "type": "event"
    },
    {
      "anonymous": false,
      "inputs": [
        {
          "indexed": true,
          "name": "_type",
          "type": "uint256"
        },
        {
          "indexed": false,
          "name": "_gsn",
          "type": "bytes32"
        },
        {
          "indexed": false,
          "name": "_lightTxHash",
          "type": "bytes32"
        },
        {
          "indexed": false,
          "name": "_fromBalance",
          "type": "bytes32"
        },
        {
          "indexed": false,
          "name": "_toBalance",
          "type": "bytes32"
        },
        {
          "indexed": false,
          "name": "_sigLightTx",
          "type": "bytes32[3]"
        },
        {
          "indexed": false,
          "name": "_sigReceipt",
          "type": "bytes32[3]"
        }
      ],
      "name": "VerifyReceipt",
      "type": "event"
    },
    {
      "anonymous": false,
      "inputs": [
        {
          "indexed": true,
          "name": "_wsn",
          "type": "bytes32"
        },
        {
          "indexed": true,
          "name": "_client",
          "type": "bytes32"
        },
        {
          "indexed": false,
          "name": "_value",
          "type": "bytes32"
        },
        {
          "indexed": false,
          "name": "_assetID",
          "type": "bytes32"
        }
      ],
      "name": "Withdraw",
      "type": "event"
    },
    {
      "anonymous": false,
      "inputs": [
        {
          "indexed": false,
          "name": "_stageHeight",
          "type": "bytes32"
        },
        {
          "indexed": false,
          "name": "_receiptRootHash",
          "type": "bytes32"
        },
        {
          "indexed": false,
          "name": "_accountRootHash",
          "type": "bytes32"
        }
      ],
      "name": "Attach",
      "type": "event"
    },
    {
      "anonymous": false,
      "inputs": [
        {
          "indexed": true,
          "name": "_challengedType",
          "type": "uint256"
        },
        {
          "indexed": false,
          "name": "_client",
          "type": "bytes32"
        },
        {
          "indexed": false,
          "name": "_lightTxHash",
          "type": "bytes32"
        }
      ],
      "name": "Challenge",
      "type": "event"
    },
    {
      "anonymous": false,
      "inputs": [
        {
          "indexed": false,
          "name": "_lightTxHash",
          "type": "bytes32"
        },
        {
          "indexed": false,
          "name": "_challengeState",
          "type": "bool"
        }
      ],
      "name": "Defend",
      "type": "event"
    },
    {
      "constant": false,
      "inputs": [
        {
          "name": "_signature",
          "type": "bytes4"
        },
        {
          "name": "_parameter",
          "type": "bytes32[]"
        }
      ],
      "name": "delegateToCryptoFlowLib",
      "outputs": [],
      "payable": true,
      "stateMutability": "payable",
      "type": "function"
    },
    {
      "constant": false,
      "inputs": [
        {
          "name": "_signature",
          "type": "bytes4"
        },
        {
          "name": "_parameter",
          "type": "bytes32[]"
        }
      ],
      "name": "delegateToChallengedLib",
      "outputs": [],
      "payable": false,
      "stateMutability": "nonpayable",
      "type": "function"
    },
    {
      "constant": false,
      "inputs": [
        {
          "name": "_signature",
          "type": "bytes4"
        },
        {
          "name": "_parameter",
          "type": "bytes32[]"
        }
      ],
      "name": "delegateToDefendLib",
      "outputs": [],
      "payable": false,
      "stateMutability": "nonpayable",
      "type": "function"
    },
    {
      "constant": false,
      "inputs": [
        {
          "name": "asAddress",
          "type": "address"
        }
      ],
      "name": "setAssetAddress",
      "outputs": [],
      "payable": false,
      "stateMutability": "nonpayable",
      "type": "function"
    },
    {
      "constant": false,
      "inputs": [
        {
          "name": "asAddress",
          "type": "address"
        }
      ],
      "name": "unsetAssetAddress",
      "outputs": [],
      "payable": false,
      "stateMutability": "nonpayable",
      "type": "function"
    },
    {
      "constant": false,
      "inputs": [
        {
          "name": "_from",
          "type": "address"
        },
        {
          "name": "_value",
          "type": "uint256"
        }
      ],
      "name": "tokenFallback",
      "outputs": [
        {
          "name": "success",
          "type": "bool"
        }
      ],
      "payable": false,
      "stateMutability": "nonpayable",
      "type": "function"
    },
    {
      "constant": true,
      "inputs": [
        {
          "name": "_parameter",
          "type": "bytes32[]"
        }
      ],
      "name": "getChallengedHash",
      "outputs": [
        {
          "name": "",
          "type": "bytes32"
        }
      ],
      "payable": false,
      "stateMutability": "view",
      "type": "function"
    },
    {
      "constant": true,
      "inputs": [
        {
          "name": "_parameter",
          "type": "bytes32[]"
        }
      ],
      "name": "getChallengedRepeatedGSNListInfo",
      "outputs": [
        {
          "name": "",
          "type": "address"
        },
        {
          "name": "",
          "type": "bytes32"
        },
        {
          "name": "",
          "type": "bytes32"
        },
        {
          "name": "",
          "type": "bool"
        },
        {
          "name": "",
          "type": "bool"
        }
      ],
      "payable": false,
      "stateMutability": "view",
      "type": "function"
    },
    {
      "constant": true,
      "inputs": [
        {
          "name": "_parameter",
          "type": "bytes32[]"
        }
      ],
      "name": "getChallengedWrongBalanceListInfo",
      "outputs": [
        {
          "name": "",
          "type": "address"
        },
        {
          "name": "",
          "type": "bytes32"
        },
        {
          "name": "",
          "type": "bytes32"
        },
        {
          "name": "",
          "type": "bool"
        },
        {
          "name": "",
          "type": "bool"
        }
      ],
      "payable": false,
      "stateMutability": "view",
      "type": "function"
    },
    {
      "constant": true,
      "inputs": [
        {
          "name": "_parameter",
          "type": "bytes32[]"
        }
      ],
      "name": "getChallengedSkippedGSNListInfo",
      "outputs": [
        {
          "name": "",
          "type": "address"
        },
        {
          "name": "",
          "type": "bytes32"
        },
        {
          "name": "",
          "type": "bytes32"
        },
        {
          "name": "",
          "type": "bool"
        },
        {
          "name": "",
          "type": "bool"
        }
      ],
      "payable": false,
      "stateMutability": "view",
      "type": "function"
    },
    {
      "constant": true,
      "inputs": [
        {
          "name": "_parameter",
          "type": "bytes32[]"
        }
      ],
      "name": "getChallengedExistedProofListInfo",
      "outputs": [
        {
          "name": "",
          "type": "address"
        },
        {
          "name": "",
          "type": "bytes32"
        },
        {
          "name": "",
          "type": "bytes32"
        },
        {
          "name": "",
          "type": "bool"
        },
        {
          "name": "",
          "type": "bool"
        }
      ],
      "payable": false,
      "stateMutability": "view",
      "type": "function"
    }
  ],
  "bytecode": "0x608060405234801561001057600080fd5b506040516114673803806114678339810160409081528151602080840151838501516060860151608087015160a088015160c08901516006805433600160a060020a031991821617909155600480548216600160a060020a03808c1691909117909155600580548316828a161790556007805483168289161790556008805483168288161790556009805490921690851617905560028181556001546000908152600a9098529887207f67656e6973697320737461676500000000000000000000000000000000000000990198909855959793969295919490939190910191905b8251811015610147576001600080858481518110151561010d57fe5b602090810291909101810151600160a060020a03168252810191909152604001600020805460ff19169115159190911790556001016100f1565b50505050505050506113098061015e6000396000f3006080604052600436106101225763ffffffff60e060020a60003504166277d61d81146101c3578062f817d614610231578063098bbb621461027657806320b877e8146102ab5780632e89a058146102dc578063361992ca1461036a578063376745051461037f5780633b66d02b146103e65780636cdcf1501461040a578063770e09fd146104225780637b2cf9a314610443578063845ddcb2146104bc57806388890c81146104f25780638da5cb5b1461054757806390c8a3a11461055c5780639604ad4614610571578063c20f17a714610586578063cc6e7a14146105db578063cf73a1bc146105f0578063d5dd9ddb14610605578063f418eae41461067e578063f5ab6b2514610693578063f950c6a6146106a8578063fb3b65bb146106fd575b60408051600380825260808201909252606091602082018380388339505081519192503391839150600090811061015557fe5b60209081029091010152805134908290600190811061017057fe5b6020908102909101015280516000908290600290811061018c57fe5b602090810290910101526101c07fdcf12aba000000000000000000000000000000000000000000000000000000008261071e565b50005b60408051602060046024803582810135848102808701860190975280865261022f9684357bffffffffffffffffffffffffffffffffffffffffffffffffffffffff19169636966044959194909101929182918501908490808284375094975061071e9650505050505050565b005b34801561023d57600080fd5b506102496004356107b5565b60408051958652602086019490945284840192909252606084015215156080830152519081900360a00190f35b34801561028257600080fd5b50610297600160a060020a03600435166107e7565b604080519115158252519081900360200190f35b3480156102b757600080fd5b506102c06107fc565b60408051600160a060020a039092168252519081900360200190f35b3480156102e857600080fd5b50604080516020600480358082013583810280860185019096528085526103319536959394602494938501929182918501908490808284375094975061080b9650505050505050565b60408051600160a060020a0390961686526020860194909452848401929092521515606084015215156080830152519081900360a00190f35b34801561037657600080fd5b506102c0610a23565b34801561038b57600080fd5b50604080516020600480358082013583810280860185019096528085526103d495369593946024949385019291829185019084908082843750949750610a329650505050505050565b60408051918252519081900360200190f35b3480156103f257600080fd5b50610297600160a060020a0360043516602435610a9b565b34801561041657600080fd5b50610249600435610b6b565b34801561042e57600080fd5b5061022f600160a060020a0360043516610b9d565b34801561044f57600080fd5b5060408051602060046024803582810135848102808701860190975280865261022f9684357bffffffffffffffffffffffffffffffffffffffffffffffffffffffff191696369660449591949091019291829185019084908082843750949750610bc19650505050505050565b3480156104c857600080fd5b506104d4600435610c37565b60408051938452602084019290925282820152519081900360600190f35b3480156104fe57600080fd5b506040805160206004803580820135838102808601850190965280855261033195369593946024949385019291829185019084908082843750949750610c589650505050505050565b34801561055357600080fd5b506102c0610e38565b34801561056857600080fd5b506103d4610e47565b34801561057d57600080fd5b506102c0610e4d565b34801561059257600080fd5b506040805160206004803580820135838102808601850190965280855261033195369593946024949385019291829185019084908082843750949750610e5c9650505050505050565b3480156105e757600080fd5b506103d461103c565b3480156105fc57600080fd5b506102c0611042565b34801561061157600080fd5b5060408051602060046024803582810135848102808701860190975280865261022f9684357bffffffffffffffffffffffffffffffffffffffffffffffffffffffff1916963696604495919490910192918291850190849080828437509497506110519650505050505050565b34801561068a57600080fd5b506103d46110c7565b34801561069f57600080fd5b506102c06110cd565b3480156106b457600080fd5b5060408051602060048035808201358381028086018501909652808552610331953695939460249493850192918291850190849080828437509497506110dc9650505050505050565b34801561070957600080fd5b5061022f600160a060020a03600435166112bc565b600760009054906101000a9004600160a060020a0316600160a060020a03168260e060020a900460208351846040518463ffffffff1660e060020a02815260040180848152602001838152602001828051906020019060200280838360005b8381101561079557818101518382015260200161077d565b505050509050019350505050600060405180830381865af4505050505050565b600b60205260009081526040902080546001820154600283015460038401546004909401549293919290919060ff1685565b60006020819052908152604090205460ff1681565b600954600160a060020a031681565b6000806000806000600a600087600081518110151561082657fe5b90602001906020020151600190048152602001908152602001600020600601600087600181518110151561085657fe5b602090810290910181015182528101919091526040016000908120548751600160a060020a0390911691600a9189908290811061088f57fe5b9060200190602002015160019004815260200190815260200160002060060160008860018151811015156108bf57fe5b6020908102909101810151825281019190915260400160009081206001010154600a60008960008151811015156108f257fe5b90602001906020020151600190048152602001908152602001600020600601600089600181518110151561092257fe5b6020908102909101810151825281019190915260400160002060019081010154600a60008a600081518110151561095557fe5b9060200190602002015160019004815260200190815260200160002060060160008a600181518110151561098557fe5b602090810290910181015182528101919091526040016000908120600301548a5160ff90911691600a918c90829081106109bb57fe5b9060200190602002015160019004815260200190815260200160002060060160008b60018151811015156109eb57fe5b602090810291909101810151825281019190915260400160002060030154939a929950909750955061010090910460ff169350915050565b600854600160a060020a031681565b6000600a6000836000815181101515610a4757fe5b90602001906020020151600190048152602001908152602001600020600701826001815181101515610a7557fe5b6020908102909101015181548110610a8957fe5b90600052602060002001549050919050565b3360009081526020819052604081205460609060ff161515610abc57600080fd5b6040805160038082526080820190925290602082016060803883395050815191925050600160a060020a0385169082906000908110610af757fe5b602090810290910101528051839082906001908110610b1257fe5b602090810290910101528051339082906002908110610b2d57fe5b60209081029091010152610b617fdcf12aba000000000000000000000000000000000000000000000000000000008261071e565b5060019392505050565b600c60205260009081526040902080546001820154600283015460038401546004909401549293919290919060ff1685565b600160a060020a03166000908152602081905260409020805460ff19166001179055565b600960009054906101000a9004600160a060020a0316600160a060020a03168260e060020a900460208351846040518463ffffffff1660e060020a02815260040180848152602001838152602001828051906020019060200280838360008381101561079557818101518382015260200161077d565b600a6020526000908152604090208054600182015460029092015490919083565b6000806000806000600a6000876000815181101515610c7357fe5b906020019060200201516001900481526020019081526020016000206004016000876001815181101515610ca357fe5b602090810290910181015182528101919091526040016000908120548751600160a060020a0390911691600a91899082908110610cdc57fe5b906020019060200201516001900481526020019081526020016000206004016000886001815181101515610d0c57fe5b6020908102909101810151825281019190915260400160009081206001010154600a6000896000815181101515610d3f57fe5b906020019060200201516001900481526020019081526020016000206004016000896001815181101515610d6f57fe5b6020908102909101810151825281019190915260400160002060019081010154600a60008a6000815181101515610da257fe5b9060200190602002015160019004815260200190815260200160002060040160008a6001815181101515610dd257fe5b602090810290910181015182528101919091526040016000908120600301548a5160ff90911691600a918c9082908110610e0857fe5b9060200190602002015160019004815260200190815260200160002060040160008b60018151811015156109eb57fe5b600454600160a060020a031681565b60025481565b600554600160a060020a031681565b6000806000806000600a6000876000815181101515610e7757fe5b906020019060200201516001900481526020019081526020016000206005016000876001815181101515610ea757fe5b602090810290910181015182528101919091526040016000908120548751600160a060020a0390911691600a91899082908110610ee057fe5b906020019060200201516001900481526020019081526020016000206005016000886001815181101515610f1057fe5b6020908102909101810151825281019190915260400160009081206001010154600a6000896000815181101515610f4357fe5b906020019060200201516001900481526020019081526020016000206005016000896001815181101515610f7357fe5b6020908102909101810151825281019190915260400160002060019081010154600a60008a6000815181101515610fa657fe5b9060200190602002015160019004815260200190815260200160002060050160008a6001815181101515610fd657fe5b602090810290910181015182528101919091526040016000908120600301548a5160ff90911691600a918c908290811061100c57fe5b9060200190602002015160019004815260200190815260200160002060050160008b60018151811015156109eb57fe5b60035481565b600654600160a060020a031681565b600860009054906101000a9004600160a060020a0316600160a060020a03168260e060020a900460208351846040518463ffffffff1660e060020a02815260040180848152602001838152602001828051906020019060200280838360008381101561079557818101518382015260200161077d565b60015481565b600754600160a060020a031681565b6000806000806000600a60008760008151811015156110f757fe5b90602001906020020151600190048152602001908152602001600020600301600087600181518110151561112757fe5b602090810290910181015182528101919091526040016000908120548751600160a060020a0390911691600a9189908290811061116057fe5b90602001906020020151600190048152602001908152602001600020600301600088600181518110151561119057fe5b6020908102909101810151825281019190915260400160009081206001010154600a60008960008151811015156111c357fe5b9060200190602002015160019004815260200190815260200160002060030160008960018151811015156111f357fe5b6020908102909101810151825281019190915260400160002060019081010154600a60008a600081518110151561122657fe5b9060200190602002015160019004815260200190815260200160002060030160008a600181518110151561125657fe5b602090810290910181015182528101919091526040016000908120600301548a5160ff90911691600a918c908290811061128c57fe5b9060200190602002015160019004815260200190815260200160002060030160008b60018151811015156109eb57fe5b600160a060020a03166000908152602081905260409020805460ff191690555600a165627a7a72305820ff098f2006fe6625361b614958713a78d8227e6a5a40fb890cd34a454200b4b50029",
  "source": "pragma solidity ^0.4.23;\n\nimport \"./CryptoFlowLib.sol\";\nimport \"./ChallengedLib.sol\";\nimport \"./DefendLib.sol\";\nimport \"./Util.sol\";\n\ncontract Sidechain {\n    mapping (address => bool) public assetAddresses;\n    uint256 public stageHeight;\n    uint256 public instantWithdrawMaximum;\n    uint256 public depositSequenceNumber;\n    address public owner;\n\n    address public utilAddress;\n    address public managerAddress;\n    address public cryptoFlowLibAddress;\n    address public challengedLibAddress;\n    address public defendLibAddress;\n    mapping (uint256 => ChallengedLib.Stage) public stages;\n    mapping (bytes32 => CryptoFlowLib.Log) public depositLogs;\n    mapping (bytes32 => CryptoFlowLib.Log) public withdrawalLogs;\n\n    event ProposeDeposit (\n        bytes32 indexed _dsn,\n        bytes32 indexed _client,\n        bytes32 _value,\n        bytes32 _assetID\n    );\n\n    event VerifyReceipt (\n        uint256 indexed _type, // { 0: deposit, 1: proposeWithdrawal, 2: instantWithdraw}\n        bytes32 _gsn,\n        bytes32 _lightTxHash,\n        bytes32 _fromBalance,\n        bytes32 _toBalance,\n        bytes32[3] _sigLightTx,\n        bytes32[3] _sigReceipt\n    );\n\n    event Withdraw (\n        bytes32 indexed _wsn,\n        bytes32 indexed _client,\n        bytes32 _value,\n        bytes32 _assetID\n    );\n\n    event Attach (\n        bytes32 _stageHeight,\n        bytes32 _receiptRootHash,\n        bytes32 _accountRootHash\n    );\n\n    event Challenge (\n        uint256 indexed _challengedType, // { type: 1 - 4, 1: repeatedGSN 2: wrongBalance 3: skippedGSN 4: existProof }\n        bytes32 _client,\n        bytes32 _lightTxHash\n    );\n\n    event Defend (\n        bytes32 _lightTxHash,\n        bool _challengeState\n    );\n\n    function Sidechain (\n        address _sidechainOwner,\n        address _utilAddress,\n        address _cryptoFlowLibAddress,\n        address _challengedLibAddress,\n        address _defendLibAddress,\n        address[] _assetAddresses,\n        uint256 _instantWithdrawMaximum\n    ) {\n        managerAddress = msg.sender;\n        owner = _sidechainOwner;\n        utilAddress = _utilAddress;\n        cryptoFlowLibAddress = _cryptoFlowLibAddress;\n        challengedLibAddress = _challengedLibAddress;\n        defendLibAddress = _defendLibAddress;\n        instantWithdrawMaximum = _instantWithdrawMaximum;\n        stages[stageHeight].data = \"genisis stage\";\n        \n        for (uint i=0; i<_assetAddresses.length; i++) {\n            assetAddresses[_assetAddresses[i]] = true;\n        }\n    }\n\n    function delegateToCryptoFlowLib (bytes4 _signature, bytes32[] _parameter) payable {\n        /*\n        'proposeDeposit(bytes32[])':     0xdcf12aba\n        'deposit(bytes32[])':            0x7b9d7d74\n        'proposeWithdrawal(bytes32[])':  0x68ff1929\n        'withdraw(bytes32[])':           0xfe2b3924\n        'instantWithdraw(bytes32[])':    0xbe1946da\n        */\n        cryptoFlowLibAddress.delegatecall( _signature, uint256(32), uint256(_parameter.length), _parameter);\n    }\n\n    function delegateToChallengedLib (bytes4 _signature, bytes32[] _parameter) public {\n        /*\n        'attach(bytes32[])':                                0x95aa4aac\n        'challengedRepeatedGSN(bytes32[])':                 0xb210ffbf\n        'challengedWrongBalance(bytes32[])':                0x4259ee16\n        'challengedSkippedGSN(bytes32[])':                  0x6f62a2d9\n        'challengedExistedProof(bytes32[])':                0xbfe6f0e2\n        */\n        challengedLibAddress.delegatecall( _signature, uint256(32), uint256(_parameter.length), _parameter);\n    }\n\n    function delegateToDefendLib (bytes4 _signature, bytes32[] _parameter) public {\n        /*\n        'defendWrongBalances(bytes32[])':                    0xa2e630a5\n        'defendSkippedGSN(bytes32[])':                       0xdc64db7c\n        'defendExistProof(bytes32[])':                       0xe1e59fb4\n        */\n        defendLibAddress.delegatecall( _signature, uint256(32), uint256(_parameter.length), _parameter);\n    }\n\n    function () payable {\n        /*\n        called delegateToLib to 'proposeDeposit(bytes32[])'\n        gas used : 127075\n        gad used : 106627\n        suggested gas : 150000\n        */\n        bytes32[] memory bytes32Array = new bytes32[](3);\n        bytes32Array[0] = bytes32(msg.sender);\n        bytes32Array[1] = bytes32(msg.value);\n        bytes32Array[2] = bytes32(0);\n        delegateToCryptoFlowLib(0xdcf12aba, bytes32Array);\n    }\n\n    function setAssetAddress(address asAddress) {\n        assetAddresses[asAddress] = true;\n    }\n\n    function unsetAssetAddress(address asAddress) {\n        delete assetAddresses[asAddress];\n    }\n\n    function tokenFallback(address _from, uint _value) public returns (bool success) {\n        if(assetAddresses[msg.sender] == false) {\n            revert();\n        } else {\n            bytes32[] memory bytes32Array = new bytes32[](3);\n            bytes32Array[0] = bytes32(_from);\n            bytes32Array[1] = bytes32(_value);\n            bytes32Array[2] = bytes32(msg.sender);\n            delegateToCryptoFlowLib(0xdcf12aba, bytes32Array);\n            return true;\n        }\n    }\n\n    function getChallengedHash (bytes32[] _parameter) constant returns (bytes32) {\n        /*\n        parameter[0] = _stageHeight,\n        parameter[1] = _challengeNumber\n        */\n        return stages[uint256(_parameter[0])].challengedLightTxHashes[uint256(_parameter[1])];\n    }\n\n    function getChallengedRepeatedGSNListInfo (bytes32[] _parameter) constant returns (address, bytes32, bytes32, bool, bool) {\n        /*\n        parameter[0] = _stageHeight,\n        parameter[1] = _lightTxHash\n        */\n        return (stages[uint256(_parameter[0])].challengedRepeatedGSNList[_parameter[1]].client, stages[uint256(_parameter[0])].challengedRepeatedGSNList[_parameter[1]].lightTxHashes[0], stages[uint256(_parameter[0])].challengedRepeatedGSNList[_parameter[1]].lightTxHashes[1], stages[uint256(_parameter[0])].challengedRepeatedGSNList[_parameter[1]].challengedState, stages[uint256(_parameter[0])].challengedRepeatedGSNList[_parameter[1]].getCompensation);\n    }\n\n    function getChallengedWrongBalanceListInfo (bytes32[] _parameter) constant returns (address, bytes32, bytes32, bool, bool) {\n        /*\n        parameter[0] = _stageHeight,\n        parameter[1] = _lightTxHash\n        */\n        return (stages[uint256(_parameter[0])].challengedWrongBalanceList[_parameter[1]].client, stages[uint256(_parameter[0])].challengedWrongBalanceList[_parameter[1]].lightTxHashes[0], stages[uint256(_parameter[0])].challengedWrongBalanceList[_parameter[1]].lightTxHashes[1], stages[uint256(_parameter[0])].challengedWrongBalanceList[_parameter[1]].challengedState, stages[uint256(_parameter[0])].challengedWrongBalanceList[_parameter[1]].getCompensation);\n    }\n\n    function getChallengedSkippedGSNListInfo (bytes32[] _parameter) constant returns (address, bytes32, bytes32, bool, bool) {\n        /*\n        parameter[0] = _stageHeight,\n        parameter[1] = _lightTxHash\n        */\n        return (stages[uint256(_parameter[0])].challengedSkippedGSNList[_parameter[1]].client, stages[uint256(_parameter[0])].challengedSkippedGSNList[_parameter[1]].lightTxHashes[0], stages[uint256(_parameter[0])].challengedSkippedGSNList[_parameter[1]].lightTxHashes[1], stages[uint256(_parameter[0])].challengedSkippedGSNList[_parameter[1]].challengedState, stages[uint256(_parameter[0])].challengedSkippedGSNList[_parameter[1]].getCompensation);\n    }\n\n    function getChallengedExistedProofListInfo (bytes32[] _parameter) constant returns (address, bytes32, bytes32, bool, bool) {\n        /*\n        parameter[0] = _stageHeight,\n        parameter[1] = _lightTxHash\n        */\n        return (stages[uint256(_parameter[0])].challengedExistedProofList[_parameter[1]].client, stages[uint256(_parameter[0])].challengedExistedProofList[_parameter[1]].lightTxHashes[0], stages[uint256(_parameter[0])].challengedExistedProofList[_parameter[1]].lightTxHashes[1], stages[uint256(_parameter[0])].challengedExistedProofList[_parameter[1]].challengedState, stages[uint256(_parameter[0])].challengedExistedProofList[_parameter[1]].getCompensation);\n    }\n}\n",
  "sourcePath": "/Users/peter.lai/Desktop/Projects/contracts/gringotts/contracts/Sidechain.sol",
  "compiler": {
    "name": "solc",
    "version": "0.4.24+commit.e67f0147.Emscripten.clang"
  },
  "schemaVersion": "2.0.0",
  "updatedAt": "2018-07-12T08:26:40.737Z"
}