{
  "contractName": "Sidechain",
  "abi": [
    {
      "constant": true,
      "inputs": [
        {
          "name": "",
          "type": "bytes32"
        }
      ],
      "name": "depositLogs",
      "outputs": [
        {
          "name": "stage",
          "type": "bytes32"
        },
        {
          "name": "client",
          "type": "bytes32"
        },
        {
          "name": "value",
          "type": "bytes32"
        },
        {
          "name": "assetID",
          "type": "bytes32"
        },
        {
          "name": "flag",
          "type": "bool"
        }
      ],
      "payable": false,
      "stateMutability": "view",
      "type": "function"
    },
    {
      "constant": true,
      "inputs": [
        {
          "name": "",
          "type": "address"
        }
      ],
      "name": "assetAddresses",
      "outputs": [
        {
          "name": "",
          "type": "bool"
        }
      ],
      "payable": false,
      "stateMutability": "view",
      "type": "function"
    },
    {
      "constant": true,
      "inputs": [
        {
          "name": "",
          "type": "bytes32"
        }
      ],
      "name": "withdrawalLogs",
      "outputs": [
        {
          "name": "stage",
          "type": "bytes32"
        },
        {
          "name": "client",
          "type": "bytes32"
        },
        {
          "name": "value",
          "type": "bytes32"
        },
        {
          "name": "assetID",
          "type": "bytes32"
        },
        {
          "name": "flag",
          "type": "bool"
        }
      ],
      "payable": false,
      "stateMutability": "view",
      "type": "function"
    },
    {
      "constant": true,
      "inputs": [
        {
          "name": "",
          "type": "uint256"
        }
      ],
      "name": "stages",
      "outputs": [
        {
          "name": "receiptRootHash",
          "type": "bytes32"
        },
        {
          "name": "accountRootHash",
          "type": "bytes32"
        },
        {
          "name": "data",
          "type": "bytes32"
        }
      ],
      "payable": false,
      "stateMutability": "view",
      "type": "function"
    },
    {
      "constant": true,
      "inputs": [],
      "name": "owner",
      "outputs": [
        {
          "name": "",
          "type": "address"
        }
      ],
      "payable": false,
      "stateMutability": "view",
      "type": "function"
    },
    {
      "constant": true,
      "inputs": [],
      "name": "instantWithdrawMaximum",
      "outputs": [
        {
          "name": "",
          "type": "uint256"
        }
      ],
      "payable": false,
      "stateMutability": "view",
      "type": "function"
    },
    {
      "constant": true,
      "inputs": [],
      "name": "depositSequenceNumber",
      "outputs": [
        {
          "name": "",
          "type": "uint256"
        }
      ],
      "payable": false,
      "stateMutability": "view",
      "type": "function"
    },
    {
      "constant": true,
      "inputs": [],
      "name": "managerAddress",
      "outputs": [
        {
          "name": "",
          "type": "address"
        }
      ],
      "payable": false,
      "stateMutability": "view",
      "type": "function"
    },
    {
      "constant": true,
      "inputs": [],
      "name": "sidechainLibAddress",
      "outputs": [
        {
          "name": "",
          "type": "address"
        }
      ],
      "payable": false,
      "stateMutability": "view",
      "type": "function"
    },
    {
      "constant": true,
      "inputs": [],
      "name": "stageHeight",
      "outputs": [
        {
          "name": "",
          "type": "uint256"
        }
      ],
      "payable": false,
      "stateMutability": "view",
      "type": "function"
    },
    {
      "inputs": [
        {
          "name": "_sidechainOwner",
          "type": "address"
        },
        {
          "name": "_sidechainLibAddress",
          "type": "address"
        },
        {
          "name": "_assetAddresses",
          "type": "address[]"
        },
        {
          "name": "_instantWithdrawMaximum",
          "type": "uint256"
        }
      ],
      "payable": false,
      "stateMutability": "nonpayable",
      "type": "constructor"
    },
    {
      "payable": true,
      "stateMutability": "payable",
      "type": "fallback"
    },
    {
      "anonymous": false,
      "inputs": [
        {
          "indexed": true,
          "name": "_dsn",
          "type": "bytes32"
        },
        {
          "indexed": true,
          "name": "_client",
          "type": "bytes32"
        },
        {
          "indexed": false,
          "name": "_value",
          "type": "bytes32"
        },
        {
          "indexed": false,
          "name": "_assetID",
          "type": "bytes32"
        }
      ],
      "name": "ProposeDeposit",
      "type": "event"
    },
    {
      "anonymous": false,
      "inputs": [
        {
          "indexed": true,
          "name": "_type",
          "type": "uint256"
        },
        {
          "indexed": false,
          "name": "_gsn",
          "type": "bytes32"
        },
        {
          "indexed": false,
          "name": "_lightTxHash",
          "type": "bytes32"
        },
        {
          "indexed": false,
          "name": "_fromBalance",
          "type": "bytes32"
        },
        {
          "indexed": false,
          "name": "_toBalance",
          "type": "bytes32"
        },
        {
          "indexed": false,
          "name": "_sigLightTx",
          "type": "bytes32[3]"
        },
        {
          "indexed": false,
          "name": "_sigReceipt",
          "type": "bytes32[3]"
        }
      ],
      "name": "VerifyReceipt",
      "type": "event"
    },
    {
      "anonymous": false,
      "inputs": [
        {
          "indexed": false,
          "name": "_stageHeight",
          "type": "bytes32"
        },
        {
          "indexed": false,
          "name": "_receiptRootHash",
          "type": "bytes32"
        },
        {
          "indexed": false,
          "name": "_accountRootHash",
          "type": "bytes32"
        }
      ],
      "name": "Attach",
      "type": "event"
    },
    {
      "anonymous": false,
      "inputs": [
        {
          "indexed": true,
          "name": "_wsn",
          "type": "bytes32"
        },
        {
          "indexed": true,
          "name": "_client",
          "type": "bytes32"
        },
        {
          "indexed": false,
          "name": "_value",
          "type": "bytes32"
        },
        {
          "indexed": false,
          "name": "_assetID",
          "type": "bytes32"
        }
      ],
      "name": "Withdraw",
      "type": "event"
    },
    {
      "constant": false,
      "inputs": [
        {
          "name": "_signature",
          "type": "bytes4"
        },
        {
          "name": "_parameter",
          "type": "bytes32[]"
        }
      ],
      "name": "delegateToLib",
      "outputs": [],
      "payable": true,
      "stateMutability": "payable",
      "type": "function"
    },
    {
      "constant": false,
      "inputs": [
        {
          "name": "asAddress",
          "type": "address"
        }
      ],
      "name": "setAssetAddress",
      "outputs": [],
      "payable": false,
      "stateMutability": "nonpayable",
      "type": "function"
    },
    {
      "constant": false,
      "inputs": [
        {
          "name": "asAddress",
          "type": "address"
        }
      ],
      "name": "unsetAssetAddress",
      "outputs": [],
      "payable": false,
      "stateMutability": "nonpayable",
      "type": "function"
    },
    {
      "constant": false,
      "inputs": [
        {
          "name": "_from",
          "type": "address"
        },
        {
          "name": "_value",
          "type": "uint256"
        }
      ],
      "name": "tokenFallback",
      "outputs": [
        {
          "name": "success",
          "type": "bool"
        }
      ],
      "payable": false,
      "stateMutability": "nonpayable",
      "type": "function"
    }
  ],
  "bytecode": "0x608060405234801561001057600080fd5b5060405161077238038061077283398101604090815281516020808401518385015160608601516008805433600160a060020a031991821617909155600780548216600160a060020a03808916919091179091556009805490921690851617905560058190556004546000908152938490529483207f67656e69736973207374616765000000000000000000000000000000000000006002919091015592949093920191905b825181101561010d5760016003600085848151811015156100d357fe5b602090810291909101810151600160a060020a03168252810191909152604001600020805460ff19169115159190911790556001016100b6565b5050505050610651806101216000396000f3006080604052600436106100b55763ffffffff60e060020a600035041662f817d68114610156578063098bbb621461019b5780633b66d02b146101d05780636cdcf150146101f4578063770e09fd1461020c578063845ddcb21461022f5780638da5cb5b1461026557806390c8a3a114610296578063c9a557fb146102bd578063cc6e7a141461032c578063cf73a1bc14610341578063cff50d3e14610356578063f418eae41461036b578063fb3b65bb14610380575b6040805160038082526080820190925260609160208201838038833950508151919250339183915060009081106100e857fe5b60209081029091010152805134908290600190811061010357fe5b6020908102909101015280516000908290600290811061011f57fe5b602090810290910101526101537fdcf12aba00000000000000000000000000000000000000000000000000000000826103a1565b50005b34801561016257600080fd5b5061016e600435610438565b60408051958652602086019490945284840192909252606084015215156080830152519081900360a00190f35b3480156101a757600080fd5b506101bc600160a060020a0360043516610469565b604080519115158252519081900360200190f35b3480156101dc57600080fd5b506101bc600160a060020a036004351660243561047e565b34801561020057600080fd5b5061016e60043561054e565b34801561021857600080fd5b5061022d600160a060020a0360043516610580565b005b34801561023b57600080fd5b506102476004356105a4565b60408051938452602084019290925282820152519081900360600190f35b34801561027157600080fd5b5061027a6105c5565b60408051600160a060020a039092168252519081900360200190f35b3480156102a257600080fd5b506102ab6105d4565b60408051918252519081900360200190f35b60408051602060046024803582810135848102808701860190975280865261022d9684357fffffffff0000000000000000000000000000000000000000000000000000000016963696604495919490910192918291850190849080828437509497506103a19650505050505050565b34801561033857600080fd5b506102ab6105da565b34801561034d57600080fd5b5061027a6105e0565b34801561036257600080fd5b5061027a6105ef565b34801561037757600080fd5b506102ab6105fe565b34801561038c57600080fd5b5061022d600160a060020a0360043516610604565b600960009054906101000a9004600160a060020a0316600160a060020a03168260e060020a900460208351846040518463ffffffff1660e060020a02815260040180848152602001838152602001828051906020019060200280838360005b83811015610418578181015183820152602001610400565b505050509050019350505050600060405180830381865af4505050505050565b6001602081905260009182526040909120805491810154600282015460038301546004909301549192909160ff1685565b60036020526000908152604090205460ff1681565b3360009081526003602052604081205460609060ff16151561049f57600080fd5b6040805160038082526080820190925290602082016060803883395050815191925050600160a060020a03851690829060009081106104da57fe5b6020908102909101015280518390829060019081106104f557fe5b60209081029091010152805133908290600290811061051057fe5b602090810290910101526105447fdcf12aba00000000000000000000000000000000000000000000000000000000826103a1565b5060019392505050565b600260208190526000918252604090912080546001820154928201546003830154600490930154919392909160ff1685565b600160a060020a03166000908152600360205260409020805460ff19166001179055565b60006020819052908152604090208054600182015460029092015490919083565b600754600160a060020a031681565b60055481565b60065481565b600854600160a060020a031681565b600954600160a060020a031681565b60045481565b600160a060020a03166000908152600360205260409020805460ff191690555600a165627a7a72305820a1d824d11dee309bcf8a90edbc1fe4d796e09e28ae0ecc333375c163cbee23900029",
  "source": "pragma solidity ^0.4.23;\n\nimport \"./SidechainLib.sol\";\n\ncontract Sidechain {\n    mapping (uint256 => SidechainLib.Stage) public stages;\n    mapping (bytes32 => SidechainLib.Log) public depositLogs;\n    mapping (bytes32 => SidechainLib.Log) public withdrawalLogs;\n    mapping (address => bool) public assetAddresses;\n    uint256 public stageHeight;\n    uint256 public instantWithdrawMaximum;\n    uint256 public depositSequenceNumber;\n    address public owner;\n\n    address public managerAddress;\n    address public sidechainLibAddress;\n\n    event ProposeDeposit (\n        bytes32 indexed _dsn,\n        bytes32 indexed _client,\n        bytes32 _value,\n        bytes32 _assetID\n    );\n\n    event VerifyReceipt (\n        uint256 indexed _type, // { 0: deposit, 1: proposeWithdrawal, 2: instantWithdraw}\n        bytes32 _gsn,\n        bytes32 _lightTxHash,\n        bytes32 _fromBalance,\n        bytes32 _toBalance,\n        bytes32[3] _sigLightTx,\n        bytes32[3] _sigReceipt\n    );\n\n    event Attach (\n        bytes32 _stageHeight,\n        bytes32 _receiptRootHash,\n        bytes32 _accountRootHash\n    );\n\n    event Withdraw (\n        bytes32 indexed _wsn,\n        bytes32 indexed _client,\n        bytes32 _value,\n        bytes32 _assetID\n    );\n\n    function Sidechain (\n        address _sidechainOwner,\n        address _sidechainLibAddress,\n        address[] _assetAddresses,\n        uint256 _instantWithdrawMaximum\n    ) {\n        managerAddress = msg.sender;\n        owner = _sidechainOwner;\n        sidechainLibAddress = _sidechainLibAddress;\n        instantWithdrawMaximum = _instantWithdrawMaximum;\n        stages[stageHeight].data = \"genisis stage\";\n        \n        for (uint i=0; i<_assetAddresses.length; i++) {\n            assetAddresses[_assetAddresses[i]] = true;\n        }\n    }\n\n    function delegateToLib (bytes4 _signature, bytes32[] _parameter) payable {\n        /*\n        'attach(bytes32[])':             0x95aa4aac\n        'proposeDeposit(bytes32[])':     0xdcf12aba\n        'deposit(bytes32[])':            0x7b9d7d74\n        'proposeWithdrawal(bytes32[])':  0x68ff1929\n        'withdraw(bytes32[])':           0xfe2b3924\n        'instantWithdraw(bytes32[])':    0xbe1946da\n        */\n        sidechainLibAddress.delegatecall( _signature, uint256(32), uint256(_parameter.length), _parameter);\n    }\n\n    function () payable {\n        /*\n        called delegateToLib to 'proposeDeposit(bytes32[])'\n        gas used : 127075\n        gad used : 106627\n        suggested gas : 150000\n        */\n        bytes32[] memory bytes32Array = new bytes32[](3);\n        bytes32Array[0] = bytes32(msg.sender);\n        bytes32Array[1] = bytes32(msg.value);\n        bytes32Array[2] = bytes32(0);\n        delegateToLib(0xdcf12aba, bytes32Array);\n    }\n    \n    function setAssetAddress(address asAddress) {\n        assetAddresses[asAddress] = true;\n    }\n    \n    function unsetAssetAddress(address asAddress) {\n        delete assetAddresses[asAddress];\n    }\n    \n    function tokenFallback(address _from, uint _value) public returns (bool success) {\n        if(assetAddresses[msg.sender] == false) {\n            revert();\n        } else {\n            bytes32[] memory bytes32Array = new bytes32[](3);\n            bytes32Array[0] = bytes32(_from);\n            bytes32Array[1] = bytes32(_value);\n            bytes32Array[2] = bytes32(msg.sender);\n            delegateToLib(0xdcf12aba, bytes32Array);\n            return true;\n        }\n    }\n}\n",
  "sourcePath": "/Users/peter.lai/Desktop/Projects/contracts/gringotts/contracts/Sidechain.sol",
  "compiler": {
    "name": "solc",
    "version": "0.4.24+commit.e67f0147.Emscripten.clang"
  },
  "schemaVersion": "2.0.0",
  "updatedAt": "2018-07-06T02:32:44.929Z"
}